:020000040800F2
:1000000040F00020751600081D3B00087F16000810
:10001000233B0008273B00082B3B000800000000A2
:100020000000000000000000000000002F3B00085E
:10003000313B000800000000333B0008353B00085E
:10004000B7160008B7160008B7160008B71600085C
:10005000B7160008B716000889070008B716000889
:10006000B7160008B7160008B7160008B71600083C
:10007000B7160008B7160008B7160008B71600082C
:10008000B7160008B7160008B7160008B71600081C
:10009000B7160008B7160008B7160008EF430008A7
:1000A000B7160008B7160008B7160008B7160008FC
:1000B000B7160008B7160008B7160008B7160008EC
:1000C000B7160008B7160008B7160008B7160008DC
:1000D000B716000871490008B7160008B7160008DF
:1000E000B7160008B7160008B7160008B7160008BC
:1000F000B7160008B7160008B7160008B7160008AC
:10010000B7160008B7160008B7160008B71600089B
:10011000B34A0008B7160008B7160008B71600085B
:10012000B7160008B7160008B7160008B71600087B
:10013000DFF810D021F082FA20F0DAFC0048004706
:10014000AD01000840F0002010B5002807DA0A07CA
:10015000140E294A00F00F031B1FD45403E00A07B2
:10016000130E264A135410BD10B5254800684FF4ED
:100170007A71B0FBF1F4B4F1807F00D311E024F088
:100180007F40401E4FF0E02148610F214FF0FF30CB
:10019000FFF7DAFF00204FF0E021886107200861B7
:1001A00000BF0121881EFFF7CFFF10BD10B5FFF77C
:1001B000DBFF05F08CFD19F03BF81AF01CFC4FF446
:1001C000A06001F07FFA4FF4E13004F081FB04F00D
:1001D00002F9072004F005F904F0AAFC0BF0E0FF97
:1001E00000BF08480068B0F57A7FFAD31FF06BF9BA
:1001F0000CF073F9002010BD18ED00E000E400E001
:10020000440000205800002030B5801C40F8021C3B
:10021000C0F80220C0F80630012484720024C472A1
:10022000C4600461446101258561C4610562446262
:10023000801E30BD01210E3000F8021C002100F8A4
:10024000011C01604160816042698169C260016195
:100250000E3870470121017300214173C0F80E1060
:10026000C0F81210C0F81610704770B504460D465D
:100270004DB12168D4F81630A66803FB061032464B
:10028000294620F0F8FAA41D2069401C54F8021CED
:10029000B0FBF1F201FB12002061E269206A521CFE
:1002A00040F10000E261206272B6A068401CA060CC
:1002B0000020A071A06854F8021CA41F884201D13C
:1002C0000120607362B670BD70B504460D464DB135
:1002D0002068D4F81230A66803FB0601324628468F
:1002E00020F0C9FAA41DE068401C54F8021CB0FBC1
:1002F000F1F201FB1200E0606269A069521C40F15A
:1003000000006261A06172B6A068401EA060A06893
:10031000A41F08B9012020730020607362B670BD6D
:1003200070B50446FA480568FA4E44F480713046C8
:1003300003F06AF800BF4021304603F0D3F80128EB
:1003400004D0F3480068401B6428F4D370BD70B536
:100350000446EF480568EF4E2146304603F054F856
:1003600000BF4021304603F0BDF8012804D0E84822
:100370000068401B6428F4D370BD70B5E44804687D
:10038000E44D00BF2021284603F0ACF8012804D03A
:10039000DF480068001B6428F4D3284603F038F8CF
:1003A000C0B270BDDA4A116800BF0A18D84B1B688A
:1003B0009A42FAD8704710B50120FFF7B1FFFFF756
:1003C000DCFF10BD70B506460220FFF7A9FFB6F5A9
:1003D000E13F1AD009DCB6F5165F0DD0B6F5964FA1
:1003E0000DD0B6F5614F19D10CE0B6F57A3F0FD0BC
:1003F000B6F5E12F12D10EE00224B2250EE0022460
:10040000D9250BE00324982508E00324CC2505E03A
:100410000324E92502E00324F32500BF00BF2046A2
:10042000FFF795FF2846FFF792FF70BD10B5052036
:10043000FFF776FF3220FFF7B5FF10BD10B5FFF7CD
:100440009CFF0620FFF76CFF5520FFF780FFFFF7AA
:1004500094FF0446AA2C01D1012010BD0020FCE726
:1004600010B504461520FFF75BFFE0B2FFF76FFF02
:100470008020A9490870A9490870FFF77EFF51281C
:1004800001D1012010BD0020FCE710B52220FFF7AC
:1004900047FFFFF772FF0446204610BD10B51D2030
:1004A000FFF73EFF9D480078FFF751FF9B4800781B
:1004B00080F040009949087010BD10B51C20FFF76E
:1004C0002FFF95480078FFF742FF9348007880F0AF
:1004D00040009149087010BD70B504460D464F208C
:1004E000FFF71EFFF02101EA041105F00F0241EAB7
:1004F0000200FFF72CFF70BD70B504460D462B209F
:10050000FFF70EFFE8B2FFF722FF03E014F8010B3C
:10051000FFF71DFF281EA5F10105F7D170BD70B5CD
:1005200004462820FFF7FCFEFFF727FF05460026BC
:1005300005E0FFF722FF04F8010B701CC6B2AE42C3
:10054000F7D1284670BD10B504460420FFF7E8FE39
:100550002046FFF7FCFE10BD70B505464520FFF7AD
:10056000DFFE2846FFF7F3FEFFF707FF04462246AB
:100570006B496CA021F0A2FB142C01D1012070BDAD
:100580000020FCE710B504461320FFF7C9FE204603
:10059000FFF7DDFEFFF7F1FE142801D1012010BDA9
:1005A0000020FCE710B50446624963A021F086FBF9
:1005B00080205A490870584908704920FFF7B0FE5A
:1005C0002046FFF7C4FEFFF760FF142801D1012089
:1005D00010BD0020FCE770B504460D464120FFF732
:1005E0009FFE3DB144F08000FFF7B1FE80204A49F4
:1005F000087005E02046FFF7AAFE802047490870F2
:10060000FFF743FF08B1012070BD0020FCE710B5E3
:1006100004464620FFF784FE2046FFF798FEFFF7CA
:1006200034FF142801D1012010BD0020FCE710B5D3
:100630000720FFF715FF0A20FFF7B4FE0620FFF79B
:100640000FFF0A20FFF7AEFEFFF797FE512801D1FA
:10065000012010BD0020FCE71FB50120ADF80C0003
:1006600048208DF80F0003208DF80E0003A93448B0
:1006700001F0ACFB0021032001F0BEFC0120009042
:1006800000208DF804000C208DF8050001208DF865
:100690000600684601F0BAFA06208DF8080003202B
:1006A0008DF809008DF80A0001208DF80B0002A8D2
:1006B00001F00DF81FBD1CB50120009000208DF841
:1006C00004000C208DF8050000208DF80600684617
:1006D00001F09CFA1CBD08B50220ADF80000102006
:1006E0008DF8030003208DF802006946144801F0DC
:1006F0006DFB0221124801F016FC0520FFF752FEA7
:1007000002210F4801F011FC2320FFF74BFE08BD2A
:1007100058000020004C004003000020040000208E
:10072000903E02085B25735D7265733A25780D0A69
:1007300000000000A03E02085B25735D0D0A00006A
:100740000014014010B5044600220121204604F0A7
:100750003FF910BD10B54FF41650FFF7F3FF00201E
:10076000F6490870F64908706421F64820F09CF8B4
:100770004021F54820F098F84FF48071F34820F0BC
:1007800093F8FFF7A8FF10BD70B5012001F0B5FA8E
:1007900005F075F8032836D1FFF777FE0446162CCE
:1007A00002D1FFF7D7FF70BD142C0FD00121E8480C
:1007B0000078FFF710FFFFF7CDFFE6480268E6A1DB
:1007C000002015F04CFFFFF776FF14E0EF48FFF72D
:1007D000A6FE0546142D06D1ED4800781B2802D14F
:1007E0001420EB490870EA480078854202D10120C4
:1007F000D349087000BFFFF760FE0921D448007894
:10080000FFF76AFE00BF00BFCDE710B5E1480078F2
:1008100000F0010050B9DF4821F0B2FA30B1CD4804
:100820000068DD490860DB48AFF30080DB480078F2
:1008300000F0010050B9D94821F0A2FA30B1BF4808
:100840000078D7490870D548AFF30080D4480078C5
:10085000BA490978884203D0B8480078D04908706E
:10086000B6480078062872D2DFE800F003111A209B
:100870002FBE4FF47A30FFF7A5FD4FF47A30FFF723
:1008800061FFFFF7D4FE0120AC490870AEE0FFF72E
:10089000FCFD152800D0A9E00220A8490870A5E0B9
:1008A000FFF7C5FE0320A54908709FE0FFF7EDFDA7
:1008B000152800D09AE00420A0490870A5480068D7
:1008C00000F57A70B449086090E000BFA148006864
:1008D000B1490968401AB0F57A7F00D282E0012060
:1008E000FFF795FE9748FFF71AFE044624B999488A
:1008F0000068A949086075E09248AA49086008465E
:100900000068008940F2AC5188420CD10120904926
:1009100008700220A44908704020A44908700B20E8
:100920009B4908703BE09F480068008942F2BC0187
:1009300088420DD101208649087002209A4908702A
:1009400040209A4908701B209149087027E04CE02C
:1009500094480068008942F2635188420CD101201A
:100960007B49087002209049087040208F49087028
:100970001B208749087012E08A480068008940F20D
:100980005E4188420BD101207149087002208649DE
:1009900008704020854908700B207D4908700120AF
:1009A000FFF700FE64201AF07FFE0120FFF7D4FD60
:1009B0000120FFF7E7FDFFF74FFE7A480068008946
:1009C00042F26351884202D1C02079490870FFF792
:1009D00074FD09215E480078FFF77EFD0520574928
:1009E000087000BF00BF01E000E000BF00BF10BD05
:1009F0002DE9F04104460E460027002567E06078A7
:100A0000042814D006DC012809D0022808D00328C5
:100A100057D10BE0052816D0152852D150E051E0EF
:100A20002278214663481FF026FF4BE04AE02278F7
:100A3000214661481FF01FFF5F48027981785FA05F
:100A400021F03CF93EE02278214666481FF013FF72
:100A500064488388C278817863A021F02FF96148C7
:100A6000C07800F00300032829D15E48807800F0A8
:100A7000800058B105F0010008BB5A48807800F0AA
:100A80000F003349087045F0010518E005F0020039
:100A9000A8B95448807800F00F00434908705148C5
:100AA0000079424908700846007818B10846007875
:100AB000402802DD40203D49087045F0020501E074
:100AC00000E000BF00BF2078074420780444B7420C
:100AD00095DBBDE8F08110B504461948007808B9E7
:100AE000002010BD002016490870294802782749C7
:100AF00020461FF0C0FE0120F3E730B504468C42CB
:100B000007DD944205DD9C4203DD0120444D287041
:100B100095E0A14207DD914205DD994203DD022007
:100B20003F4D28708BE0A2427CDD8A427ADD9A42FA
:100B300078DD03203A4D287081E073E00500002045
:100B400006000020A008002004090020440900201D
:100B500002000020580000205B4552524F525D4376
:100B60006C656172207374616C6C20737461746560
:100B700021205265736574204348333735204D6F0B
:100B800064756C653A25646D730D0A00A00700203A
:100B9000070000200C0000201000002008000020AA
:100BA0001400002020000020000000200100002090
:100BB00003000020440A00204D0A0020496E74659D
:100BC00072666163655F494E4445583A25642C68F6
:100BD00061766520256420656E64706F696E743A75
:100BE0000D0A000028000020456E64706F696E7465
:100BF0005F414444523A3078253032782C41747445
:100C0000726962757465733A25642C4D61785F5022
:100C100061636B65743A25640D0A0D0A00000000DB
:100C200015000020A34207DD8B4205DD934203DD62
:100C30000420FE4D287002E00520FC4D2870FB4882
:100C4000007830BD2DE9F04F89B000BF202101A808
:100C50001FF02AFEFFF7D9FD01A8FFF73CFF00B9FE
:100C6000FCE3F34890F85F0300B1F9E7F14800783E
:100C70000B2875D19DF80B0000F0100018B105206D
:100C8000ED49087010E09DF80B0000F0080018B165
:100C90000420E949087007E09DF80B0000F002000D
:100CA00010B10320E44908709DF80C0000F0010029
:100CB00048B19DF809004E214843322190FBF1F0E4
:100CC000DE49086111E09DF80C0000F0020018B147
:100CD0000020DA49086108E09DF80C0000F00800E7
:100CE00018B14FF49670D5490861D548007820B9FD
:100CF0000120D4490860D24908709DF80B0000F02B
:100D0000400018B10120D049087007E09DF80B00A1
:100D100000F0800010B10220CB4908709DF8061049
:100D2000803949B2484220F043F982469DF80510C7
:100D3000803949B2484220F03BF983469DF80810BB
:100D4000803949B2484220F033F904469DF8071033
:100D5000803949B2484220F02BF9054689E1FFE786
:100D6000B44800781B2879D1B8480068008942F25D
:100D7000BC01884272D19DF8040000F0080018B14F
:100D80000520AD49087010E09DF8040000F0010056
:100D900018B10420A849087007E09DF8040000F08D
:100DA000040010B10320A44908709DF8040000F06D
:100DB000400030B10920A6490860C8209F49086159
:100DC00011E09DF8040000F0800030B100209B4944
:100DD00008610A209E49086005E0002018B1974983
:100DE00008619B4908609648007820B90120954920
:100DF0000860934908709DF8040000F0100018B1D5
:100E000001209149087007E09DF8040000F02000DF
:100E100010B102208C4908709DF80810803949B241
:100E2000484220F0C5F882469DF80710803949B243
:100E3000484220F0BDF883469DF80A10803949B237
:100E4000484220F0B5F804469DF80910803949B2AF
:100E5000484220F0ADF805460BE1FFE77548007801
:100E60001B2871D179480068008942F26351884299
:100E70007FD19DF80F00FF2803D105206E4908702F
:100E80000EE09DF81200FF2803D104206A49087083
:100E900006E09DF81000FF2802D103206649087083
:100EA0009DF8150000F0400030B109206849086045
:100EB000C820624908610AE09DF8160000F0800031
:100EC00028B100205D4908610A20614908605C483A
:100ED000007820B901205B490860594908709DF8E5
:100EE0001300FF2803D101205749087006E09DF840
:100EF0001400FF2802D10220534908709DF8081001
:100F0000803949B2484220F053F882469DF80710D4
:100F1000803949B2484220F04BF883469DF80F00D3
:100F2000002810D19DF8100000280CD19DF8110068
:100F3000002808D19DF81200002804D19DF8040073
:100F4000012802D1434C94E013E09DF804000428EA
:100F500002D14FF086448CE09DF80400022802D1B3
:100F60004FF0864585E09DF80400082800D1394DF2
:100F70007FE09DF8070000F0800018B105202E49A1
:100F8000087010E09DF8070000F0400018B1042040
:100F90002949087007E09DF8070000F0200010B113
:100FA0000320254908709DF8080030B10920284920
:100FB0000860C8202149086112E09DF8090000F08E
:100FC000800030B100201D4908610A2020490860D6
:100FD00006E0002020B118B1184908611C490860DA
:100FE0001748007820B90120164908601449087094
:100FF0009DF8070000F0010018B1012012490870A7
:1010000007E09DF8070000F0020010B102200E4931
:1010100008709DF80D1048B21FF0CAFF82469DF877
:101020000B1049B248421FF0C3FF15E01500002025
:10103000089D00200700002041040020449C00205F
:1010400016000020000400201C00002020000020CA
:10105000040400200000FEC283469DF8111048B22F
:101060001FF0A6FF04469DF80F1048B21FF0A0FF26
:101070000546FB480078FB49086000BF504620F059
:1010800002FE06464FF0844120F064F820D2584614
:1010900020F0F9FD06464FF0844120F05BF817D2AE
:1010A000204620F0F0FD06464FF0844120F052F833
:1010B0000ED2284620F0E7FD06464FF0844120F08E
:1010C00049F805D20020E8490860E8490860BAE21A
:1010D000284620F0D8FD00901FF0AFFFC6B2204692
:1010E00020F0D1FD00901FF0A8FFC7B2584620F0B5
:1010F000CAFD00901FF0A1FF00F0FF08504620F04D
:10110000C2FD00901FF099FF00F0FF0933463A46F8
:1011100041464846FFF7F1FC06287DD2DFE800F0A3
:101120007C03A3FEFDFCD048006828B9D0490868BC
:10113000002120F00FF811D0CB480068012804D11D
:101140000021504620F010F808D3C7480068022854
:101150000FD1002150461FF0FDFF0AD80021504654
:1011600020F002F801D2012000E00220BE49086010
:1011700002E00020BC490860BA480068022834D167
:10118000504620F080FD07464FF084411FF012FDCD
:101190000646B648016830461FF0E6FF09D25046C1
:1011A00020F071FD06464FF084411FF003FDAF496A
:1011B00008600021AD4800681FF0D6FF0ED84FF040
:1011C0007E51AA4800681FF0C5FF07D20021A94838
:1011D000C0F8DC10A849C0F8EC1043E0A649A548C7
:1011E000C0F8DC10C0F8EC103CE09E480068012814
:1011F00038D1504620F047FD07464FF084411FF09C
:10120000D9FC06469948016830461FF0ADFF0BD265
:10121000504620F038FD00E012E206464FF08441CF
:101220001FF0C8FC914908600021904800681FF039
:101230009BFF0FD84FF07E518C4800681FF08AFF4B
:1012400008D200208B49C1F8BC008C498948C0F8FD
:10125000CC1007E08A488749C1F8BC008749854817
:10126000C0F8CC10EDE18048006828B980490868D2
:1012700000211FF06FFF11D07B480068032804D1C4
:10128000002158461FF070FF08D3774800680428F3
:101290000FD1002158461FF05DFF0AD800215846A3
:1012A0001FF062FF01D2032000E004206E490860B5
:1012B00002E000206C4908606A480068022838D1C2
:1012C000584620F0E0FC07464FF084411FF072FCC6
:1012D00006466648016830461FF046FF09D2584668
:1012E00020F0D1FC06464FF084411FF063FC5F49BB
:1012F000086000215D4800681FF036FF12D84FF0EB
:101300007E515A4800681FF025FF0BD20021594832
:10131000C0F8E010584902E08EE1F4E043E0C0F884
:10132000F0103FE054495348C0F8E010C0F8F01006
:1013300038E04C480068012834D1584620F0A3FC1E
:1013400007464FF084411FF035FC064647480168C8
:1013500030461FF009FF09D2584620F094FC06469B
:101360004FF084411FF026FC4049086000213F48AF
:1013700000681FF0F9FE0ED84FF07E513B48006820
:101380001FF0E8FE07D200213A48C0F8C0103B49E0
:10139000C0F8D01006E03A493648C0F8C0103749C6
:1013A000C0F8D0104DE13048006828B930490868CD
:1013B00000211FF0CFFE11D02B480068052804D172
:1013C000002120461FF0D0FE08D3274800680628D9
:1013D0000FD1002120461FF0BDFE0AD80021204673
:1013E0001FF0C2FE01D2052000E006201E49086061
:1013F00002E000201C4908601A480068022848D111
:10140000204620F040FC07464FF084411FF0D2FBFD
:1014100006461648016830461FF0A6FE09D220464F
:1014200020F031FC06464FF084411FF0C3FB0F490A
:10143000086000210D4800681FF096FE22D84FF08A
:101440007E510A4800681FF085FE1BD20021094822
:10145000C0F8E4100849C0F8F41053E0F5E00000CB
:101460001C000020000400200404002018000020BC
:10147000D8A20020089D00200000614300004843DE
:101480000000C84273497448C0F8E410C0F8F41072
:1014900038E072480068012834D1204620F0F3FB80
:1014A00007464FF084411FF085FB06466C480168F3
:1014B00030461FF059FE09D2204620F0E4FB0646D4
:1014C0004FF084411FF076FB6549086000216448B5
:1014D00000681FF049FE0ED84FF07E51604800684A
:1014E0001FF038FE07D200215B48C0F8C4105D49E8
:1014F000C0F8D41006E05C495748C0F8C4105949F8
:10150000C0F8D4109DE05948006828B958490868C7
:1015100000211FF01FFE11D054480068072804D195
:10152000002128461FF020FE08D3504800680828F4
:101530000FD1002128461FF00DFE0AD800212846B1
:101540001FF012FE01D2072000E008204749086082
:1015500002E000204549086040480068022831D177
:10156000284620F090FB07464FF084411FF022FBF5
:1015700006463B48016830461FF0F6FD09D2284672
:1015800020F081FB06464FF084411FF013FB3449E5
:1015900008600021324800681FF0E6FD0BD84FF0CC
:1015A0007E512F4800681FF0D5FD04D229492A48F2
:1015B000C0F8F8103FE027492748C0F8E810C0F805
:1015C000F81038E025480068012834D1284620F07A
:1015D0005AFB07464FF084411FF0ECFA06462048BC
:1015E000016830461FF0C0FD09D2284620F04BFBB1
:1015F00006464FF084411FF0DDFA194908600021CA
:10160000174800681FF0B0FD0ED84FF07E51144807
:1016100000681FF09FFD07D200210F48C0F8C810D6
:101620001049C0F8D81006E00F490B48C0F8C810A0
:101630000C49C0F8D81004E000200C49086000E014
:1016400000BF00BF00BF00BF00BF00BF09B0BDE8C2
:10165000F08F000000006143089D0020000400207E
:1016600018000020000048430000C8420404002085
:10167000D8A200201048804710480047FEE71EF01F
:10168000040F0CBFEFF30880EFF309804FF0005117
:10169000884282F2EB860A4909684FF09202914231
:1016A00042F0E48602F0A6BFFEE7FEE7FEE7FEE7B3
:1016B000FEE7FEE7FEE7FEE71B3A000831010008FF
:1016C00029ED00E031490143314A1160704770B59E
:1016D000002100230F22C47804B32D4C246804F4A5
:1016E000E064C4F5E064210AC1F10403CA4044780F
:1016F00004FA03F18478144021430901254C06784B
:10170000A155047804F01F050124AC4005786D1143
:10171000AD0005F1E025C5F8004109E0047804F0CA
:101720001F050124AC401C4D0678761145F8264073
:1017300070BD1A4A0A400243154B1B1F1A607047BE
:1017400039B1134A121D12680243114B1B1D1A6056
:1017500006E00F4A121D126882430D4B1B1D1A60D2
:101760007047042808D14FF0E021096941F00401D5
:101770004FF0E022116107E04FF0E021096921F00C
:1017800004014FF0E0221161704700000000FA05EB
:101790000CED00E000E400E080E100E080FFFF1FCE
:1017A00010B50446FA48844208D10121401502F0E0
:1017B0007BF80021601502F077F817E0F5488442C5
:1017C00008D10121001502F06FF80021201502F068
:1017D0006BF80BE0F048844208D10121C80302F005
:1017E00063F800214FF4004002F05EF810BD30B500
:1017F0000246002000235068E84C20400D790C6818
:1018000044EA0524204350609068E54C2040D1E92B
:1018100002542C434D7944EA450420439060D06A39
:1018200020F470000C7C641EE4B2234340EA0350B1
:10183000D06230BD00210160017141718160C160E1
:1018400001210174704721B1826842F00102826077
:1018500003E0826822F001028260704721B1826851
:1018600042F48072826003E0826822F480728260B7
:10187000704710B50023CBB21AB144681C434460D2
:1018800002E044689C43446010BD816841F0080157
:1018900081607047014600208A6802F008020AB1A0
:1018A000012000E000207047816841F00401816060
:1018B0007047014600208A6802F004020AB1012044
:1018C00000E00020704721B1826842F4A0028260EB
:1018D00003E0826822F4A002826070470146002083
:1018E0008A6802F480020AB1012000E000207047FB
:1018F00010B50A4600210023416821F46041531EBF
:1019000041EA4331416010BD21B1426842F40062B6
:10191000426003E0426822F4006242607047F0B522
:1019200004460D4600200021092D11DDE068A5F1D7
:101930000A0606EB4607072606FA07F18843A5F1D3
:101940000A0606EB460603FA06F10843E0600CE0DF
:10195000206905EB4507072606FA07F1884305EBE2
:10196000450603FA06F108432061072A0FDA606B87
:10197000561E06EB86071F2606FA07F18843561EF9
:1019800006EB860605FA06F10843606322E00D2A9D
:101990000FDA206BD61F06EB86071F2606FA07F123
:1019A0008843D61F06EB860605FA06F10843206336
:1019B00010E0E06AA2F10D0606EB86071F2606FA84
:1019C00007F18843A2F10D0606EB860605FA06F13B
:1019D0000843E062F0BD21B1826842F48012826067
:1019E00003E0826822F48012826070470146C86C6E
:1019F00080B2704766484C300068704721B1426839
:101A000042F48062426003E0426822F480624260F5
:101A1000704721B1426842F48052426003E042685C
:101A200022F48052426070470A460021816821F406
:101A3000E04111438160704721B1826842F4004265
:101A4000826003E0826822F400428260704721B124
:101A5000826842F40212826003E0826822F4021279
:101A600082607047014600208A6802F400120AB1C1
:101A7000012000E000207047F0B504461546002024
:101A800000220026092911DDE068A1F10A0707EB11
:101A9000470C072707FA0CF29043A1F10A0707EB5E
:101AA000470703FA07F21043E0600CE0206901EBFE
:101AB000410C072707FA0CF2904301EB410703FAA8
:101AC00007F210432061A06BC0F30156EF1C06F132
:101AD000010CA7EB0C0707EB870C1F2707FA0CF28A
:101AE0009043EF1C06F1010CA7EB0C0707EB8707EF
:101AF00001FA07F21043A063F0BD10B50A460021B9
:101B00000023816B21F44011531E41EA035181638C
:101B100010BD08B5002300930090009B0B44009378
:101B2000009B1A6008BD08B5024600200090009294
:101B300001F12800009B184400900098006880B2D2
:101B400008BD0A4600214168164B19401143416007
:101B500070474162826270470A460021416821F065
:101B60001F0111434160704740B1094908310968BC
:101B700041F40001064A0832116007E004490831C7
:101B8000096821F40001024A083211607047000020
:101B90000024014000280140003C0140FFFEF0FF0E
:101BA000FDF7F1FFFFFD3FFF0246002013680B40E9
:101BB0000BB1012000E000207047CA43026070476B
:101BC00070B502460020002300240B125568CEB2E7
:101BD00005EA060415681D4015B10CB1012000E0AE
:101BE000002070BD00220A12D3430360704700003A
:101BF000002044490860091D0860091D0860091D8E
:101C0000086041483F4914310860704700213D4950
:101C10008279002A3AD00A46126803689A430B4632
:101C20001A600A1D126803689A430B1D1A60027934
:101C300011440A6803681A430A60324A083212687B
:101C400003689A432F4B08331A601A1D1268036801
:101C50009A432C4B0C331A604279102A0ED11A1F6A
:101C6000126803681A43274B08331A601A1D12685A
:101C700003681A43234B0C331A600DE02149427963
:101C800011440A6803681A430A6005E002791144A6
:101C90000A6803689A430A60704700210160017175
:101CA0000C2141710021817170471649103109687A
:101CB0000143144A10321160704701460020114A56
:101CC000143212680A400AB1012000E00020704777
:101CD0000C49143108607047014600200022094B6E
:101CE0001B6803EA0102074B14331B680B4013B156
:101CF0000AB1012000E00020704702491431086059
:101D00007047000000040140FFFF0F0010B50446BB
:101D1000CC48844208D10121042001F0C5FD0021F6
:101D2000042001F0C1FD46E0C748844208D10121EA
:101D3000082001F0B9FD0021082001F0B5FD3AE0CE
:101D4000C248844208D10121102001F0ADFD0021DC
:101D5000102001F0A9FD2EE0BD48844208D10121E8
:101D6000202001F0A1FD0021202001F09DFD22E0B6
:101D7000B848844208D10121402001F095FD00219E
:101D8000402001F091FD16E0B348844208D10121C2
:101D9000802001F089FD0021802001F085FD0AE00E
:101DA000AE48844207D10121801501F07DFD00215C
:101DB000A01501F079FD10BD10B50121084601F014
:101DC00073FD0021012001F06FFD10BD2DE9F041F0
:101DD000024600250026002000230024002791F859
:101DE00003C00CF00F0591F803C00CF0100CBCF10F
:101DF000000F03D091F802C04CEA050591F800C02D
:101E0000BCF1000F31D0146800202BE04FF0010C22
:101E10000CFA00F3B1F800C00CEA03069E4220D190
:101E200083004FF00F0C0CFA03F7BC4305FA03FCD8
:101E30004CEA040491F803C0BCF1280F06D14FF01E
:101E4000010C0CFA00FCC2F814C00AE091F803C0BF
:101E5000BCF1480F05D14FF0010C0CFA00FCC2F8A0
:101E600010C0401C0828D1D31460B1F800C0BCF1E8
:101E7000FF0F34DD546800202EE000F1080C4FF015
:101E8000010808FA0CF3B1F800C00CEA03069E4200
:101E900021D183004FF00F0C0CFA03F7BC4305FA75
:101EA00003FC4CEA040491F803C0BCF1280F05D1EF
:101EB00000F1080C08FA0CF8C2F8148091F803C07D
:101EC000BCF1480F07D100F1080C4FF0010808FAE7
:101ED0000CF8C2F81080401C0828CED35460BDE82E
:101EE000F0814FF6FF710180022181700421C170E1
:101EF00070470246002093680B400BB1012000E0C0
:101F0000002070470146886880B270470246002072
:101F1000D3680B400BB1012000E000207047014660
:101F2000C86880B2704701617047416170470AB16B
:101F3000016100E041617047C16070474FF4803239
:101F40000A438261816182618269826970470246C7
:101F50000020434B18684FF68073184040EA021087
:101F600008433F4B186070473E49C8617047F0B561
:101F70000A46002300240021002500F00046B6F1A7
:101F8000004F02D1364EF16901E0354E7168C0F361
:101F9000034583B200F44016B6F5401F08D121F086
:101FA00070612F4E766826F070662D4F7E6012E0CD
:101FB00000F48016B6F5801F06D1032606FA05F454
:101FC000A14341F0706106E0460D360103FA06F6C2
:101FD000B14341F0706122B1460D360103FA06F6B5
:101FE000314300F00046B6F1004F02D11C4EF161C2
:101FF00001E01B4E7160F0BD30B500228B071C0F55
:102000000F2303FA04F2164B08338C1053F82430D4
:102010009343134C08348D1044F8253023468C101C
:1020200053F824308C07240F00FA04F423430C4C9B
:1020300008348D1044F8253030BD0A49DC31086081
:102040007047000000080140000C014000100140F2
:102050000014014000180140001C01400020014014
:10206000000001400000204210B50446BE488442F2
:1020700008D10121801401F017FC0021A01401F007
:1020800013FC16E0B948844208D10121001401F084
:1020900018FC0021201401F014FC0AE0B44884422A
:1020A00007D10121C01301F00CFC0021E01301F065
:1020B00008FC10BD10B50022028802F441520B88C2
:1020C0004C8823438C882343CC8823430C892343A7
:1020D0004C8923438C892343CC8923431A430280B0
:1020E000838B4FF2FF74234083830B8A038210BDDE
:1020F0002DE9F04F85B005460C464FF00009022748
:102100004FF000084FF0010B0026B246A88B4FF2AB
:1021100040010840A88302202884B5F81C90A068DC
:10212000022801D100BF38E0A08810B94FF0010BA0
:1021300001E04FF0020B8D48854200D100E000BF66
:10214000684601F02AFBDDF800A0E088B0F5007FCA
:102150000AD14FEA1A2000EB80004000A168B0FBD2
:10216000F1F0401D86B20BE04FEA4B10BAFBF0F0E5
:1021700000EB80004000A168B0FBF1F0401D86B28A
:102180000A20B6FBF0F606F00108A6EB0800C0F343
:102190004F074FF6FF7000EA0828022F01DBFF2FE0
:1021A00002DD02274FF00008E08840EA08003843CB
:1021B0002884A088A18908436188084321880843AE
:1021C00040F4006040EA0909A5F81C9005B0BDE89C
:1021D000F08F0021018041808180C1800181418197
:1021E0008181C181072101827047002101804180E6
:1021F0008180C1800221816000218181704721B1ED
:10220000028842F04002028004E002884FF6BF7369
:102210001A400280704721B1828B42F4806282832F
:1022200004E0828B4FF6FF331A408283704730B54B
:10223000002400230C110125A540ABB21AB18588FA
:102240001D43858002E085889D43858030BD1AB19D
:1022500083880B43838002E083888B4383807047AD
:10226000818170470146888970474FF6FF6291422D
:1022700004D0028842F48072028004E002884FF6A3
:10228000FF631A400280704721B1828842F0040245
:10229000828004E082884FF6FB731A408280704788
:1022A00002884FF2FF731A40028002880A430280BC
:1022B0007047018841F480510180704721B1028844
:1022C00042F40052028004E002884DF6FF731A4087
:1022D0000280704702460020012901D0108B00E0E7
:1022E000908A70470146088A7047B1F5804F04D143
:1022F000028842F48042028004E002884BF6FF73B9
:102300001A40028070470246002013890B400BB12F
:10231000012000E000207047CA4302817047F0B5F9
:102320000246002000240023002501F00F070126AB
:10233000BE40B4B20B1101269E40B3B2968806EAA5
:1023400003051689264016B10DB1012000E00020DA
:10235000F0BD10B5002201F00F040123A3409AB292
:10236000D343038110BD000000300140003800401D
:10237000003C004010B50446FE48844208D10121CB
:10238000C01401F091FA0021E01401F08DFAC4E0CC
:10239000B4F1804F08D10121084601F092FA0021E2
:1023A000012001F08EFAB8E0F348844208D10121FF
:1023B000022001F086FA0021022001F082FAACE04E
:1023C000EE48844208D10121042001F07AFA00216C
:1023D000042001F076FAA0E0E948844208D1012106
:1023E000082001F06EFA0021082001F06AFA94E05A
:1023F000E448844208D10121102001F062FA002152
:10240000102001F05EFA88E0DF48844208D1012103
:10241000202001F056FA0021202001F052FA7CE041
:10242000DA48844208D10121401401F03DFA00212C
:10243000601401F039FA70E0D548844209D10121D5
:10244000C80401F031FA00214FF4002001F02CFA09
:1024500063E0D048844209D10121080501F024FA43
:1024600000214FF4801001F01FFA56E0CA48844260
:1024700009D10121480501F017FA00214FF400109D
:1024800001F012FA49E0C548844208D101214020F8
:1024900001F017FA0021402001F013FA3DE0C04896
:1024A000844208D10121802001F00BFA0021802014
:1024B00001F007FA31E0BB48844208D101218015C0
:1024C00001F0FFF90021A01501F0FBF925E0B64865
:1024D000844209D10121080401F0E6F900214FF4FA
:1024E000803001F0E1F918E0B048844209D10121BF
:1024F000480401F0D9F900214FF4003001F0D4F97B
:102500000BE0AB48844208D10121880401F0CCF9EA
:1025100000214FF4802001F0C7F910BD002202888D
:10252000944B98420ED0994B98420BD0B0F1804F0B
:1025300008D0914B984205D0904B984202D0904BD6
:10254000984204D14FF68F731A404B881A438D4B33
:10255000984207D08C4B984204D04FF6FF431A4064
:10256000CB881A4302808B8883850B880385814B37
:1025700098420BD0854B984208D08B4B984205D09F
:102580008A4B984202D08A4B984201D10B7A03863B
:1025900001238382704770B5002400220023058C3C
:1025A0004FF6FE7635400584028C8388048B4FF607
:1025B0008F752C40B51E2C400D882C43751E2A406B
:1025C0000D892A434D882A436A4DA8420BD06F4D8E
:1025D000A84208D0744DA84205D0744DA84202D03C
:1025E000734DA84213D14FF6F7752A404D892A43FF
:1025F0004FF6FB752A408D882A434FF6FF652B4026
:102600004FF6FF552B408D892B43CD892B4383807B
:102610000483CD888586028470BD70B500240022B5
:102620000023058C4FF6EF7635400584028C8388B5
:10263000048B48F6FF752C404FF6FF452C400D8863
:102640004FF6FF7606EA05252C434FF6DF752A4044
:102650000D8906EA05152A434D8806EA05152A4321
:10266000444DA84202D0494DA8421DD14FF67F7576
:102670002A404D894FF6FF7606EA05152A434FF6A4
:10268000BF752A408D8806EA05152A434FF6FF35A7
:102690002B404FF2FF752B408D8906EA85052B43B1
:1026A000CD8906EA85052B4383800483CD88058781
:1026B000028470BD70B5002400220023058C4FF603
:1026C000FF6635400584028C8388848B4FF68F75B6
:1026D0002C404FF6FC752C400D882C434FF6FF55CF
:1026E0002A400D894FF6FF7606EA05252A434D88D4
:1026F00006EA05252A431F4DA84202D0234DA842D1
:102700001DD14FF2FF752A404D894FF6FF7606EA3C
:1027100005252A434FF6FF352A408D8806EA052510
:102720002A434EF6FF752B404DF6FF752B408D89E1
:1027300006EA05152B43CD8906EA05152B43838050
:102740008483CD888587028470BD70B50022002304
:102750000024058C4EF6FF7635400584038C848872
:10276000828B48F6FF752A404FF6FF452A400D88B8
:1027700020E00000002C0140000400400008004060
:10278000000C0040001000400014004000340140E4
:10279000004C01400050014000540140001800402E
:1027A000001C004000200040004001400044014067
:1027B000004801404FF6FF7606EA05252A434DF60C
:1027C000FF752B400D8906EA05352B434D8806EA37
:1027D00005352B43FA4DA84202D0FA4DA84208D144
:1027E0004BF6FF752C408D894FF6FF7606EA85156E
:1027F0002C4384808283CD88A0F84050038470BD30
:10280000828B4FF2FF331A408283828B4FF6FF7325
:1028100003EA01231A4382837047F0B50C4615463C
:10282000002200210026078C4EF6FF7C07EA0C07E9
:102830000784828B018C4FF6FF7707EA043640F657
:10284000FF473A404FF6FF7707EA05273A434FF62E
:10285000FF7707EA03373A43D94FB8420ED0D94F32
:10286000B8420BD0B0F1804F08D0D74FB84205D056
:10287000D64FB84202D0D64FB84206D14DF6FF77B8
:10288000394046F48057394305E047F6FF57394051
:1028900044F48057394382830184F0BD828B4FF624
:1028A000F3731A408283828B0A4382837047F0B5A8
:1028B0000C461546002200210026078C4FF6FF6CBF
:1028C00007EA0C070784828B018C4FF6FF7707EA33
:1028D00004264FF60C773A404FF6FF7707EA0317C6
:1028E0002F433A43B64FB8420ED0B64FB8420BD042
:1028F000B0F1804F08D0B44FB84205D0B34FB842C2
:1029000002D0B34FB84206D14FF6FF57394046F4D4
:102910008077394305E04FF2FF57394044F4807720
:10292000394382830184F0BD028B4FF2FF331A409A
:102930000283028B4FF6FF7303EA01231A430283DB
:102940007047F0B50C461546002200210026078C82
:102950004FF6EF7C07EA0C070784028B018C4FF6D9
:10296000FF7707EA041640F6FF473A404FF6FF7735
:1029700007EA03373A434FF6FF7707EA05273A435A
:102980008F4FB8420ED08F4FB8420BD0B0F1804F6E
:1029900008D08D4FB84205D08C4FB84202D08C4F32
:1029A000B84206D14FF6DF77394046F01007394379
:1029B00005E04FF65F77394044F010073943028352
:1029C0000184F0BD028B4FF6F3731A400283028B31
:1029D0000A4302837047F0B50C46154600220021D9
:1029E000068C4FF6FE773E400684028B018C4FF634
:1029F0000C7632407E1C06EA03162E433243704E9C
:102A0000B0420ED06F4EB0420BD0B0F1804F08D024
:102A10006D4EB04205D06D4EB04202D06C4EB04209
:102A200006D14FF6FD76314044F00106314305E012
:102A30004FF6F576314044F00106314302830184BC
:102A4000F0BD70B505460C465D4885420ED05D4828
:102A500085420BD0B5F1804F08D05B48854205D048
:102A60005A48854202D05A48854200D100E000BF52
:102A7000208850B92389A28861882846FFF7ABFFD8
:102A8000E1882846FFF79EFF25E0208804280AD128
:102A90002389A28861882846FFF753FFE1882846EA
:102AA000FFF742FF17E0208808280AD12389A2886F
:102AB00061882846FFF7FBFEE1882846FFF7EEFE17
:102AC00009E02389A28861882846FFF7A6FEE188ED
:102AD0002846FFF795FE70BD2DE9F04105460C46EE
:102AE00000260127608808B9022600E00026A08899
:102AF000012801D1022700E001272088A0B92389FD
:102B0000A28861882846FFF766FFE1882846FFF71C
:102B100059FF23893A4631462846FFF712FFE188DC
:102B20002846FFF701FF13E02389A2886188284621
:102B3000FFF707FFE1882846FFF7F6FE23893A46AC
:102B400031462846FFF747FFE1882846FFF73AFF5E
:102B5000BDE8F0810A884B881A438B881A43CB88DA
:102B60001A430B891A434B891A438B891A43A0F8DD
:102B7000442070474FF6FF71818000210180C180A1
:102B80004180017270470021018041808180C180B5
:102B9000018141818181C181704700210180418093
:102BA000012181800021C1800181704700210180C5
:102BB00041808180C1800181418181817047000015
:102BC000002C014000340140000400400008004097
:102BD000000C004021B1028842F00102028004E0B2
:102BE00002884FF6FE731A400280704731B1B0F888
:102BF000442042F40042A0F8442005E0B0F844200C
:102C0000C2F30E02A0F8442070471AB183890B4327
:102C1000838102E083898B4383817047818270477F
:102C200041EA0203A0F8483070471AB183890B4388
:102C3000838102E083898B438381704701894FF64A
:102C4000F8721140018170470A46002101894FF650
:102C50008F73194011430181704730B504460D460A
:102C600029462046FFF7F0FF208940F00700208129
:102C700030BD2DE9F04104460D4616461F46602D35
:102C800006D13B46012231462046FFF75AFE05E0B9
:102C90003B46012231462046FFF79DFE294620464D
:102CA000FFF7D2FF208940F007002081BDE8F081C6
:102CB00030B50C4600210189C9B24FF6FF7505EA0F
:102CC0000325154325432943018130BD2DE9F041FA
:102CD00005460E4617469846002443463A46314676
:102CE0002846FFF7E5FF2C894FF6F870044044F0C2
:102CF00007044FF68F70044044F070042C81BDE847
:102D0000F081F0B504460D4616461F463B46324656
:102D100029462046FFF7CCFF208940F480402081DF
:102D2000F0BD0185828270470A46002101884FF676
:102D30008F731940114301807047F0B50C4615465A
:102D40001E460021002200230189028B038C4FF6CE
:102D5000F877394021434FF6FC473A4040F20117DB
:102D60003A434FF6DD773B404FF6FF7707EA061709
:102D70002F433B43018102830384F0BD0A460021B7
:102D8000018B4FF68F7319401143018370470A4638
:102D90000021018B48F6FF7319404FF6FF7303EAD9
:102DA00002231943018370470A460021818B4FF6A5
:102DB0008F7319401143818370470A460021818B2C
:102DC00048F6FF7319404FF6FF7303EA02231943D5
:102DD0008183704721B1028842F08002028004E0C2
:102DE00002884FF67F731A400280704721B18288B3
:102DF00042F00402828004E082884FF6FB731A409E
:102E00008280704721B1828842F00802828004E00B
:102E100082884FF6F7731A408280704721B182880A
:102E200042F00102828004E082884FF6FE731A406D
:102E3000828070470A460021018B4FF6F7731940D4
:102E40001143018370470A460021018B4FF2FF7343
:102E500019404FF6FF7303EA0223194301837047B9
:102E60000A460021818B4FF6F77319401143818385
:102E700070470A460021818B4FF2FF7319404FF6CD
:102E8000FF7303EA02231943818370470A46002136
:102E9000018B4FF6FB7319401143018370470A46BB
:102EA0000021018B4FF6FF3319404FF6FF7303EA01
:102EB00002231943018370470A460021818B4FF694
:102EC000FB7319401143818370470A460021818BAF
:102ED0004FF6FF3319404FF6FF7303EA02231943FD
:102EE000818370470A460021018B4FF67F7319409A
:102EF0001143018370470A460021018BC1F30E0183
:102F00004FF6FF7303EA02231943018370470A4611
:102F10000021818B4FF67F731940114381837047E5
:102F20000A460021818BC1F30E014FF6FF7303EABD
:102F300002231943818370470A460021018C4FF612
:102F4000FD7319401143018470470A460021018C2A
:102F50004FF6F77319401143018470470A46002168
:102F6000018C4FF6DF7319404FF6FF7303EA02132B
:102F70001943018470470A460021018C4FF67F7384
:102F800019404FF6FF7303EA021319430184704797
:102F90000A460021018C4FF6FF5319404FF6FF738C
:102FA00003EA02231943018470470A460021018C79
:102FB0004FF2FF7319404FF6FF7303EA02231943E0
:102FC000018470470A460021018C4DF6FF731940B9
:102FD0004FF6FF7303EA023319430184704730B59B
:102FE000002301248C40A3B2048C9C430484048CF1
:102FF00002FA01F5ADB22C43048430BD30B5002394
:1030000004248C40A3B2048C9C430484048C02FAF4
:1030100001F5ADB22C43048430BD70B503460020E9
:1030200000241846183001258D40ACB21D8CA543F4
:103030001D8409B1082909D100EB6100056825F05C
:10304000700505600568154305600EE00D1FC5F3AA
:103050004E052844056825F4E045056005684FF6EF
:10306000FF7606EA02263543056070BD21B102886D
:1030700042F00202028004E002884FF6FD731A401B
:103080000280704721B1028842F00402028004E00D
:1030900002884FF6FB731A400280704721B1828884
:1030A00042F08002828004E082884FF67F731A40EB
:1030B0008280704702884FF6F7731A4002800288B8
:1030C0000A430280704782884FF68F731A408280CD
:1030D00082880A438280704702894FF6F8731A404B
:1030E000028102890A430281704702894FF67F7389
:1030F0001A40028102890A43028170478184704725
:103100008185704781867047018770478187704746
:10311000A0F84010704702884FF6FF431A40028023
:1031200002880A43028070470146888E7047014634
:10313000088F70470146888F70470146B1F84000FC
:1031400070470146888C70470146088D70470246DB
:103150000020138A0B400BB1012000E000207047D3
:10316000CA430282704730B5024600200023002483
:10317000158A05EA0103958905EA010413B10CB12A
:10318000012000E0002030BDCA43028270470000E9
:1031900010B50446FB48844209D10121880300F0A0
:1031A00083FB00214FF4804000F07EFB32E0F648C4
:1031B000844209D10121480400F083FB00214FF42F
:1031C000003000F07EFB25E0F048844209D1012167
:1031D000880400F076FB00214FF4802000F071FBA2
:1031E00018E0EB48844209D10121C80400F069FBD2
:1031F00000214FF4002000F064FB0BE0E54884421E
:1032000008D10121080500F05CFB00214FF480107B
:1032100000F057FB10BD2DE9F04786B005460E467D
:103220000024A24600BFA1460027B08900B100BF1C
:103230002F462C8A4CF6FF700440F08804432C8201
:10324000AC894EF6F3100440B08831890843718987
:1032500008430443AC81AC8A4FF6FF400440B08978
:103260000443AC8201A800F098FAC648874202D114
:10327000DDF810A001E0DDF80CA0A88900F4004002
:1032800040B10AEBCA0000EB0A1031684900B0FBFC
:10329000F1F807E00AEBCA0000EB0A103168890078
:1032A000B0FBF1F86420B8FBF0F0040120096421C0
:1032B00001FB1089A88900F4004040B1322000EBE6
:1032C000C900B0FBF1F000F00700044308E0322031
:1032D00000EB09106421B0FBF1F000F00F00044393
:1032E0002C8106B0BDE8F0874FF416510160002133
:1032F0008180C18001810C21418100218181704741
:1033000010B502460020108A4FF2FF0318400B88C8
:103310004C8823438C882343CC8823431843108252
:1033200010BD0021018041808180C180704721B1A2
:10333000828942F40052828104E082894DF6FF7353
:103340001A4082817047F0B503460024002600250C
:10335000002040F66A17B94200D100BF1846C1F3F9
:10336000421401F01F06012707FA06F5012C01D1CE
:103370000C3004E0022C01D1103000E014301AB1FE
:1033800007682F43076002E00768AF430760F0BD9E
:103390001AB1838A0B43838202E0838A8B43838240
:1033A0007047028A4FF6F0731A400282028A0A437B
:1033B0000282704782894FF2FF731A4082818289AC
:1033C0000A438281704721B1828942F002028281E0
:1033D00004E082894FF6FD731A4082817047028AA9
:1033E0004FF6DF731A400282028A0A430282704754
:1033F00021B1028A42F48042028204E0028A4BF642
:10340000FF731A4002827047C1F30802828070473E
:1034100001468888C0F308007047818941F00101A6
:1034200081817047028BD2B20283028B42EA012271
:1034300002837047028B02F47F420283028B0A43AD
:103440000283704721B1828A42F02002828204E026
:10345000828A4FF6DF731A408282704721B1828AD6
:1034600042F01002828204E0828A4FF6EF731A4023
:103470008282704721B1828A42F00802828204E08F
:10348000828A4FF6F7731A408282704721B182898F
:1034900042F40042828103E08289C2F30E028281FB
:1034A000704721B1828A42F40062828204E0828AFB
:1034B0004FF2FF731A4082827047828A4FF6FB7385
:1034C0001A408282828A0A438282704721B1828AAC
:1034D00042F00202828204E0828A4FF6FD731A40B3
:1034E0008282704702460020B1F5007F00D100BF04
:1034F00013880B400BB1012000E00020704701F45D
:103500000072B2F5007F00D100BFCA43028070474D
:1035100070B50246002400230025002040F66A16FC
:10352000B14200D100BFC1F3421501F01F030126D3
:1035300006FA03F3012D02D19689334006E0022DED
:1035400002D1168A334001E0968A33400C120126DC
:1035500006FA04F41688344013B10CB1012000E0DF
:10356000002070BD10B50022002340F66A14A1426D
:1035700000D100BF0A1201249440A3B2DC430480AE
:1035800010BD0000003801400044004000480040E9
:10359000004C004000500040DF48006840F001004F
:1035A000DD49086008464068DC490840DA4948605F
:1035B00008460068DA490840D749086008460068AC
:1035C00020F4802008600846406820F4FE0048602F
:1035D0004FF41F0088607047CF49096821F480319B
:1035E000CD4A11601146096821F480211160B0F5BF
:1035F000803F03D0B0F5802F0ED106E0C6490968A0
:1036000041F48031C44A116007E0C349096841F4BC
:10361000A021C14A116000E000BF00BF704710B593
:1036200001460022002300204A11012A02D1BA4C8F
:10363000236806E0022A02D1B74C236A01E0B64CA7
:10364000636A01F01F02012494401C400CB1012068
:1036500000E0002010BD38B50020009000240025B7
:1036600000BF3120FFF7DBFF05460098401C0090AB
:103670000098B0F5A06F01D0002DF2D03120FFF7F7
:10368000CEFF08B1012400E00024204638BD0146E9
:103690000020A14A106820F0F80040EAC100106044
:1036A0007047A04908607047024600209A4B58684E
:1036B00020F47C1042EA01031843974B586070478E
:1036C00098490866704701460020934A506820F0E8
:1036D00003000843506070478F48406800F00C00BA
:1036E0007047014600208C4A506820F0F0000843E3
:1036F0005060704701460020874A506820F4E0601F
:1037000008435060704701460020834A506820F407
:10371000605040EAC1005060704729B17E4A527A39
:1037200002437D4B5A7204E07B4A527A82437A4BC1
:103730005A7270477B49D8310860704701460020B3
:10374000754A506820F4404008435060704700219B
:10375000714A20321170704A82F82010012802D07C
:1037600004280AD104E001216B4A2032117005E0DF
:103770000521694A2032117000E000BF00BF704788
:103780006949086070476449096A0143624A1162E5
:103790007047654944390860704730B50021002200
:1037A000002400235C4D6D6805F00C0121B1042953
:1037B00005D0082923D105E05C4D056022E05B4D72
:1037C00005601FE0544D6D6805F47012524D6D6830
:1037D00005F48034022505EB92421CB9544D554343
:1037E00005600BE04C4D6D6805F400351DB1504D82
:1037F0005543056002E04D4D5543056002E04B4DD9
:10380000056000BF00BF444D6D6805F0F001090977
:10381000484D6B5C0568DD4045603F4D6D6805F4C3
:10382000E061090A434D6B5C4568DD4085603A4DB7
:103830006D6805F46051C90A3E4D6B5C4568DD401A
:10384000C560354D6D6805F44041890B3A4D6B5CA0
:10385000C568B5FBF3F5056130BD29B12E4A526943
:1038600002432D4B5A6104E02B4A526982432A4B92
:103870005A61704729B1284A92690243264B9A61DE
:1038800004E0254A92698243234B9A61704729B12B
:10389000214AD2690243204BDA6104E01E4AD26910
:1038A00082431D4BDA61704729B11B4AD26802433B
:1038B000194BDA6004E0184AD2688243164BDA608A
:1038C000704729B1144A12690243134B1A6104E08C
:1038D000114A12698243104B1A61704712494039EC
:1038E000086070470F49C86470470B49C87170473A
:1038F0000948406A40F080700749486270470146B5
:103900000020054A92680A400AB1012000E0002028
:103910007047014988727047001002400000FFF8AC
:10392000FFFFF6FE000042428004424200127A008D
:1039300000093D002F0000203F0000200CB50020B2
:10394000019000906C48006840F480306A4908603B
:1039500000BF6948006800F4003000900198401CE6
:103960000190009818B90198B0F5A06FF1D16248A4
:10397000006800F4003010B10120009001E0002048
:1039800000900098012843D15C48006840F0100086
:103990005A4908600846006820F00300086008469D
:1039A000006840F00200086053484068524948608F
:1039B0000846406848600846406840F480604860B7
:1039C0000846406820F47C1048600846406840F48F
:1039D000E81048600846006840F08070086000BF4A
:1039E0004548006800F000700028F9D0424840685F
:1039F00020F00300404948600846406840F002005B
:103A0000486000BF3C48406800F00C000828F9D12D
:103A10000CBD10B5FFF792FF10BD10B53648006819
:103A200040F00100344908600846406834490840C5
:103A30003149486008460068324908402E4908600C
:103A40000846006820F4802008600846406820F49A
:103A5000FE0048604FF41F008860FFF7DAFF4FF068
:103A600000602949086010BD10B500210020002227
:103A7000214B5B6803F00C0121B1042906D0082911
:103A800028D107E0214B224C236027E01F4B204C1C
:103A9000236023E0184B5B6803F47010164B5B68DF
:103AA00003F48032022303EB904022B9194B4343C5
:103AB000174C23600DE0104B5B6803F4003323B117
:103AC000144B4343124C236003E0104B4343104C10
:103AD000236003E00D4B0E4C236000BF00BF064B7C
:103AE0005B68C3F303130C4CE15C094B1B68CB40D0
:103AF000074C236010BD000000100240002002406F
:103B00000000FFF8FFFFF6FE08ED00E000127A006B
:103B10004400002000093D0048000020704700BF1D
:103B2000FEE700BFFEE700BFFEE700BFFEE770470D
:103B30007047704710B505480068401C034908608D
:103B40004FF0E02188691BF05BFC10BD580000209D
:103B50002DE9F84305460E4614460020009002E089
:103B60000098401C00900098FF28F9D300224FF4E1
:103B70008071FE48FEF7DBF92946FD48FEF770FB31
:103B800000BF0221FA48FEF7BEFB0028F9D000BFB3
:103B90000121F748FEF7B7FB0028F9D0F448FEF7FB
:103BA00061FB00F0FF080021F148FEF759FB00BF60
:103BB0000221EF48FEF7A7FB0028F9D000BF012142
:103BC000EB48FEF7A0FB0028F9D0E948FEF74AFBD6
:103BD00000F0FF08002717E00021E548FEF740FB52
:103BE00000BF0221E248FEF78EFB0028F9D000BF9B
:103BF0000121DF48FEF787FB0028F9D0DC48FEF7FB
:103C000031FB2070641C7F1CB742E5D301221102F6
:103C1000D648FEF78CF9BDE8F88310B5D54A0C21DB
:103C20002E20FFF795FFD3480078D249497800EB62
:103C30000120D049897800EB0140CE49C97800EBDA
:103C40000160CD490860CB480079CA49497900EB49
:103C50000120C849897900EB0140C649C97900EBC8
:103C60000160C6490860C348007AC249497A00EB3E
:103C70000120C049897A00EB0140BE49C97A00EBB6
:103C80000160BF49086010BD00B587B0012141F255
:103C90000400FFF7EFFDA020ADF8180003208DF819
:103CA0001A0018208DF81B0006A9B648FEF78EF8FA
:103CB0004020ADF8180004208DF81B0006A9B1487B
:103CC000FEF784F800BF4FF48070ADF800001020BC
:103CD0008DF8030003208DF8020001221102A34891
:103CE000FEF725F96946A148FEF770F800BF0020ED
:103CF000ADF804004FF48270ADF806000020ADF876
:103D00000800ADF80A00ADF80C004FF40070ADF8F3
:103D10000E002820ADF810000020ADF8120007209A
:103D2000ADF8140001A99248FEF7C4F901219048AA
:103D3000FEF765FA07B000BD2DE9F84305460E46CB
:103D400014460020009002E00098401C009000986B
:103D5000FF28F9D300224FF480718448FEF7E7F87A
:103D600029468348FEF77CFA00BF02218048FEF70F
:103D7000CAFA0028F9D000BF01217D48FEF7C3FA36
:103D80000028F9D07A48FEF76DFA00F0FF08002706
:103D900018E021787648FEF763FA00BF02217448E4
:103DA000FEF7B1FA0028F9D000BF01217048FEF7F4
:103DB000AAFA0028F9D06E48FEF754FA00F0FF087E
:103DC000641C7F1CB742E4D3012211026748FEF74E
:103DD000AEF8BDE8F88338B50546082D54D2DFE8C3
:103DE00005F0493F352B21180E04002400216648B8
:103DF000664AC2E900106648664908604DE0012441
:103E000000216548614AC2E90010644861490860C0
:103E100043E00224002062495C4A03C261485D49D4
:103E200008603AE0032400215F48584AC2E90010C4
:103E30005E485849086030E0042400215C48534A39
:103E4000C2E900105B485349086026E005240021C0
:103E500059484E4AC2E9001058484E4908601CE0D3
:103E6000062400215648494AC2E9001055484949EC
:103E7000086012E0072400215348444AC2E90010B8
:103E800052484449086008E0002400203E493F4A67
:103E900003C23F483F49086000BF00BF00200090B8
:103EA00002E00098401C00900098FF28F9D3012000
:103EB0004749087008464470024602219E20FFF7D9
:103EC0003BFF38BD2DE9F04F93B083464FF0000A19
:103ED000A2E05BF82A0010B93E4812901BE05BF8A4
:103EE0002A000190002801DB019901E00199494273
:103EF00008461DF06BF8804642460B46234903C92D
:103F00001CF0E7FF06460022334B1CF06AFF044614
:103F10001DF004F9129012981DF0BCF8044600221E
:103F20002E4B1DF0E3F802D22A4812900CE01298B2
:103F30001DF0B0F8044600224FF080431DF0BEF89B
:103F400002D84FF08040129012981DF076F805A923
:103F500041F82A0051F82A001DF033F8064612995C
:103F60001CF02BFE05464FF08F4139E00010014058
:103F700000300140560A0020780000207C0000201C
:103F8000800000200008014080841E417000002055
:103F90000AD7A33C2C040020006A18416F12833C0E
:103FA00080840E410AD7233C006A08416F12033C0B
:103FB0008084FE400AD7A33B006AF8406F12833B1F
:103FC000006AE8406F12033B006AD8406F12833AE0
:103FD00084000020004786490000F03FE0C83041DF
:103FE0001CF0EEFD04461DF028F802A921F81A0085
:103FF0005BF82A00002807DD012000FA0AF00A9980
:104000000843C0B20A9005E0012000FA0AF10A98BC
:1040100088430A900AF1010ABAF1050FFFF659AF79
:104020000598C0B28DF82C000598000A8DF82D0077
:104030000598000C8DF82E00BDF80800C0B28DF870
:104040002F00BDF8080000128DF830000698C0B2AD
:104050008DF831000698000A8DF832000698000CA1
:104060008DF83300BDF80A00C0B28DF83400BDF8F9
:104070000A0000128DF835000798C0B28DF836009E
:104080000798000A8DF837000798000C8DF8380063
:10409000BDF80C00C0B28DF83900BDF80C0000125C
:1040A0008DF83A000898C0B28DF83B000898000AD5
:1040B0008DF83C000898000C8DF83D00BDF80E000E
:1040C000C0B28DF83E00BDF80E0000128DF83F0022
:1040D0000998C0B28DF840000998000A8DF8410097
:1040E0000998000C8DF84200BDF81000C0B28DF8A0
:1040F0004300BDF8100000128DF844000A988DF8B6
:104100004500C1480088C0B28DF84600BE4800880E
:1041100000128DF847000BAA1C218020FFF70CFE2F
:1041200013B0BDE8F08F2DE9F14F86B0002106985D
:104130001DF010F801D1B54D17E0069820F00041B0
:10414000084601911CF0A6FF07463A460B46B049C7
:1041500003C91CF0BEFE82460022AE4B1CF041FE9D
:10416000CDE902011CF0DAFF054628461CF092FF5B
:1041700007460022A84B1CF0B9FF01D2A34D0BE06B
:1041800028461CF087FF074600224FF080431CF0B2
:1041900095FF01D84FF0804528461CF04EFF04469D
:1041A00020461CF00EFF824629461CF006FD804684
:1041B0004FF08F411CF004FD07461CF03EFF1FFA34
:1041C00080F9002106981CF0CFFF01D2012605E0FE
:1041D000002106981CF0BEFF00D20026E0B28DF848
:1041E0001000200A8DF81100200C8DF8120009F043
:1041F000FF008DF813004FEA29208DF814008DF888
:10420000156004AA0621A820FFF796FD07B0BDE8B7
:10421000F08F2DE9FC5F8148006881490860814A80
:1042200005213A20FFF794FC7E4800787D494978C3
:1042300000EB01207B49897800EB01407949C9787E
:1042400000EB01607549086076480079764908708E
:104250007248006872490968884203D00120734996
:10426000087002E00020714908707149D1F83C03E0
:104270001CF010FF04460D46684909686D4A126833
:10428000881A1CF0A3FE804600226B4B1CF021FE16
:1042900006460022694B1CF0AAFD824622462B46A8
:1042A0001CF0FEFCCDE900011CF038FF64490860F9
:1042B000BDE8FC9F2DE9FC5F82466248007848BB60
:1042C000614950461CF050FF02D2DFF87CA106E0A5
:1042D0005E4950461CF03EFF01D2DFF870A18AF023
:1042E000004B58461CF0D6FE0022594BCDE9000188
:1042F0001CF07DFD06460022564B1CF0EAFD0446EC
:104300000022554B1CF0CCFC80461CF0AAFE3E4916
:10431000088028E0514950461CF026FF02D2DFF801
:104320003CA106E04E4950461CF014FF01D2DFF8D4
:1043300030A18AF0004B58461CF0ACFE0646002225
:10434000434B1CF054FD80460022464B1CF0C1FD3F
:1043500004460022404B1CF0A3FCCDE900011CF0F8
:1043600080FE29490880BDE8FC9F1FB54FF400700E
:10437000ADF80C0004208DF80F0003208DF80E001E
:1043800003A93948FDF722FD01210846FFF772FA1B
:1043900009210220FDF730FE4FF40070009000204C
:1043A0008DF804000C208DF8050001208DF8060022
:1043B0006846FDF72BFC17208DF8080003208DF8C8
:1043C000090002208DF80A0001208DF80B0002A8D8
:1043D000FDF77DF91FBD10B5FFF756FCFFF7C5FFD0
:1043E00010BD10B504462046FFF7F5FC10BD10B512
:1043F0004FF40070FDF781FC06F05FFE15F04FFDF5
:10440000FFF707FF10BD000060000020004786494D
:10441000700000200000F03FE0C83041880000201C
:104420008C000020940000201004002013040020C1
:10443000089D0020900000200040754000002240B0
:10444000640000204804002000000743000007C368
:1044500000408F4000E0604000709740000016432D
:10446000000016C300C06240001001401FB50546A1
:104470000F46D5F80080D5F80490D5F808A0D5F8F7
:104480000CB02869039068690290A8690190E869F6
:1044900000905BA01DF012FC414667A01DF00EFCD1
:1044A000494669A01DF00AFC51466BA01DF006FCB0
:1044B00059466DA01DF002FC6FA003991DF0FEFB94
:1044C000394671A01DF0FAFB73A002991DF0F6FBAE
:1044D00075A001991DF0F2FB77A000991DF0EEFB8D
:1044E00079480468214679A01DF0E8FBC4F3C03187
:1044F0007AA01DF0E3FBC4F300317DA01DF0DEFBCC
:10450000C4F3C0217FA01DF0D9FBC4F3802182A099
:104510001DF0D4FBC4F3402184A01DF0CFFBC4F3F5
:10452000002187A01DF0CAFBC4F3C01189A01DF0B3
:10453000C5FBC4F300118CA01DF0C0FBC4F3C00187
:104540008EA01DF0BBFBC4F3400191A01DF0B6FB93
:1045500004F0010193A01DF0B1FBC4F3406196A0EB
:104560001DF0ACFBC4F3006198A01DF0A7FBC4F3E1
:10457000C0419BA01DF0A2FBC4F380419DA01DF093
:104580009DFBC4F34041A0A01DF098FBC4F3004183
:10459000A2A01DF093FB4C48001D06683146A4A064
:1045A0001DF08CFBF10FA6A01DF088FBC6F38071F7
:1045B000A8A01DF083FBC6F34001ABA01DF07EFB5D
:1045C000414808300168ADA01DF078FB3E4814302A
:1045D0000168AEA01DF072FB3B4810300168AFA02F
:1045E0001DF06CFB38480C300168B0A01DF066FB74
:1045F00000BFFEE7B1A01DF061FB00BFFEE70000B9
:10460000232323232323232323232323232323237A
:1046100048617264206661756C742068616E646CB8
:1046200065725D232323232323232323232323238F
:104630002323230D0A00000052302020203D20308B
:1046400078253038780D0A0052312020203D203066
:1046500078253038780D0A0052322020203D203055
:1046600078253038780D0A0052332020203D203044
:1046700078253038780D0A0052313220203D203024
:1046800078253038780D0A0053502020203D203006
:1046900078253038780D0A004C522020203D2030FB
:1046A00078253038780D0A0050432020203D2030F6
:1046B00078253038780D0A0050535220203D2030A4
:1046C00078253038780D0A0028ED00E04346535233
:1046D000203D203078253038780D0A0020424641B0
:1046E0005256414C49442020203A25640D0A0000CE
:1046F0002053544B4552522020202020203A25643C
:104700000D0A000020554E53544B45525220202094
:10471000203A25640D0A000020494D505245434976
:1047200053455252203A25640D0A0000205052454C
:104730004349534552522020203A25640D0A000077
:10474000204942555345525220202020203A2564CA
:104750000D0A0000204D4D415256414C4944202045
:10476000203A25640D0A0000204D53544B45525207
:1047700020202020203A25640D0A0000204D554EAF
:1047800053544B4552522020203A25640D0A000014
:10479000204441434356494F4C202020203A256471
:1047A0000D0A0000204941434356494F4C20202028
:1047B000203A25640D0A00002044495642595A45C2
:1047C000524F2020203A25640D0A000020554E410A
:1047D0004C49474E45442020203A25640D0A0000EC
:1047E000204E4F435020202020202020203A2564B6
:1047F0000D0A000020494E56504320202020202042
:10480000203A25640D0A000020494E565354415465
:1048100045202020203A25640D0A000020554E44F2
:104820004546494E53545220203A25640D0A000053
:1048300048465352203D203078253038780D0A0004
:10484000204445425547455654202020203A2564AF
:104850000D0A000020464F524345442020202020CE
:10486000203A25640D0A00002056454354424C204E
:1048700020202020203A25640D0A0000444653528F
:10488000203D203078253038780D0A0041465352BB
:10489000203D203078253038780D0A0042464152BC
:1048A000203D203078253038780D0A004D4D41529A
:1048B000203D203078253038780D0A00537461632C
:1048C0006B206F766572666C6F77210D0A000000B1
:1048D00010B586B00446012144F20400FEF7CAFF79
:1048E0004FF40070ADF8140018208DF81700032065
:1048F0008DF8160005A98748FDF768FA4FF4806027
:10490000ADF8140004208DF8170005A98148FDF7C3
:104910005DFA01940020ADF80800ADF80A00ADF88A
:104920000C00ADF810000C20ADF80E0001A97A487B
:10493000FEF771FC01217848FEF7F9FC402176482A
:10494000FEF7DDFD012240F225517348FEF7FBFC26
:1049500025208DF8000002208DF801008DF802005E
:1049600001208DF803006846FCF7B1FE06B010BDCB
:1049700008B540F225516848FEF7CAFD58B16648AF
:10498000FEF746FDC0B200906448417B11B969460C
:10499000FBF76BFC1BE040F227715F48FEF7B8FDA8
:1049A000A8B100BF5D482A38007B50B969465B4812
:1049B0002A38FBF789FC9DF800105748FEF724FDC4
:1049C00005E0002240F227715348FEF7BCFC08BD09
:1049D00070B586B006460C46154601211020FEF73C
:1049E00049FF0121C804FEF752FF4FF48060ADF883
:1049F000140018208DF8170003208DF8160005A963
:104A00004748FDF7E3F94FF40060ADF814000420C7
:104A10008DF8170005A94248FDF7D8F90196002046
:104A2000ADF808001CB14FF48050ADF8080000202C
:104A3000ADF80A00ADF80C00ADF810000C20ADF890
:104A40000E0001A93748FEF7E6FB01213548FEF7C5
:104A50006EFC40213348FEF752FDA5B1012240F221
:104A600025513048FEF76FFC34208DF800000420FB
:104A70008DF801008DF8020001208DF803006846D2
:104A8000FCF725FE13E0002240F225512548FEF7F1
:104A90005AFC34208DF8000004208DF801008DF8B8
:104AA000020000208DF803006846FCF710FE06B0F7
:104AB00070BD08B540F225511A48FEF729FD68B1CE
:104AC0001848FEF7A5FCC0B2009000BF1648407B16
:104AD00018B969461448FBF7C8FB19E040F2277182
:104AE0001048FEF715FD98B100BF1048007B48B98B
:104AF00069460E48FBF7E8FB9DF800100948FEF7F1
:104B000083FC05E0002240F227710648FEF71BFCFB
:104B100008BD000000080140003801405C3500205D
:104B200000100140004C00409E690020C86D00202C
:104B300010B501239A0228492848FBF765FB012399
:104B40001A03274925482A30FBF75EFBAD230822CC
:104B500024492548FBF758FBAD2308222349224866
:104B60002A30FBF751FB01231A0321492148FBF7A7
:104B70004BFB01231A0320491E482A30FBF744FB54
:104B8000AD2308221D491E48FBF73EFBAD2308223A
:104B90001C491B482A30FBF737FB012314221A4912
:104BA0001A48FBF731FB10BD10B5194890F85F03A8
:104BB00000B110BD094811F0B8FD00BF0748D0F89A
:104BC0000E0028B1012240F227711248FEF7BBFB0C
:104BD00000F06CFE00BFECE7620A002032350020D6
:104BE000621A0020622A00208D370020CA2F002080
:104BF000E1370020B1620020E1470020E1570020AA
:104C00000C650020495D002060650020746500206F
:104C1000089D0020003801402DE9F04106460C4671
:104C200020461BF06AFE0746002504E06119304665
:104C3000FBF71BFB6D1CBD42F8D3BDE8F08110B53E
:104C4000FBF788FDFBF7FAFB10BD10B5012240F21F
:104C50002771FE48FEF777FB00BFFD481CF0E9FF17
:104C60000028FAD010BD10B5FFF7EFFF10BD2DE9F9
:104C7000F04FA1B007460C464FF0000A802101A872
:104C80001BF012FE0025F348D0F80080002F42D020
:104C90003AE006E028466D1C01AA8118EE48FBF7B1
:104CA00013FBED481CF0C5FF0028F3D0EBA10DF17C
:104CB00006001CF0FAFF10B14FF0010A2AE0E9A14A
:104CC0000DF106001CF0F1FFE8B1E8A10DF10600BE
:104CD0001CF0EBFFB8B1E4A10DF106001CF0E5FFFC
:104CE0000646E2A10DF106001CF0DFFF8146002020
:104CF00089F80000701C1BF0EDFE83465946DCA0CD
:104D00001CF0DCFF06E000BFD248016808F5FA702D
:104D10008142BED331E029E006E028466D1C01AA9D
:104D20008118CD48FBF7D0FACB481CF082FF002851
:104D3000F3D0D4A10DF106001CF0B7FF8146CBA142
:104D40000DF106001CF0B1FF0646B9F1000F0CD0C2
:104D50005EB10021A81E01AA11541CB1911D20466C
:104D60001BF0EDFD4FF0010A06E000BFB9480168F5
:104D700008F5FA708142CFD300BF504621B0BDE89C
:104D8000F08F70B504460D4629462046FFF76FFFA9
:104D900070BDF0B5A1B006460C46002E78D0207844
:104DA000002876D0AC48FBF745FAA948FBF742FA51
:104DB000B6A1A748FFF730FFFFF747FFA5480768F0
:104DC00000BFA448016807F5FA70814204D2A248E6
:104DD0001CF02FFF0028F4D19F481CF02AFF28B1B7
:104DE000AB49ACA01CF06AFF21B0F0BD00202090C0
:104DF00003E020A99848FBF767FA97481CF019FFD1
:104E00000028F6D09DF88000612804D0A049AAA00F
:104E10001CF054FFE8E7B0A18D48FFF7FDFEFFF757
:104E200014FF8C48076800BF8A48016807F5FA70CC
:104E3000814204D288481CF0FFFE0328F4D3864840
:104E40001CF0FAFE032804D29149A4A01CF036FFFE
:104E5000CAE7802168461BF027FD002506E02846AA
:104E60006D1C6A4681187C48FBF72EFA7A481CF0C4
:104E7000E0FE0028F3D000200DF80500A0A1684650
:104E80001BF042FD30B182499EA01CF017FFABE73A
:104E900051E03EE0A3A16E48FFF7BEFEFFF7D5FE4E
:104EA00000210120FFF7E3FEA1A16948FFF7B4FE4E
:104EB000FFF7CBFE00210120FFF7D9FEA0A34BF6A0
:104EC0000372A3A168461CF009FF69466048FFF71A
:104ED000A3FEFFF7BAFE69460120FFF7C8FEA1A1B5
:104EE00068461CF0FBFE68461CF0E8FE6946584820
:104EF000FFF792FEFFF7A9FE69460120FFF7B7FE14
:104F000018B16349A0A01CF0D9FE0120A749087080
:104F100014E0A7A14E48FFF77FFEFFF796FE0021A1
:104F20000120FFF7A4FE10B1A3A01CF0C7FE0020D3
:104F30009E49087002E09D480078207000BF53E74A
:104F40002DE9FF4FAFB00C4615461E463C9F2F98EB
:104F500000285FD04048FBF76DF93D48FBF76AF940
:104F600024B19D48216801602179017115B19B48E8
:104F70002968016016B19A483168016017B19948F3
:104F80003968016080210FA81BF08EFC92480078E0
:104F900020B195A10FA81CF0A1FE2DE09148C27888
:104FA0008078904949788F4B1B78CDE90A31CDE95B
:104FB0000C028B48C0788A498978894A5278884B94
:104FC0001B78CDE90632CDE908108448C178827893
:104FD0004078824B1B78CDE90230CDE904217E4830
:104FE00000797D49C978CDE900107B488378427803
:104FF00081490FA81CF072FE0FA81CF05FFE0FA9DC
:105000001348FFF709FEFFF720FE00212F98FFF756
:105010002EFE98E11048FBF70DF90D48FBF70AF951
:1050200076A10B48FFF7F8FDFFF70FFE00BF8021C8
:105030000FA81BF039FC0FA92F98FFF718FE0028C6
:1050400002D00FA80A90DFE06AE10000004C0040A7
:10505000C86D0020580000209E6900202B4F4B0D8A
:105060000A0000002B4552523D0000000D0A0000CE
:105070005B4552524F525D436F64653A25640D0A99
:10508000000000002B4F4B3D000000002B2B2B009D
:10509000AF3E02085B4552524F525D25733A52654E
:1050A0006365697665202761272074696D656F7572
:1050B00074210D0A000000005B4552524F525D25DD
:1050C000733A5265636569766564206E6F74202754
:1050D0006127210D0A000000610000005B4552526B
:1050E0004F525D25733A5265636569766520272BBB
:1050F0004F4B272074696D656F7574210D0A000090
:105100002B4F4B005B4552524F525D25733A52650F
:105110006365697665206E6F7420272B4F4B2721BE
:105120000D0A000041542B453D6F66660D0A0000D4
:1051300041542B574D4F44453D5354410D0A0000F7
:1051400057686F20697320446F626F743F000000DE
:1051500041542B5345415243483D25642C25730D42
:105160000A00000041542B534F434B413D554450DE
:10517000532C3139322E3136382E312E312C3838ED
:1051800039390D0A0000000025733A536574205523
:10519000445020536572766572207375636365733E
:1051A0007366756C6C79210D0A000000A400002064
:1051B00041542B5A0D0A000057694669206D6F64EF
:1051C000756C6520697320726573657474696E67A8
:1051D0002E2E2E0D0A000000A7000020AC0000209B
:1051E000B0000020B400002041542B57414E4E3DEA
:1051F000444843500D0A00002452020841542B57E2
:10520000414E4E0D0A000000FBA10A981CF04DFD16
:1052100000F10108F8A140461CF047FD00F101092A
:10522000F5A148461CF041FD00F1010AF2A15046EB
:105230001CF03BFD00F1010B0A9800286FD0B8F17B
:10524000000F6CD0B9F1000F69D0BAF1000F66D031
:10525000BBF1000F63D0002008F8010C09F8010C25
:105260000AF8010C0BF8010CE4A10A981BF04CFBA6
:1052700008B9012000E00020E24908700EA80DA93D
:105280000CAB0BAACDE90010DFA140461BF060FB80
:10529000002006E00BA911F82020DA49491C0A5425
:1052A000401C0428F6D30EA80DA90CAB0BAACDE91F
:1052B0000010D5A148461BF04BFB002005E00BA9D0
:1052C00011F82010D34A1154401C0428F7D30EA81B
:1052D0000DA90CAB0BAACDE90010CBA150461BF0D9
:1052E00037FB002005E00BA911F82010CA4A115421
:1052F000401C0428F7D30EA80DA90CAB0BAACDE9CE
:105300000010C1A158461BF023FB002005E00BA9AB
:1053100011F82010C14A1154401C0428F7D300BFD3
:1053200024B1B848016821600079207115B1B948ED
:105330000068286016B1B8480068306017B1B748F7
:105340000068386000BF33B0BDE8F08FF0B5A1B0A1
:1053500007460D461446002F2CD0B148FAF76AFFD5
:10536000B048FAF767FF1DB12946AF481BF0E7FACE
:105370001CB12146AD481BF0E2FA802101A81BF0C8
:1053800093FAAA4BA84AAAA101A81CF0A7FC01A85D
:105390001CF094FC01A9A348FFF73EFCFFF755FC65
:1053A00000213846FFF763FC18B1A549A5A01CF001
:1053B00085FC31E09A48FAF73DFF9A48FAF73AFF40
:1053C000AAA19848FFF728FCFFF73FFC00BF802107
:1053D00001A81BF069FA01A93846FFF748FC80B123
:1053E00085A101A81CF061FC06464EB1002030707A
:1053F00001A98D481BF0A3FA711C8C481BF09FFA81
:1054000000BF1DB1884928461BF099FA1CB1874995
:1054100020461BF094FA00BF21B0F0BDF0B5ADB04E
:10542000002600BF012200214FF4E130FFF7D0FA3F
:1054300001202C902CA9FFF7ACFC8F4800780028A5
:105440006DD0002211461046FFF780FF0020034672
:10545000024601460090FFF773FD00BF80210BA8B4
:105460001BF022FA85A16F48FFF7D6FBFFF7EDFB93
:105470000BA90020FFF7FBFB0BAD5FA10BA81CF0F5
:1054800014FC0446002D18D0002C16D000202070EB
:10549000641C7DA128461BF037FA48B120461BF05A
:1054A00019FB07463A4629467BA01CF007FC04E09E
:1054B0005E4A5D4980A01CF001FC5748C0785649FF
:1054C0008978554A5278544B1B78CDE90632CDE99C
:1054D00008105048C27880784E4949784D4B1B7867
:1054E000CDE90231CDE90402464800794549C97841
:1054F000CDE90010434883784278007808B13FA096
:1055000000E079A001467AA01CF0D8FB00BF002083
:105510002B902BA90120FFF73CFC012600BF00BF08
:1055200030462DB0F0BDF0B5A1B006460C46002EB9
:105530005ED0207800285CD03948FAF77BFE3948E5
:10554000FAF778FEAFF2BC413648FFF765FBFFF78C
:105550008AFB7448076800BF7248016807F5FA7053
:10556000814204D22E481CF064FB0028F4D12C4860
:105570001CF05FFB30B16C49AFF2E8401CF09EFBC1
:1055800021B0F0BD0020209003E020A92448FAF7C4
:105590009BFE23481CF04DFB0028F6D09DF88000B0
:1055A000612805D06049AFF2F0401CF087FBE7E7C7
:1055B000AFF2DC411B48FFF72FFBFFF754FB5948C4
:1055C000076800BF5748016807F5FA70814204D2A6
:1055D00013481CF031FB0328F4D311481CF02CFBBA
:1055E000032807D25049AFF20C501CF067FBC7E705
:1055F000DCE0C9E09AE000002C0000004448435081
:1056000000000000A700002025642E25642E2564DC
:105610002E256400AC000020B0000020B400002063
:105620009E690020C86D0020F26D0020126E0020DF
:1056300041542B575354413D25732C25730D0A00BB
:10564000CC3E020825733A536574205353494420D5
:105650006F722070617373776F7264207375636308
:1056600065737366756C6C79210D0A0041542B5774
:105670005354410D0A000000A400002041542B5750
:10568000534C4B0D0A000000444953434F4E4E45C6
:105690004354454400000000436F6E6E65637465BB
:1056A0006420415020535349443A25732C2072738F
:1056B00073693A25640D0A00415020646973636F71
:1056C0006E6E6563746564212053746F7265642027
:1056D000535349443A25732C2070617373776F726A
:1056E000643A25730D0A00005354415449430000A5
:1056F0004D6F64653A25732C2025642E25642E2574
:10570000642E25642C2025642E25642E25642E25E8
:10571000642C2025642E25642E25642E25640D0A14
:105720000000000058000020BE3E020880216846AC
:105730001BF0BAF8002506E028466D1C6A46811861
:10574000BB48FAF7C1FDBA481CF073FA0028F3D041
:1057500000200DF80500B7A168461BF0D5F828B168
:10576000B549AFF260601CF0A9FA09E7B3A1B648E9
:10577000FFF752FAFFF769FA00210120FFF777FAE5
:105780000120B249087014E0B1A1AF48FFF744FA14
:10579000FFF769FA00210120FFF7F3FA10B1AFA07B
:1057A0001CF08CFA0020A949087002E0A748007894
:1057B000207000BFE4E638B5002400BF01220021BC
:1057C0004FF46140FFF704F9012000906946FFF7AC
:1057D000AAFE9E48007830B101240020009069465E
:1057E0000120FFF7A0FE00BF204638BD10B5012301
:1057F0009A02A2498E48FAF707FD01239A02A049AE
:105800009148FAF701FDFFF709FE18B101209D4903
:1058100008702DE0FFF7CFFF18B1022099490870FA
:1058200026E0FFF70CFA18B10320964908701FE034
:10583000002094490870012200214FF4E130FFF765
:10584000C7F891480078012812D1904890F80C03CD
:1058500070B980218E48FCF766FB4FF480718C484C
:10586000FCF763FB894890F80C138AA01CF026FA19
:105870006F48FAF7DFFC7448FAF7DCFC10BD81488A
:105880000078704710B503207E49087008460178FB
:1058900089A01CF013FA10BD10B5002079490870DA
:1058A000084601788AA01CF009FA10BD38B58D4869
:1058B000007874490978884203D072480078894991
:1058C00008708948007800B938BD6E480078002813
:1058D00071D0012869D0022804D0032801D1FBF738
:1058E000B1F9A2E00AE069465148FAF7EDFC7F48B9
:1058F000417B11B96946FAF7B8FC00BF4C481CF06F
:1059000098F90028EFD079482A3810F00EFF78482F
:10591000007820B101282FD0022844D138E04A482D
:105920001CF087F938B371482A381CF082F910BB93
:105930006E482A381CF080F90446142C01D9142032
:1059400000E020460446002509E0694667482A38F9
:10595000FAF7BAFC69463C48FAF787FC6D1CA54289
:10596000F3D3012240F227716248FDF7ECFC0120DD
:105970005F49087000BF16E033481CF05AF930B197
:105980005D4800685D4908600220594908700AE0D6
:105990005948006859490968401A462802D9002028
:1059A0005349087000BF00BF3FE05548007808B178
:1059B0003BE000E000BF0AE069461D48FAF784FCBE
:1059C0004A48417B11B96946FAF74FFC00BF1848B5
:1059D0001CF02FF90028EFD044482A3810F0A5FE1B
:1059E00019481CF026F9F8B140482A381CF021F972
:1059F000D0B90DE069463D482A38FAF765FC00BF8A
:105A00001148407B18B969460F48FAF72EFC00BFD1
:105A100036482A381CF00DF90028EBD0012240F25C
:105A200027713448FDF78FFC00BF00BF00BF4BE774
:105A30009E6900202B6F6B00BE3E020841542B5222
:105A4000454C4F41440D0A00C86D0020A5000020C0
:105A500041542B454E544D0D0A000000424C452048
:105A60006D6F64756C6520697320726573657474FD
:105A7000696E672E2E2E0D0A000000009E65002024
:105A8000C86900209C0000207A040020089D0020A6
:105A900000180140556172743420436C6F73654582
:105AA0007874656E64506F727420506172616D73AA
:105AB0003A25640D0A0000005365744348333735B6
:105AC000547970653A25642121210D0A00000000F7
:105AD00053657455415254547970653A25642121B7
