:020000040800F2
:1000000000000120E1B5000829B6000829B6000863
:1000100029B6000829B6000829B60008000000002B
:100020000000000000000000000000002BB60008E7
:1000300029B60008000000002FB6000833B60008FB
:1000400029B6000829B6000829B6000829B6000814
:1000500029B6000829B6000851B6000879B600088C
:10006000A1B60008C9B60008F1B6000829B6000814
:1000700029B6000829B6000829B6000829B60008E4
:1000800029B6000829B6000829B6000829B60008D4
:1000900029B6000829B6000829B6000819B70008D3
:1000A00029B6000829B6000829B6000835BF00089F
:1000B00041BE0008C1BE00086993000829B60008C7
:1000C00029B6000829B6000829B6000829B6000894
:1000D00029B60008B5A90008CDA90008D9A90008CB
:1000E000A1B7000829B6000829B6000829B60008FB
:1000F00029B6000829B600081DC0000829B6000866
:1001000029B6000829B60008A9BF000829B60008CA
:10011000C1A9000829B60008000000000000000086
:1001200029B6000829B6000829B6000829B6000833
:10013000C81000000100000010B5054C237833B949
:10014000044B13B10448AFF300800123237010BDAA
:10015000480C0020000000003001000808B5064BE4
:100160001BB106480649AFF300800648036813B187
:10017000054B03B1984708BD00000000300100089E
:100180004C0C0020480C00200000000081F00041D1
:1001900002E000BF83F0004330B54FEA41044FEA6C
:1001A000430594EA050F08BF90EA020F1FBF54EA07
:1001B000000C55EA020C7FEA645C7FEA655C00F0A3
:1001C000E2804FEA5454D4EB5555B8BF6D420CDD74
:1001D0002C4480EA020281EA030382EA000083EAF7
:1001E000010180EA020281EA0303362D88BF30BD97
:1001F00011F0004F4FEA01314FF4801C4CEA1131ED
:1002000002D0404261EB410113F0004F4FEA03334B
:100210004CEA133302D0524263EB430394EA050FD6
:1002200000F0A780A4F10104D5F1200E0DDB02FA45
:100230000EFC22FA05F2801841F1000103FA0EF2D9
:10024000801843FA05F359410EE0A5F120050EF19F
:10025000200E012A03FA0EFC28BF4CF0020C43FAD0
:1002600005F3C01851EBE37101F0004507D54FF0DD
:10027000000EDCF1000C7EEB00006EEB0101B1F52D
:10028000801F1BD3B1F5001F0CD349085FEA300073
:100290004FEA3C0C04F101044FEA445212F5800F7E
:1002A00080F09A80BCF1004F08BF5FEA500C50F11B
:1002B000000041EB045141EA050130BD5FEA4C0CFE
:1002C000404141EB010111F4801FA4F10104E9D187
:1002D00091F0000F04BF01460020B1FA81F308BF7E
:1002E0002033A3F10B03B3F120020CDA0C3208DD4A
:1002F00002F1140CC2F10C0201FA0CF021FA02F125
:100300000CE002F11402D8BFC2F1200C01FA02F194
:1003100020FA0CFCDCBF41EA0C019040E41AA2BFB9
:1003200001EB0451294330BD6FEA04041F3C1CDA81
:100330000C340EDC04F11404C4F1200220FA04F0A1
:1003400001FA02F340EA030021FA04F345EA03014B
:1003500030BDC4F10C04C4F1200220FA02F001FA0D
:1003600004F340EA0300294630BD21FA04F029468F
:1003700030BD94F0000F83F4801306BF81F4801128
:100380000134013D4EE77FEA645C18BF7FEA655C9B
:1003900029D094EA050F08BF90EA020F05D054EA6D
:1003A000000C04BF1946104630BD91EA030F1EBF72
:1003B0000021002030BD5FEA545C05D14000494176
:1003C00028BF41F0004130BD14F580043CBF01F569
:1003D000801130BD01F0004545F0FE4141F470014F
:1003E0004FF0000030BD7FEA645C1ABF194610462A
:1003F0007FEA655C1CBF0B46024650EA013406BF2B
:1004000052EA033591EA030F41F4002130BD00BFE9
:1004100090F0000F04BF0021704730B54FF48064A6
:1004200004F132044FF000054FF0000150E700BF27
:1004300090F0000F04BF0021704730B54FF4806486
:1004400004F1320410F0004548BF40424FF0000173
:100450003EE700BF42004FEAE2014FEA31014FEAB6
:1004600002701FBF12F07F4393F07F4F81F0605105
:10047000704792F0000F14BF93F07F4F704730B574
:100480004FF4607401F0004521F0004120E700BF07
:1004900050EA010208BF704730B54FF000050AE08E
:1004A00050EA010208BF704730B511F0004502D58F
:1004B000404261EB41014FF4806404F132045FEA91
:1004C000915C3FF4DCAE4FF003025FEADC0C18BF36
:1004D00003325FEADC0C18BF033202EBDC02C2F12C
:1004E000200300FA03FC20FA02F001FA03FE40EABE
:1004F0000E0021FA02F11444C1E600BF70B54FF0BE
:10050000FF0C4CF4E06C1CEA11541DBF1CEA13559F
:1005100094EA0C0F95EA0C0F00F0DEF82C4481EA07
:10052000030621EA4C5123EA4C5350EA013518BF27
:1005300052EA033541F4801143F4801338D0A0FB14
:1005400002CE4FF00005E1FB02E506F00042E0FBC1
:1005500003E54FF00006E1FB03569CF0000F18BFC7
:100560004EF0010EA4F1FF04B6F5007F64F540746F
:1005700004D25FEA4E0E6D4146EB060642EAC62102
:1005800041EA55514FEAC52040EA5E504FEACE2E6F
:10059000B4F1FD0C88BFBCF5E06F1ED8BEF1004F72
:1005A00008BF5FEA500E50F1000041EB045170BDEE
:1005B00006F0004646EA010140EA020081EA030132
:1005C000B4EB5C04C2BFD4EB0C0541EA045170BD2E
:1005D00041F480114FF0000E013C00F3AB8014F1A8
:1005E000360FDEBF002001F0004170BDC4F10004F1
:1005F000203C35DA0C341BDC04F11404C4F1200572
:1006000000FA05F320FA04F001FA05F240EA0200CC
:1006100001F0004221F0004110EBD37021FA04F602
:1006200042EB06015EEA430E08BF20EAD37070BDBC
:10063000C4F10C04C4F1200500FA04F320FA05F01B
:1006400001FA04F240EA020001F0004110EBD3701D
:1006500041F100015EEA430E08BF20EAD37070BD8D
:10066000C4F1200500FA05F24EEA020E20FA04F366
:1006700001FA05F243EA020321FA04F001F0004115
:1006800021FA04F220EA020000EBD3705EEA430E86
:1006900008BF20EAD37070BD94F0000F0FD101F0B5
:1006A0000046400041EB010111F4801F08BF013CEE
:1006B000F7D041EA060195F0000F18BF704703F02C
:1006C0000046520043EB030313F4801F08BF013DB3
:1006D000F7D043EA0603704794EA0C0F0CEA13556F
:1006E00018BF95EA0C0F0CD050EA410618BF52EA29
:1006F0004306D1D181EA030101F000414FF000002F
:1007000070BD50EA410606BF1046194652EA43063C
:1007100019D094EA0C0F02D150EA013613D195EAB0
:100720000C0F05D152EA03361CBF104619460AD1F8
:1007300081EA030101F0004141F0FE4141F4700102
:100740004FF0000070BD41F0FE4141F4780170BDF2
:1007500070B54FF0FF0C4CF4E06C1CEA11541DBF57
:100760001CEA135594EA0C0F95EA0C0F00F0A7F859
:10077000A4EB050481EA030E52EA03354FEA013186
:1007800000F088804FEA03334FF0805545EA131399
:1007900043EA12634FEA022245EA111545EA106561
:1007A0004FEA00260EF000419D4208BF964244F1F8
:1007B000FD0404F5407402D25B084FEA3202B61A17
:1007C00065EB03055B084FEA32024FF480104FF4EB
:1007D000002CB6EB020E75EB030E22BFB61A75465F
:1007E00040EA0C005B084FEA3202B6EB020E75EBF2
:1007F000030E22BFB61A754640EA5C005B084FEA5A
:100800003202B6EB020E75EB030E22BFB61A754626
:1008100040EA9C005B084FEA3202B6EB020E75EB31
:10082000030E22BFB61A754640EADC0055EA060EF2
:1008300018D04FEA051545EA16754FEA06164FEA35
:10084000C30343EA52734FEAC2025FEA1C1CC0D1E1
:1008500011F4801F0BD141EA00014FF000004FF06E
:10086000004CB6E711F4801F04BF01430020B4F12F
:10087000FD0C88BFBCF5E06F3FF6AFAEB5EB030CE7
:1008800004BFB6EB020C5FEA500C50F1000041EBE4
:10089000045170BD0EF0004E4EEA113114EB5C04B1
:1008A000C2BFD4EB0C0541EA045170BD41F4801184
:1008B0004FF0000E013C90E645EA060E8DE60CEA8C
:1008C000135594EA0C0F08BF95EA0C0F3FF43BAFA9
:1008D00094EA0C0F0AD150EA01347FF434AF95EA60
:1008E0000C0F7FF425AF104619462CE795EA0C0F44
:1008F00006D152EA03353FF4FDAE1046194622E711
:1009000050EA410618BF52EA43067FF4C5AE50EAEA
:1009100041047FF40DAF52EA43057FF4EBAE12E7DA
:100920004FF0FF3C06E000BF4FF0010C02E000BFBB
:100930004FF0010C4DF804CD4FEA410C7FEA6C5C9E
:100940004FEA430C18BF7FEA6C5C1BD001B050EA41
:10095000410C0CBF52EA430C91EA030F02BF90EA2C
:10096000020F0020704710F1000F91EA030F58BFEB
:10097000994208BF90422CBFD8176FEAE37040F04D
:10098000010070474FEA410C7FEA6C5C02D150EAEB
:10099000013C07D14FEA430C7FEA6C5CD6D152EAA6
:1009A000033CD3D05DF8040B704700BF844610466B
:1009B00062468C461946634600E000BF01B5FFF76A
:1009C000B7FF002848BF10F1000F01BD4DF808ED3A
:1009D000FFF7F4FF0CBF012000205DF808FB00BF0B
:1009E0004DF808EDFFF7EAFF34BF012000205DF865
:1009F00008FB00BF4DF808EDFFF7E0FF94BF0120B2
:100A000000205DF808FB00BF4DF808EDFFF7CEFFB2
:100A100094BF012000205DF808FB00BF4DF808EDF1
:100A2000FFF7C4FF34BF012000205DF808FB00BFC2
:100A30004FEA410212F5001215D211D56FF4787306
:100A4000B3EB625212D94FEAC12343F0004343EAA9
:100A5000505311F0004F23FA02F018BF4042704784
:100A60004FF00000704750EA013005D111F000400E
:100A700008BF6FF0004070474FF00000704700BFA4
:100A80004A0011D212F5001211D20DD56FF478730D
:100A9000B3EB62520ED44FEAC12343F0004343EA62
:100AA000505323FA02F070474FF00000704750EAAD
:100AB000013002D14FF0FF3070474FF00000704717
:100AC0004FEA4102B2F1E04324BFB3F5001CDCF170
:100AD000FE5C0DD901F0004C4FEAC0024CEA5070A8
:100AE000B2F1004F40EB830008BF20F001007047D7
:100AF00011F0804F21D113F13872BCBF01F00040DA
:100B0000704741F480114FEA5252C2F11802C2F10B
:100B1000200C10FA0CF320FA02F018BF40F001008C
:100B20004FEAC1234FEAD32303FA0CFC40EA0C003E
:100B300023FA02F34FEA4303CCE77FEA625307D17B
:100B400050EA01331EBF4FF0FE4040F440007047B2
:100B500001F0004040F0FE4040F40000704700BF4C
:100B600080F0004002E000BF81F0004142001FBF62
:100B70005FEA410392EA030F7FEA226C7FEA236C6B
:100B80006AD04FEA1262D2EB1363C1BFD218414060
:100B900048404140B8BF5B42192B88BF704710F0F6
:100BA000004F40F4000020F07F4018BF404211F099
:100BB000004F41F4000121F07F4118BF494292EA01
:100BC000030F3FD0A2F1010241FA03FC10EB0C002D
:100BD000C3F1200301FA03F100F0004302D54942BA
:100BE00060EB4000B0F5000F13D3B0F1807F06D367
:100BF00040084FEA310102F10102FE2A51D2B1F15F
:100C0000004F40EBC25008BF20F0010040EA030053
:100C10007047490040EB000010F4000FA2F1010200
:100C2000EDD1B0FA80FCACF1080CB2EB0C0200FA8A
:100C30000CF0AABF00EBC25052421843BCBFD040D8
:100C40001843704792F0000F81F4000106BF80F452
:100C500000000132013BB5E74FEA41037FEA226C15
:100C600018BF7FEA236C21D092EA030F04D092F0E0
:100C7000000F08BF0846704790EA010F1CBF002014
:100C8000704712F07F4F04D1400028BF40F0004071
:100C9000704712F100723CBF00F50000704700F091
:100CA000004343F0FE4040F4000070477FEA2262B8
:100CB00016BF08467FEA23630146420206BF5FEA89
:100CC000412390EA010F40F4800070474FF0000389
:100CD00004E000BF10F0004348BF40425FEA000C50
:100CE00008BF704743F0964301464FF000001CE0F8
:100CF00050EA010208BF70474FF000030AE000BF4E
:100D000050EA010208BF704711F0004302D540428B
:100D100061EB41015FEA010C02BF844601460020FD
:100D200043F0B64308BFA3F18053A3F50003BCFA18
:100D30008CF2083AA3EBC25310DB01FA02FC6344C5
:100D400000FA02FCC2F12002BCF1004F20FA02F2CC
:100D500043EB020008BF20F00100704702F12002BF
:100D600001FA02FCC2F1200250EA4C0021FA02F220
:100D700043EB020008BF20EADC7070474FF0FF0C25
:100D80001CEAD0521EBF1CEAD15392EA0C0F93EA20
:100D90000C0F6FD01A4480EA010C400218BF5FEAC2
:100DA00041211ED04FF0006343EA501043EA511135
:100DB000A0FB01310CF00040B1F5000F3EBF49002F
:100DC00041EAD3715B0040EA010062F17F02FD2A33
:100DD0001DD8B3F1004F40EBC25008BF20F0010016
:100DE000704790F0000F0CF0004C08BF49024CEA2D
:100DF000502040EA51207F3AC2BFD2F1FF0340EABF
:100E0000C250704740F400004FF00003013A5DDC2F
:100E100012F1190FDCBF00F000407047C2F1000270
:100E2000410021FA02F1C2F1200200FA02FC5FEA5D
:100E3000310040F1000053EA4C0308BF20EADC70A7
:100E4000704792F0000F00F0004C02BF400010F419
:100E5000000F013AF9D040EA0C0093F0000F01F0C6
:100E6000004C02BF490011F4000F013BF9D041EAE8
:100E70000C018FE70CEAD15392EA0C0F18BF93EAEA
:100E80000C0F0AD030F0004C18BF31F0004CD8D114
:100E900080EA010000F00040704790F0000F17BF9B
:100EA00090F0004F084691F0000F91F0004F14D0E1
:100EB00092EA0C0F01D142020FD193EA0C0F03D139
:100EC0004B0218BF084608D180EA010000F000403C
:100ED00040F0FE4040F40000704740F0FE4040F417
:100EE000400070474FF0FF0C1CEAD0521EBF1CEAB6
:100EF000D15392EA0C0F93EA0C0F69D0A2EB0302D4
:100F000080EA010C49024FEA402037D04FF080536D
:100F100043EA111143EA10130CF000408B4238BF32
:100F20005B0042F17D024FF4000C8B4224BF5B1A40
:100F300040EA0C00B3EB510F24BFA3EB510340EA8E
:100F40005C00B3EB910F24BFA3EB910340EA9C003C
:100F5000B3EBD10F24BFA3EBD10340EADC001B01AC
:100F600018BF5FEA1C1CE0D1FD2A3FF650AF8B4250
:100F700040EBC25008BF20F0010070470CF0004C5D
:100F80004CEA50207F32C2BFD2F1FF0340EAC25088
:100F9000704740F400004FF00003013A37E792F049
:100FA000000F00F0004C02BF400010F4000F013AA7
:100FB000F9D040EA0C0093F0000F01F0004C02BFA2
:100FC000490011F4000F013BF9D041EA0C0195E70B
:100FD0000CEAD15392EA0C0F08D142027FF47DAFA4
:100FE00093EA0C0F7FF470AF084676E793EA0C0F94
:100FF00004D14B023FF44CAF08466EE730F0004C92
:1010000018BF31F0004CCAD130F000427FF45CAF21
:1010100031F000437FF43CAF5FE700BF4FF0FF3C8F
:1010200006E000BF4FF0010C02E000BF4FF0010CE2
:101030004DF804CD4FEA40024FEA41037FEA226CAB
:1010400018BF7FEA236C11D001B052EA530C18BFCD
:1010500090EA010F58BFB2EB030088BFC81738BF32
:101060006FEAE17018BF40F0010070477FEA226C20
:1010700002D15FEA402C05D17FEA236CE4D15FEA1C
:10108000412CE1D05DF8040B704700BF8446084650
:101090006146FFE70FB5FFF7C9FF002848BF10F111
:1010A000000F0FBD4DF808EDFFF7F4FF0CBF012056
:1010B00000205DF808FB00BF4DF808EDFFF7EAFFE0
:1010C00034BF012000205DF808FB00BF4DF808ED9B
:1010D000FFF7E0FF94BF012000205DF808FB00BF90
:1010E0004DF808EDFFF7D2FF94BF012000205DF816
:1010F00008FB00BF4DF808EDFFF7C8FF34BF012023
:1011000000205DF808FB00BF4FEA4002B2F1FE4F3D
:101110000FD34FF09E03B3EB12620DD94FEA0023B9
:1011200043F0004310F0004F23FA02F018BF404292
:1011300070474FF00000704712F1610F01D1420279
:1011400005D110F0004008BF6FF0004070474FF02D
:101150000000704742000ED2B2F1FE4F0BD34FF0A9
:101160009E03B3EB126209D44FEA002343F000431D
:1011700023FA02F070474FF00000704712F1610F40
:1011800001D1420202D14FF0FF3070474FF0000012
:10119000704700BF2DE9704F089E14461D468046DB
:1011A000894600F029F804FB01F3A4FB00AB00FB27
:1011B00005329344B8EB0A0869EB0B09C6E90089CC
:1011C000BDE8708F2DE9704F089E14461D4680467D
:1011D000894600F061F900FB05F5A0FB04AB04FBB8
:1011E0000154A344B8EB0A0869EB0B09C6E900896E
:1011F000BDE8708F704700BF00292DE9F00FC0F2E5
:10120000A1800024002BC0F29880154606460F46A8
:10121000002B3FD18A4258D9B2FA82F34BB1C3F1C5
:10122000200201FA03F720FA02F29D4000FA03F6C9
:101230001743290CB7FBF1F201FB1277A8B200FBB0
:1012400002F34FEA164C4CEA0747BB4209D97F1913
:1012500002F1FF3C80F00581BB4240F20281023A7C
:101260002F44FF1AB7FBF1F301FB137100FB03F0EE
:10127000B6B246EA0141884208D9491903F1FF375D
:1012800080F0F180884240F2EE80023B43EA024265
:10129000002303E08B420AD900231A461046194660
:1012A00014B1404261EB4101BDE8F00F7047B3FA61
:1012B00083F8B8F1000F40F088808B4202D382425D
:1012C00000F2E28000230122E8E712B90123B3FB18
:1012D000F2F5B5FA85F2002A3AD17F1B280C1FFAE5
:1012E00085FC0123B7FBF0F100FB11770CFB01F249
:1012F0004FEA164848EA0747BA4207D97F1901F171
:10130000FF3802D2BA4200F2C4804146BF1AB7FB8E
:10131000F0F200FB12700CFB02FCB6B246EA004091
:10132000844507D9401902F1FF3702D2844500F203
:10133000AE803A4642EA0142B0E7E443524263EBF0
:10134000430362E7404261EB41014FF0FF3459E74C
:101350009540C2F1200927FA09F126FA09F99740C8
:10136000280CB1FBF0F800FB18111FFA85FC0CFBF0
:1013700008F349EA07094FEA194747EA01418B4256
:1013800006FA02F608D9491908F1FF327AD28B42DF
:1013900078D9A8F102082944C91AB1FBF0F300FB7F
:1013A00013170CFB03F21FFA89F949EA0747BA42FF
:1013B00007D97F1903F1FF3160D2BA425ED9023BEF
:1013C0002F44BF1A43EA08438CE7C8F1200225FAEC
:1013D00002F103FA08FC27FA02F320FA02F207FAF4
:1013E00008F741EA0C0C4FEA1C49B3FBF9F109FB81
:1013F00011331FFA8CFA0AFB01FB17433A0C42EA3D
:1014000003439B4505FA08F008D913EB0C0301F1DF
:10141000FF3235D29B4533D902396344CBEB03030A
:10142000B3FBF9F209FB12330AFB02FABFB247EA37
:101430000347BA4508D917EB0C0702F1FF331BD25B
:10144000BA4519D9023A674442EA0145A5FB0001B1
:10145000CAEB07078F424FF000030AD305D02A4694
:101460001CE76246FDE63B4610E706FA08F68642B0
:10147000F5D26A1E002311E71A46E5E70B46A0E7FE
:101480001146CBE7904687E74346424606E7023AD5
:1014900050E702392F4439E72DE9F00F144605468D
:1014A0000E46002B43D18A4253D9B2FA82F757B184
:1014B000C7F1200620FA06F601FA07F302FA07F44C
:1014C00000FA07F51E43210CB6FBF1F201FB126690
:1014D000A0B200FB02F32F0C47EA0646B34209D93B
:1014E000361902F1FF3780F0FD80B34240F2FA80F6
:1014F000023A2644F61AB6FBF1F301FB136100FB36
:1015000003F0ADB245EA0141884208D9091903F157
:10151000FF3680F0E980884240F2E680023B43EAF1
:101520000242002310461946BDE8F00F70478B4277
:101530004CD8B3FA83F6002E4FD18B4202D38242AD
:1015400000F2DD80BDE8F00F0023012210461946AD
:10155000704712B90124B4FBF2F4B4FA84F2002A01
:1015600040F08280091B260CA7B20123B1FBF6F0E4
:1015700006FB101107FB00F24FEA154C4CEA014143
:101580008A4207D9091900F1FF3C02D28A4200F2CF
:10159000C8806046891AB1FBF6F206FB121107FB00
:1015A00002F7ADB245EA0145AF4208D92C1902F164
:1015B000FF3180F09B80A74240F29880023A42EAD5
:1015C000004210461946BDE8F00F704700231A4646
:1015D00010461946BDE8F00F7047C6F1200522FA03
:1015E00005F703FA06F421FA05F301FA06FB20FADF
:1015F00005F53C434FEA1448B3FBF8FC08FB1C33E9
:101600001FFA84F909FB0CFA45EA0B0B4FEA1B455C
:1016100045EA03439A4502FA06F204D91B190CF174
:10162000FF356FD3AC46CAEB0303B3FBF8F508FBF9
:10163000153309FB05F91FFA8BFB4BEA0347B94544
:1016400004D93F1905F1FF3362D31D4645EA0C4C1E
:10165000ACFB0223C9EB07079F424FF000054AD3BA
:1016600046D062462B465DE79440C2F1200921FA3C
:1016700009FC914020FA09F9260CBCFBF6F806FBA0
:1016800018CCA7B207FB08F349EA01094FEA194150
:1016900041EA0C4C634500FA02F509D91CEB040C35
:1016A00008F1FF323BD2634539D9A8F10208A444BE
:1016B000C3EB0C0CBCFBF6F306FB13C107FB03F2F8
:1016C0001FFA89F949EA01418A4207D9091903F148
:1016D000FF3022D28A4220D9023B2144891A43EAB0
:1016E000084343E73A4605E7334618E70A4666E704
:1016F000B0409042B5D20CF1FF32002312E73346DE
:1017000032460FE79A458DD9ACF1020C23448AE7A3
:10171000B9459AD9023D274498E70346DEE790464B
:10172000C6E70238214435E7844641EA000313F056
:10173000030349D1403A23D30B6803604B684360ED
:101740008B688360CB68C3600B6903614B6943613D
:101750008B698361CB69C3610B6A03624B6A436225
:101760008B6A8362CB6AC3620B6B03634B6B43630D
:101770008B6B8363CB6BC36340304031403ADBD229
:1017800030320BD30B6803604B6843608B68836017
:10179000CB68C36010301031103AF3D20C3205D34D
:1017A00051F8043B40F8043B043AF9D2043208D023
:1017B000D2071CBF11F8013B00F8013B01D30B8895
:1017C00003806046704700BF082A13D38B07B1D04F
:1017D00010F00303AED0C3F10403D21ADB071CBF21
:1017E00011F8013B00F8013BA4D331F8023B20F88B
:1017F000023B9FE7043AD9D3013A11F8013B00F8C4
:10180000013BF9D20B7803704B7843708B7883706F
:101810006046704740EA010C1CF0070F27D1BDF16C
:10182000100DCDE90245CDE900676FF000064FF0DD
:10183000000700BFF0E80223F1E80245A242A2F14E
:10184000013C2CEA020C0CF0803C08BFBCF1000FFC
:1018500040F0E580AB42A3F1013C2CEA030C0CF014
:10186000803C08BFBCF1000F40F0D680E2E710F0EA
:10187000030C21D020F0030050F8042B5FEACC7C4D
:1018800008D00FD211F801CB5FFA92F3B3EB0C0C36
:1018900010D17BB111F801CB5FFAA2F3B3EB0C0CC2
:1018A00008D13BB111F801CB5FFAB2F3B3EB0C0CEA
:1018B00000D10BB960467047BDF1100DCDE902456E
:1018C000CDE900676FF000064FF0000711F0030C40
:1018D00033D110F0040F0FD050F8042B51F8044B03
:1018E000A242A2F1013C2CEA020C0CF0803C08BFA1
:1018F000BCF1000F40F0938011F0040F99D051F823
:10190000045B00BFF0E80223AA42A2F1013C2CEAEA
:10191000020C0CF0803C08BFBCF1000F79D1F1E85B
:101920000245A342A3F1013C2CEA030C0CF0803CDD
:1019300008BFBCF1000F69D1E4E721F00301BCF15D
:10194000020F20D03FDA51F8045B00BF50F8043B8F
:101950004FEA1525A3F1013C2CEA030C0CF0803C66
:10196000B7EB0C2F03EA162208BFAA4251D151F857
:10197000045BBCF1000F82EA03034FEA056208BF73
:10198000934240D1E2E751F8045B00BF50F8043BBA
:101990004FEA1545A3F1013C2CEA030C0CF0803C06
:1019A000B7EB0C4F03EA164208BFAA4231D151F8F7
:1019B000045BBCF1000F82EA03034FEA054208BF53
:1019C000934220D1E2E751F8045B00BF50F8043B9A
:1019D0004FEA1565A3F1013C2CEA030C0CF0803CA6
:1019E000B7EB0C6F03EA166208BFAA4211D151F897
:1019F000045BBCF1000F82EA03034FEA052208BF33
:101A0000934200D1E2E719BA12BA0AE019BA22BA2F
:101A100007E011BA2ABA04E019BA2ABA01E011BAE9
:101A200022BA9CFA8CF0DDE90067DDE902451DF180
:101A3000100D38B1B0FA80F0C0F1180021FA00F1B1
:101A400022FA00F20120914298BF8041704700BF06
:101A50004BB942B9002908BF002802D04FF0FF312E
:101A60000846FFF7C7BB82B0EC462DE90050FFF7F0
:101A7000A9FBDDF804E002B00CBC7047044B1A6807
:101A80000AB9044A1A601A68104418601046704770
:101A900004000020940C002008B5152007210AF04E
:101AA0001BF8142007210AF017F8152001210AF06D
:101AB0004BF8BDE80840142001210AF045B808B5EC
:101AC000152001210AF008F8142007210AF004F873
:101AD000152001210AF038F8BDE808401420012142
:101AE0000AF032B808B51420072109F0F5FF4FF4C9
:101AF0001673013BBFF6FDAF094A0123136042F89C
:101B0000043C2423013BBFF6FDAF054B00221A60C5
:101B10002423013BBFF6FDAF024B1A6008BD00BF96
:101B20009C8121429881214208B51420072109F0A7
:101B3000D3FF4FF41673013BBFF6FDAF084A0023F5
:101B4000136053601823013BBFF6FDAF044B012225
:101B50001A601823013BBFF6FDAF024B1A6008BDA7
:101B6000988121429C81214208B51420002109F06E
:101B7000B3FF4FF41673013BBFF6FDAF0E4B0122CE
:101B80001A601823013BBFF6FDAF0C4B1A601823F7
:101B9000013BBFF6FDAF40F2E933094A106838B1A6
:101BA000013B9BB2002BF8D1FFF7BEFF012008BD1F
:101BB000024B186008BD00BF9C81214298812142E0
:101BC0001C81214208B50F4B00221A601420072106
:101BD00009F082FF4FF41673013BBFF6FDAF0A4BCD
:101BE00000221A601823013BBFF6FDAF054B01220E
:101BF0001A601823013BBFF6FDAF024B00221A60AA
:101C000008BD00BF988121429C81214208B50E4B3E
:101C100000221A601420072109F05EFF4FF41673AA
:101C2000013BBFF6FDAF094B01221A601823013BAF
:101C3000BFF6FDAF044B1A601823013BBFF6FDAFA2
:101C4000014B00221A6008BD988121429C812142EB
:101C500038B507210446142009F03EFF4FF41673EF
:101C6000013BBFF6FDAF124A00231360154608235F
:101C700014F0800F0F4A14BF01210021640011608D
:101C8000E4B20C22013ABFF6FDAF01222A60242201
:101C9000013ABFF6FDAF0649002008600C22013A68
:101CA000BFF6FDAF013B13F0FF03E1D138BD00BF2C
:101CB000988121429C81214238B50021054614209B
:101CC00009F00AFF4FF41673013BBFF6FDAF08237E
:101CD0000024124A002111601822013ABFF6FDAF1C
:101CE0000E4A012111602422013ABFF6FDAF0C4AD1
:101CF00064B21268640002B10134E4B22422013AF1
:101D0000BFF6FDAF013B13F0FF03E2D115B9FFF7BA
:101D10007DFF01E0FFF756FF204638BD9881214244
:101D20001C812142F8B504460D4616461F46FFF7B2
:101D3000D9FE600000F0FE00FFF78AFFFFF714FFF6
:101D4000044618B1FFF7F0FE012413E02846FFF720
:101D50007FFFFFF709FF2546EBB2B34208D2785D5B
:101D6000FFF776FFFFF700FF01350028F4D0E9E721
:101D7000FFF7DAFE2046F8BD2DE9F04107467F0067
:101D8000884614461D46FFF7ADFE07F0FE00FFF73C
:101D90005FFFFFF7E9FE064618B1FFF7C5FE012613
:101DA0001CE04046FFF754FFFFF7DEFEFFF79AFE08
:101DB00047F00100C0B2FFF74BFFFFF7D5FE01353A
:101DC00054B1012C0CBF00200120FFF775FF013C2E
:101DD00005F8010CE4B2F2E7FFF7A6FE3046BDE8D5
:101DE000F08100000FB408B5029A0020034901F009
:101DF000F9FBBDE8084004B0704700BF304A010855
:101E000007B5144B93F8242012B150B1022205E01B
:101E1000997AB9B128B1597CB9B901228DF8072056
:101E200001E08DF807005A681B681078597C012280
:101E30000DF10703FFF776FF20B99DF80720054B4A
:101E40005A7403E04FF0FF3000E0104603B05DF835
:101E500004FB00BF640C002003785AB2002A10DC97
:101E60008BB943785AB2002A0FDC83B983785AB20F
:101E7000002A04DC002B0CBF07200620704702203C
:101E800070470020704704207047012070470520EC
:101E9000704770B50446FFF7DFFF0546E01CFFF70B
:101EA000DBFF0646A01DFFF7D7FF800140EAC6060C
:101EB00046EA050080B270BD30B5074C08B9074D41
:101EC00000E0074D0FCD0FC40FCD0FC495E80700FC
:101ED00084E8070030BD00BF640C0020080000202B
:101EE0003400002030B508B9064C00E0064C074D20
:101EF0000FCD0FC40FCD0FC495E8070084E807008D
:101F000030BD00BF0800002034000020640C002019
:101F10007047000073B5574CA37A13B94FF0FF30E8
:101F2000A6E002AD002305F8013D62682368107841
:101F3000597C01222B46FFF7F5FE0028EED162689E
:101F400023681078597901222B46FFF7EBFE002811
:101F5000E4D1626823681078197901222B46FFF7D3
:101F6000E1FE0028DAD194F82430002B3CD00C2379
:101F70008DF80730626823681078197901222B46A2
:101F8000FFF7D0FE0028C9D1322009F065FCC0233C
:101F90008DF80730A37ADA0744BFE0238DF80730C5
:101FA000626823681078197901222B46FFF7BAFE80
:101FB0000028B3D12F4B5B7C03B102238DF807308F
:101FC000626823681078597C01222B46294EFFF75E
:101FD000A9FE0028A2D1726833688DF80700107836
:101FE000597901222B463DE004238DF807306268C1
:101FF00023681078197901222B46FFF793FE0028F9
:102000008CD1A37C13B9A37ADB0701D4402300E071
:1020100060238DF8073062682368107819790122EF
:102020002B46FFF77FFE00287FF478AF322009F0BF
:1020300013FC104B5B7C03B101238DF80730626801
:1020400023681078597C01222B460A4EFFF76AFE5E
:1020500000287FF463AF3346716853F8102B08787B
:1020600051790122FFF75EFE003018BF0120404287
:1020700002B070BD640C002013B51A4B9A7A52B3AB
:10208000B0F5FA7F0CD003D8FA2824D100220AE058
:10209000B0F57A7F06D0B0F5FA6F1CD1182202E0B5
:1020A000082200E010228DF807209DF807201B7AF7
:1020B0000C4CB3EBD20F11D0626823681078997979
:1020C00001220DF10703FFF72DFE20B99DF807301F
:1020D000DB08237203E04FF0FF3000E0002002B085
:1020E00010BD00BF640C00200C4A537A032B12D899
:1020F000DFE803F002040608022304E0042302E000
:10210000082300E010230370D37C13B103785B0035
:102110000370002070474FF0FF307047640C0020C0
:1021200013B5184B9A7A3AB304280AD003D8022878
:1021300022D1002208E0082805D010281CD118223E
:1021400002E0082200E010228DF807209DF8072009
:102150005B7A0C4CB3EBD20F11D062682368107815
:10216000D97901220DF10703FFF7DCFD20B99DF8B5
:102170000730DB08637203E04FF0FF3000E000201F
:1021800002B010BD640C002013B51A4B9A7A12B934
:102190004FF0FF302BE0BB2801D901220FE061286E
:1021A00001D902220BE0292801D9032207E01328D4
:1021B00001D9042203E009288CBF052206228DF8EC
:1021C0000720DA7A9DF807300A4C9A420ED06268EE
:1021D00023681078997801220DF10703FFF7A2FD1B
:1021E0000028D5D19DF80730E37200E0002002B04E
:1021F00010BD00BF640C0020F8B5134B93F82420E9
:102200001E46D2B99C7AD4B100F0FE052C401F7C4A
:102210001C74641B18BF6FF000040DB9187D20B149
:102220000120FFF7EDFD65B102E0FFF7E9FD08E0F1
:10223000FFF770FE28B1377401E0002401E04FF091
:10224000FF342046F8BD00BF640C00202DE9F743A1
:10225000244C054694F8243089461746A0469BB185
:10226000A37A8BB1626823681078197B022201ABD4
:10227000FFF782FD40B99DF804609DF8053043EA00
:102280000626AE4203D238704FF0FF3026E0626877
:102290005388B6EB530F11D923681078D97C0122EB
:1022A00001ABFFF769FD0028EED19DF80430DB0695
:1022B00004D5FFF72FFE6FF001000FE0D8F80420DF
:1022C000D8F800301078597BEAB24B46FFF754FD3E
:1022D0000028D9D1B6FBF5F5013D3D7003B0BDE84E
:1022E000F08300BF640C002037B5364C0546A37C54
:1022F000834263D0626823681078197901220DF156
:1023000007030DB3FFF738FD10B14FF0FF3056E073
:102310009DF80730626823F020038DF807302368AA
:102320001078197901220DF10703FFF7FBFC002853
:10233000EBD1032009F090FA02238DF8073094F8CE
:10234000223033B3822322E0FFF716FD0028DCD1D0
:10235000A37A626813F0010F9DF8073014BF43F0B1
:10236000200323F020038DF80730236810781979B3
:1023700001220DF10703FFF7D5FC0028C5D103208A
:1023800009F06AFA0F4B93F8223003B180238DF8DD
:10239000073094F823302BB19DF8073043F0300319
:1023A0008DF80730626823681078D97D01220DF11D
:1023B0000703FFF7B7FC0028A7D1A574002003B0DE
:1023C00030BD00BF640C002013B5194B044693F8D0
:1023D0002320824225D018B130228DF8072001E059
:1023E0008DF807009A7C2AB19DF8072042F002027E
:1023F0008DF8072093F822202AB19DF8072062F07B
:102400007F028DF807205A681B681078D97D012259
:102410000DF10703FFF786FC28B9054B83F823402D
:1024200003E0002001E04FF0FF3002B010BD00BF1C
:10243000640C0020282837B5044636D8284D88B9C2
:10244000FFF7C2FF07238DF805306A682B688DF807
:1024500004401078597D022201ABFFF763FC20BBDA
:1024600028753BE00120FFF7AFFF012C01D10223CB
:102470000FE0022C01D103230BE0052C01D804232B
:1024800007E00A2C01D8052303E0142C94BF06238F
:1024900007238DF804306A682B681078597A012276
:1024A00001AB0F4CFFF73EFC10B14FF0FF3015E0D1
:1024B00020238DF80430626823681078597D01224A
:1024C00001ABFFF72FFC05460028EED10823A372CD
:1024D000012320732375FFF78FFE284603B030BD1C
:1024E000640C0020F7B5204B04469A7A1F4612B9B7
:1024F0004FF0FF3035E093F82450002DF8D11B7DCC
:102500004BB1431E272B03D8C0B2FFF793FF27E040
:102510002846FFF78FFF032C05D9B4F57A7F28BF33
:102520004FF47A7400E004244FF47A7696FBF4F4C6
:1025300079683A6802AB013C03F8014D087851789C
:102540000122FFF7EFFB05460028D1D19DF80730A7
:10255000013396FBF3F0044BD8814008FFF714FEDB
:10256000284603B0F0BD00BF640C002010F07003DB
:1025700073B5044601D0012301E000B94023294E80
:102580008DF80730726833681078597D01220DF19B
:102590000703FFF7C7FB354610B10023B37230E0E5
:1025A0009DF8073023F040033373660656BF0423BB
:1025B0008DF807008DF80730A10605D49DF8073087
:1025C00043F002038DF80730E20605D49DF807308A
:1025D00043F001038DF80730230705D49DF8073039
:1025E00043F038038DF807306A682B681078997DBE
:1025F00001220DF10703FFF795FB28B1094B0022DB
:102600009A724FF0FF300BE014F0F70F01D0FFF794
:10261000DBFEAC72322000242C7509F01DF9204637
:1026200002B070BD640C002073B5474C802302AD2E
:1026300005F8083D626823681078597D01226B46D1
:10264000FFF770FB064610B14FF0FF3479E00A2027
:1026500009F002F9626823688DF800601078597DEE
:1026600001226B46FFF75EFB0028EDD1626823680C
:102670001078597E06226B46FFF77EFB064600283F
:10268000E2D19DF803209DF8053002F0010203F02D
:102690000103520042EA83029DF801302B4903F006
:1026A00001031A4300F09EFF48238DF80030626852
:1026B0002368E6741078197A01226B46FFF732FB23
:1026C00005460028C0D1FF234FF6FF72A372237284
:1026D0006372E372E2812374A37484F823000123FC
:1026E00060752075294604F116000C22237384F8C6
:1026F00022300CF087FE4FF4FA6084F8245084F8FE
:102700002550E584FFF7B8FC00289DD10220FFF793
:1027100007FD002898D12A20FFF736FD002893D125
:102720003220FFF7DFFE00288ED1FFF765FD00287D
:102730008AD1FFF7D9FD0446002885D10020FFF794
:1027400015FF204602B070BD640C0020724A0108DB
:1027500073B50E46154612B94FF0FF3023E0134C07
:10276000A37A002BF8D0030A8DF804306368C0B256
:102770005A898DF8050008449042EDDC22681878EB
:10278000D17E01AB0222FFF7CDFA0028E4D16268C6
:1027900023681078197EF2B22B46FFF7C3FA003097
:1027A00018BF0120404202B070BD00BF640C002081
:1027B00073B50E46154612B94FF0FF3023E0134CA7
:1027C000A37A002BF8D0030A8DF804306368C0B2F6
:1027D0005A898DF8050008449042EDDC226818788B
:1027E000D17E01AB0222FFF79DFA0028E4D1626896
:1027F00023681078197EF2B22B46FFF7BDFA00303D
:1028000018BF0120404202B070BD00BF640C002020
:102810002DE9F04F244E87B096F825408046894632
:1028200017469A4614B14FF0FF303AE00029FAD02B
:1028300044451ED2C4EB0805102DA8BF1025ADB22B
:1028400009EB040B204629465A46FFF781FF002872
:10285000E9D12046294602AAFFF7AAFF0028E2D1C3
:10286000584602A92A460CF033FDC0B92C44A4B244
:10287000DEE73B0A8DF80430726833688DF8057026
:102880001078597F022201AB074CFFF74BFA002862
:10289000C9D1012384F82530A4F826A001E06FF007
:1028A000010007B0BDE8F08F640C002037B51C4C68
:1028B000054694F8243083422CD0D8B194F82530C2
:1028C00053B30020FFF79CFA0020FFF70DFDE08CCA
:1028D000FFF708FE0025626802AB03F8015D10787F
:1028E00023210122FFF71EFA012084F82400FFF7BC
:1028F00087FA0DE0FFF784FA227C02AB03F8012D82
:102900006268232110780122FFF70CFA84F8245022
:10291000FFF700FB002001E04FF0FF3003B030BDB7
:10292000640C00201FB5084A01AB10685168127A88
:1029300003C309211A704FF4976001AAFFF708FF3B
:1029400005B05DF804FB00BFC049010840F6F63051
:1029500002494FF48062C823FFF75ABF284B010891
:1029600010B5504B86B09A7819888DF80A201A460F
:10297000ADF8081032F8031F04469278ADF80C1039
:102980008DF80E201A4632F8061F9278ADF8101016
:102990008DF8122033F8092F00F003019B7806A868
:1029A0000144ADF814208DF81630C4F3C10211F8BB
:1029B000103C02448DF8003012F8103C11F80C1C49
:1029C0008DF80130C4F38113034413F8100C12F88E
:1029D0000C2C13F80C3C8DF802008DF804108DF8C7
:1029E000052040F2264003216A468DF80630FFF7A5
:1029F000AFFE10B14FF0FF3051E040F22A4003210A
:102A000001AAFFF7A5FE0028F4D1049B6107ADF8E9
:102A100000304FEA13438DF80230059BADF80430C7
:102A20004FEA13438DF806300BD59DF8003043F084
:102A300001038DF800309DF8043043F001038DF858
:102A40000430A2060BD59DF8013043F001038DF848
:102A500001309DF8053043F001038DF80530E305A2
:102A60000BD59DF8023043F001038DF802309DF83C
:102A7000063043F001038DF806304FF488600321DF
:102A80006A46FFF765FE0028B4D140F231400321C9
:102A900001AAFFF75DFE0028ACD1034B1C8106B0F4
:102AA00010BD00BFC94901086000002010B5164ADA
:102AB000044686B01068516803AB03C39068C82C05
:102AC000186002D94FF0FF301CE0C82393FBF4F3E9
:102AD000013B9BB21A0A8DF8042040F21620022115
:102AE00001AA8DF80530FFF733FE0028EAD10C214A
:102AF00040F6C1200DEB0102FFF72AFE0028E1D1CC
:102B0000024B9C8106B010BDD54901086000002031
:102B100073B50646700700F09180B1F5C86F00F2FA
:102B20008D800846FEF7D2F84649FEF7DBF90446E9
:102B30000DF10300FFF7D8FA9DF80330042B1CD0E9
:102B40000CD8022B7AD14FF08D412046FEF716F9B2
:102B5000FEF700FB3C4985B2204623E0082B17D046
:102B6000102B6BD14FF08A412046FEF707F9FEF794
:102B7000F1FA364985B2204614E04FF08C412046E8
:102B8000FEF7FCF8FEF7E6FA314985B2204609E087
:102B90004FF08B412046FEF7F1F8FEF7DBFA2D49A6
:102BA00085B22046FEF7EAF8FEF7D4FA2A0A80B288
:102BB0008DF80420020A8DF80620F2078DF80550E2
:102BC0008DF8070002D4B30720D510E04FF4EA7067
:102BD000022101AAFFF7BCFD80BB4FF492700221D5
:102BE0000DF10602FFF7B4FD0028ECD026E04FF40B
:102BF000EC70022101AAFFF7ABFDF8B94FF4947015
:102C000002210DF10602FFF7A3FDB8B906F0040694
:102C100006F0FF00A6B14FF4EE70022101AAFFF703
:102C200097FD58B94FF4967002210DF10602FFF797
:102C30008FFD003018BF0120404201E04FF0FF300F
:102C400002B070BD00004843000040460000C04490
:102C50000000C0450000404507B510F0010318BF53
:102C6000302382078DF8073005D59DF8073043F0F3
:102C70000C038DF80730430705D59DF8073043F066
:102C800003038DF8073001210DF107024FF4A47002
:102C9000FFF75EFD03B05DF804FB07B518B104282B
:102CA00028BF042000E0012002AA013802F8010D2B
:102CB000012140F24F10FFF74BFD03B05DF804FB1C
:102CC00007B50523B0FBF3F0030A8DF805000221D8
:102CD00001AA4FF4EF708DF80430FFF739FD03B00F
:102CE0005DF804FB07B50523B0FBF3F0030A8DF88C
:102CF0000500022101AA4FF4ED708DF80430FFF7B2
:102D000027FD03B05DF804FB4FF47A7307B590FB21
:102D1000F3F041430B168DF804300B148DF8053099
:102D20008DF807100B1204210DEB01024FF4AE7069
:102D30008DF80630FFF70CFD03B05DF804FB07B516
:102D40000523B0FBF3F0030A8DF80500022101AA68
:102D50004FF4AD708DF80430FFF7FAFC03B05DF866
:102D600004FB07B50523B0FBF3F0030A8DF805005B
:102D7000022101AA4FF4AC708DF80430FFF7E8FC93
:102D800003B05DF804FB00001FB510B1FFF7CAFDEA
:102D90000CE0084A01AB10685168127A03C34FF483
:102DA00097601A70092101AAFFF7D2FC05B05DF8FF
:102DB00004FB00BFE149010807B560B1C0238DF8ED
:102DC0000430C2238DF80530C4238DF80630C623A5
:102DD0008DF8073002E04FF08B33019304210DEBA7
:102DE000010240F69820FFF7B3FCFFF793F803B019
:102DF0005DF804FB07B560B120238DF8043028236B
:102E00008DF8053030238DF8063038238DF80730E3
:102E100002E04FF0A333019304210DEB010240F6D1
:102E20009E20FFF795FCFFF775F803B05DF804FBF3
:102E30002DE9FF4102238DF80430CA2304468DF8A2
:102E400005300421E3238DF80630682009230DEBBB
:102E5000010204F040058DF80730ADB2FFF778FCB1
:102E6000A3238DF804303DB1C0238DF80530C8236D
:102E70008DF80630C22303E08DF805308DF806305A
:102E800014F4C0768DF8073007D0C4238DF80830CD
:102E9000CC238DF80930C62304E0A3238DF8083035
:102EA0008DF809308DF80A300A21A32301AA40F6D3
:102EB000A7208DF80B308DF80C308DF80D30FFF712
:102EC00047FC14F0030814BF2023D82340F6B62093
:102ED000012101AA8DF80430FFF73AFC04F020002C
:102EE00080B210B1FFF71EFD01E0FFF74DFFFEB10C
:102EF000E1050AD5B2238DF804308B238DF8053017
:102F0000B6238DF806309B2309E0B0238DF80430FA
:102F100080238DF80530B4238DF8063090230421EA
:102F200040F6A2200DEB01028DF80730FFF710FCF0
:102F3000E20724D5F82301AA01214FF40B608DF894
:102F40000430FFF705FCFA210720FFF7E1FD072019
:102F5000FFF782FE0120FFF7A0FE6420FFF7B0FE1E
:102F60004FF4FA70FFF7BEFEC8212648FFF7CCFEEB
:102F70002820FFF7E4FE0A20FFF7F3FE08E0D8233D
:102F80004FF40B60012101AA8DF80430FFF7E0FB3C
:102F9000A3074CBFD923D82340F23D70012101AAD9
:102FA0008DF80430FFF7D4FB04F0040080B200B1C8
:102FB0000120FFF701FF04F0100080B200B10120F2
:102FC000114FFFF717FF44F008037B81FEF7A2FFC4
:102FD0003B460DB9BD7301E00622BA7316B19A7B68
:102FE00006329A7314F0140F02D09A7B10329A733F
:102FF000B8F1000F02D09A7B04329A73002004B01B
:10300000BDE8F08109E3CA02600000202DE9F04F1D
:1030100089B0129C6A4F9846002381468A4616461C
:103020002380B87B6946139AFFF710F9BB46054623
:10303000002840F0BE807F8917F0140F56D09DF80D
:1030400001109DF80030090441EA03619DF8033046
:103050009DF8050019439DF80230000441EA032160
:103060009DF804309DF8092040EA03609DF8073080
:10307000120418439DF80630316040EA03209DF8A1
:103080000830706042EA036200149DF80B30404340
:103090001A439DF80A30091442EA03229DF80D30C4
:1030A0009DF80CE001FB01011B0443EA0E639DF84F
:1030B0000FE0B260121443EA0E0302FB02129DF805
:1030C0000EE043EA0E23F3601B1403FB032303F11A
:1030D0007143B3F1007F03D9FEF71CFF258068E040
:1030E0002388102243F48073238000E00246780690
:1030F0001FD508AE164416F8201C16F81F3C0632E1
:1031000043EA0123AAF8003016F81E1C16F81D3CED
:10311000D2B243EA0123AAF8023016F81C1C16F8B2
:103120001B3C43EA0123AAF80430238843F0080338
:10313000238017F4C07F1FD008A9114411F8200C78
:1031400011F81F3C063243EA0023A9F8003011F8B9
:103150001E0C11F81D3CD2B243EA0023A9F802303C
:1031600011F81C0C11F81B3C43EA0023A9F80430A9
:10317000238843F070032380B90716D000AE1644AD
:103180007378F478DA0708D5DBF800302BB104F057
:103190000701C4F3C2000131984773781B0704D5B7
:1031A000DBF804300BB1A00998474046FEF7B0FEAB
:1031B00001E04FF0FF35284609B0BDE8F08F00BFB1
:1031C000600000202DE9F84F2E4B1446182202FB18
:1031D00000320546D06A894600F00300022898466E
:1031E0000BD0916A536ACB1A013B44BF126A9B18F9
:1031F0009C4202DD002843D01C46002C3FD04FF0FB
:10320000000A182202FB05839F6A596A7F1A013F50
:1032100044BF1B6AFF1802FB058303F120025168BB
:103220001B6A591A8F42A8BF57684946A8BFC7EB07
:103230000307182303FB058B05FB03334344DBF82B
:1032400024205868A742A8BF274610443A46FEF7F4
:103250006BFADBF82430BA44B944E41B1F44CBF8C2
:103260002470DBF82030DBF824209A4204BF0023CE
:10327000CBF82430002CC4D15046BDE8F88F20464E
:10328000BDE8F88F700000208368426810B5934253
:10329000044606DA0268D15401338360C3680133FF
:1032A000C360A26863689A420CD120692168FFF765
:1032B00089FFA368984203D04FF0FF33E36010BD4D
:1032C0000023A36010BD00002DE9F84F0A9C1D46A5
:1032D0000B9B904606460F460A464FF001094245B1
:1032E00004D3B2FBF8F209F10109F8E7A94538BFA8
:1032F000A94613F0010A01D11CB900242B4601256F
:103300001BE09B0706D5002D0CBF4FF0300B4FF094
:10331000200B04E04FF0200B01E0002CEDD0234601
:10332000994504F1FF34E9D230465946FFF7ACFF26
:10333000F368002BF1DABDE8F88FB7FBF5F24245F0
:1033400034BF00220122012BC8BF42F00102013B21
:103350002AB108FB05F5F0E7B5FBF8F55DB10E4ABB
:10336000B7FBF5F3D15C304605FB1377FFF78CFF15
:10337000F368002BF0DABAF1000F0BD054B1A1457D
:1033800008D230462021FFF77FFFF368002B01DBD6
:10339000013CF4D1BDE8F88F275701082DE9F04F23
:1033A00099B008AB0393402304930023824616464A
:1033B0000593079006934F1C097821B9069B002BB3
:1033C00000F302810AE1252940F0F58000253A4604
:1033D000137801372B2B0FD004D8232B0FD145F0B6
:1033E0000805F4E72D2B04D0302B08D145F0020559
:1033F000EDE745F00105EAE745F00405E7E70024BD
:10340000174612F8013BA3F13001092904D80A211B
:1034100001FB0434303CF3E72E2B0FD17A1C4FF024
:103420000009174612F8011BA1F13000092807D83E
:103430000A2000FB0913A3F13009F2E74FF000095D
:103440003A7802F0FB01682902D117F8012BF8E75E
:10345000642A28D00AD8582A00F09280632A1CD007
:10346000252A40F0A68003A81146A0E0732A00F0A8
:1034700090800DD8702A40F09C8032680021131D86
:103480003360082300930191116803A8102274E0AF
:10349000752A69D0782A73D08BE0336803A81A1D87
:1034A0003260197883E032684FF0010BD2F8008067
:1034B000111D316088EAE872A2EBE872092A05D989
:1034C0000A21B2FBF1F20BF1010BF7E7CB4538BF54
:1034D000CB462CB1B8F1000F01DB680700D5013CE9
:1034E000A90702D5B9F1000F11D0EA070FD40CB922
:1034F00000240CE02246934504F1FF3407D203A8D0
:103500002021FFF7C1FE069A002AF0DA51E0B8F157
:10351000000F04DAC8F1000803A82D2103E06B07AF
:1035200006D503A82B21FFF7AFFE069A002A40DB41
:1035300005F00302022A12D1B9F1000F0FD10CB924
:1035400000240CE02246934504F1FF3407D203A87F
:103550003021FFF799FE069A002AF0DA29E08DE87B
:10356000300003A8414606E032688DE83000111DA6
:103570003160116803A80A224B46FFF7A5FE18E048
:1035800032688DE83000111D316003A811681022E7
:10359000F2E733681A1D32601C6814F8011B41B150
:1035A00003A8FFF771FE069B002BF6DA01E0FFF798
:1035B0006BFE013702E003A8FFF766FE069B002BB7
:1035C000FFF6FCAE3946F6E6059A1AB1504608A950
:1035D000FFF7F8FD069A059B13440693069819B069
:1035E000BDE8F08F0EB403B503AB53F8041B02AA79
:1035F00042F8043DFFF7D2FE02B05DF804EB03B0E1
:103600007047000010B5AE4C6521AE4808F021FFB0
:1036100014F8011B0029F8D1AB4C5321A94808F03C
:1036200018FF14F8011B0029F8D10A21A548A44C61
:1036300008F00FFF6521A34808F00BFF14F8011BE9
:103640000029F8D1A14CA248216801F067F961680E
:10365000A04801F063F9A1689F4801F05FF9E168B3
:103660009E4801F05BF99E49964808F095FD944C00
:103670000A21944808F0EDFE6521924808F0E9FE21
:1036800014F8011B0029F8D1964C53218D4808F0FD
:10369000E0FE14F8011B0029F8D10A218948884C62
:1036A00008F0D7FE6521874808F0D3FE14F8011B07
:1036B0000029F8D18C4C8D48216801F02FF9616800
:1036C000844801F02BF9A168834801F027F9844967
:1036D0007C4808F061FD7A4C0A217A4808F0B9FE6E
:1036E0006521784808F0B5FE14F8011B0029F8D1CF
:1036F0007F4C4D21734808F0ACFE14F8011B0029E3
:10370000F8D10A216F486E4C08F0A3FE65216D4880
:1037100008F09FFE14F8011B0029F8D1754C76487B
:10372000216801F0FBF861686A4801F0F7F8A168C8
:10373000694801F0F3F8E168684801F0EFF868497A
:10374000604808F029FD5E4C0A215E4808F081FEC1
:1037500065215C4808F07DFE14F8011B0029F8D1B2
:10376000664C4D21574808F074FE14F8011B0029DF
:10377000F8D10A215348524C08F06BFE652151489C
:1037800008F067FE14F8011B0029F8D15C4C5D4875
:10379000216801F0DDF861684E4801F0D9F8A168B0
:1037A0004D4801F0D5F8E1684C4801F0D1F84C499A
:1037B000444808F0F1FC424C0A21424808F049FE16
:1037C0006521404808F045FE14F8011B0029F8D196
:1037D0004D4C41213B4808F03CFE14F8011B0029E8
:1037E000F8D10A213748364C08F033FE65213548B8
:1037F00008F02FFE14F8011B0029F8D1434B444870
:10380000196801F08BF8434B4348196801F086F8BA
:1038100033492C4808F0C0FC294C0A21294808F0FB
:1038200018FE6521274808F014FE14F8011B002932
:10383000F8D13A4C4121234808F00BFE14F8011B43
:103840000029F8D10A211F481D4C08F002FE65210D
:103850001C4808F0FEFD14F8011B0029F8D1304B7C
:103860003048196801F05AF82F4B2B48196801F0BD
:1038700055F82E4B2E48196801F06AF82D4B2E484A
:10388000196801F04BF82D4B1348196801F046F800
:103890002B4B1248196801F041F81149094808F00A
:1038A0007BFC074C0A21074808F0D3FD6521054839
:1038B00008F0CFFD14F8011B0029F8D142E000BF49
:1038C000185901080434002038570108BC32002080
:1038D000475701084F57010852570108555701082B
:1038E000D2600108595701082001002069570108DA
:1038F00073570108CC3200208C57010896570108F5
:10390000A4320020B3570108BD570108202D002024
:10391000F157010884320020FA570108FE570108C8
:103920008C320020B05801081C2D00208832002065
:10393000B9580108A0320020B9570108B832002058
:10394000182D0020344C4821344808F082FD14F82A
:10395000011B0029F8D10A213048314C08F079FDCB
:1039600065212E4808F075FD14F8011B0029F8D1D7
:103970002C4C2D48216800F0D1FF61682B4800F0E5
:10398000CDFFA1682A4800F0C9FF2A49234808F062
:1039900003FC234C0A21214808F05BFD65211F48E8
:1039A00008F057FD14F8011B0029F8D1224C5021D2
:1039B0001A4808F04EFD14F8011B0029F8D10A211D
:1039C0001648174C08F045FD6521144808F041FDE4
:1039D00014F8011B0029F8D1184B1948196800F098
:1039E0009DFF184B186806F0FFF80146164800F0D6
:1039F00095FF164B186806F017F90146144800F0B9
:103A00008DFF0C49054808F0C7FBBDE8104003488E
:103A10000A2108F01EBD00BFBD5801080434002073
:103A200018590108BC010020CE5801084F57010861
:103A300052570108D2600108D858010878020020C6
:103A4000E55801088C020020EF580108840200208C
:103A5000F2580108F0B5354C8DB094E80F0004AE73
:103A60008DE80F0008AD04F1100320340FCB6F4632
:103A700086E80F0094E80F0085E80F000023F9584E
:103A80002B4A4FF07E549950F1582A4A9950EA58DF
:103A900029495A50294A9C500433102BEFD104F085
:103AA00077FE274A274B44F620611A60264A274BA7
:103AB00027481A60274A00231360274A1160274AC3
:103AC00027491360274A0A6027490A6027490A6084
:103AD000274A936053601360264A274B1A6006F00A
:103AE00073F8264B1860264806F08EF8254B1860B0
:103AF00006F01AF8244B65211C60244C244808F079
:103B0000A8FC14F8011B0029F8D1224C48212048B8
:103B100008F09FFC14F8011B0029F8D11C480A2169
:103B20000DB0BDE8F04008F094BC00BF004A0108A9
:103B3000BC320020CC320020A43200202001002022
:103B400000009643202D002000007A44843200209B
:103B50000AD713408C320020883200201C2D002010
:103B6000A03200200000A041B8320020182D002013
:103B7000BC010020295CC741780200208C02002093
:103B80007B94864284020020B0020020185901086C
:103B900004340020F658010810B50B4C0A2001210E
:103BA00007F09AFF2046012106F044FE204602213C
:103BB00006F058FE2046282106F07CFE2046BDE88F
:103BC000104006F08BBE00BFDC33002013B50A2086
:103BD000002107F0B9FF3A211A4806F091FE194872
:103BE000002106F08DFE00241648002106F088FE14
:103BF0000DF804000134052CF6D10A20012107F04C
:103C0000A3FF9DF801209DF8003003EB02239DF8EF
:103C1000022003EB02439DF8032003EB02630A4AF0
:103C200013600A4A1068181AFCF702FC0022084BBD
:103C3000FCF78EFD0022074BFCF760FCFCF740FF11
:103C400002B010BDDC330020A4100020E8000020EA
:103C5000004075400000224013B50A20002107F003
:103C600073FF3A210E4806F04BFE0D48002106F086
:103C700047FE00240A48002106F042FE0DF8040029
:103C80000134052CF6D101210A2007F05DFF9DF8D3
:103C90000400003018BF0120FDF718F802B010BD75
:103CA000DC33002010B50A200C4C012107F014FF72
:103CB0003920012107F010FF2046012106F0BAFD4E
:103CC0002046022106F0CEFD2046282106F0F2FD16
:103CD0002046BDE8104006F001BE00BFDC330020E6
:103CE00010B50D4C0A20002107F02EFF2046A5211B
:103CF00006F006FE2046FF2106F002FE20460021C7
:103D000006F0FEFD2046002106F0FAFDBDE8104059
:103D10000A20012107F018BFDC33002010B50D4C3C
:103D20000A20002107F010FF2046A52106F0E8FD3B
:103D30002046002106F0E4FD20467F2106F0E0FD4C
:103D40002046002106F0DCFDBDE810400A200121DC
:103D500007F0FABEDC33002010B50D4C0A2000211C
:103D600007F0F2FE2046A52106F0CAFD20460021FC
:103D700006F0C6FD2046002106F0C2FD2046FF21C8
:103D800006F0BEFDBDE810400A20012107F0DCBEB0
:103D9000DC33002010B50D4C0A20002107F0D4FEC2
:103DA0002046A52106F0ACFD2046FF2106F0A8FD27
:103DB00020467F2106F0A4FD2046002106F0A0FD4C
:103DC000BDE810400A20012107F0BEBEDC33002010
:103DD00008B50121392007F0B7FE322007F03CFD7D
:103DE000BDE808403920002107F0AEBE10B5094CEF
:103DF0000A20002107F0A8FE20469E2106F080FD43
:103E00002046002106F07CFDBDE810400A2001217B
:103E100007F09ABEDC33002008B5094BC021B3F986
:103E2000002008484A43084B00689918411A01319C
:103E30008818184400210DF05FF8FCF741FE08BD1A
:103E4000A6010020D82C0020AE100020084BC02175
:103E5000B3F9002007484A43074B00689918411AF4
:103E600001318818184400210A220DF0D7B800BF8C
:103E7000A6010020D82C0020AE10002008B5084B69
:103E80000146B3F90020074BC02000FB02300BF0C5
:103E90001FFD054B1860003018BF012008BD00BF92
:103EA000A6010020AE100020D82C00202DE9F04102
:103EB00000242546194B1A4E585DFFF7DFFF194FB6
:103EC000A0B1FFF7A9FF184B8046EB5C13B9174B65
:103ED000187800E00120FCF7FDFE3959FCF74EFF91
:103EE00001464046FCF742FE305101E03B59335158
:103EF0000135042D04F10404DCD14620FFF7BEFF98
:103F000050B1FFF789FF0A4B002118600446FDF706
:103F1000F1F808B1074B1C60BDE8F0818D5901082C
:103F2000C80100204401002032010020300100209F
:103F3000D42C0020F80100202DE9F843264F274D0E
:103F4000044639682868FCF711FE064631462068A9
:103F5000FDF7B2F8B94600B12660214F68683968AC
:103F6000FCF704FE064631466068FDF7A5F800B18F
:103F700066601C4EA8683168FCF7F8FD05462946C6
:103F8000A068FDF799F8B04600B1A560164DD9F8C4
:103F900000102868FCF7EAFD064631462068FDF768
:103FA000A9F800B1266039686868FCF7DFFD0646AD
:103FB00031466068FDF79EF800B16660A868D8F8E1
:103FC0000010FCF7D3FD05462946A068FDF792F8DE
:103FD00000B1A560BDE8F88314010020A80100200D
:103FE000180100201C010020D80100200000000062
:103FF0002DE9F74F82464068FCF72CFA64A3D3E919
:104000000023FCF7A5FB02460B4663A1D1E90001A2
:10401000FCF7C0F8FCF754FDFCF71CFA06460F4607
:1040200008F016FD0446DAF808000D46FCF712FA0F
:1040300057A3D3E90023FCF78BFBFCF741FDFCF70A
:1040400009FA8046894608F003FDCDE900013046B3
:10405000394608F04BFE06460F464046494608F0F2
:1040600045FE4FA3D3E900238046894630463946B2
:10407000FCF744FA4CA3D3E9002306460F4640461A
:104080004946FCF73BFA02460B4630463946FCF7F8
:1040900081F8474B064618680F46FCF7DBF90246E5
:1040A0000B4630463946FCF777F8FCF709FD3CA390
:1040B000D3E90023064629462046FCF71FFA3AA317
:1040C000D3E9002304460D46DDE90001FCF716FAAA
:1040D00002460B4620462946FCF75EF800220023E4
:1040E000FCF75AF80022334BFCF756F8FCF7E8FCD3
:1040F000FCF7B0F90446DAF800000D46FCF7AAF91F
:1041000023A3D3E90023FCF723FBFCF7D9FCFCF73E
:10411000A1F982468B4608F09BFC02460B462046DE
:104120002946FCF7EBF9244B804618688946FCF7D2
:1041300091F902460B4640464946FCF72DF8FCF73C
:10414000BFFC1E4F59463860504608F0CFFD02466E
:104150000B4620462946FCF7D1F9194B044618684E
:104160000D46FCF777F902460B4620462946FCF738
:1041700013F8FCF7A5FC134B786019683046FCF780
:10418000F5FCB86003B0BDE8F08F00BFAFF300806E
:10419000E3A9471ADCA54C40182D4454FB21F93FF4
:1041A0000000000000E0604000000000006062408D
:1041B000380100200040504014010020E801002098
:1041C000180100201C0100202DE9F04F804B85B024
:1041D000044619680068FCF7C7FC7E4B81461968E5
:1041E0006068FCF7C1FC7C4B06461968A068FCF7C8
:1041F000BBFC494680464846FCF7C0FD31460446B4
:104200003046FCF7BBFD01462046FCF7AFFCFCF74F
:1042100021F908F079FE044630460D46FCF71AF9FC
:10422000064648460F46FCF715F902460B4630464F
:10423000394608F067FE694BCDE900011968404630
:10424000FCF792FC0021FCF791FC294680462046B1
:10425000FCF736FC6249FCF787FC01468146FCF717
:104260008DFD414604464046FCF788FD0146204648
:10427000FCF77CFCFCF7EEF808F046FEFCF720FCAF
:10428000494604464046FCF72DFEFCF7E3F808F0EB
:10429000A7F906460F4620462146FCF76FFD514917
:1042A000FCF764FC5049FCF75FFC5049054620468A
:1042B000FCF764FD01462846FCF714FEFCF7CAF83B
:1042C00008F078FD04460D4630463946FCF7F8FB09
:1042D000FCF7C0F802460B4620462946FBF75CFF78
:1042E000FCF7EEFBFCF7B6F804460D4608F0FEFCC2
:1042F00006460F462046294608F0AAFB30A3D3E91C
:10430000002382468B4630463946FCF7F7F80646CE
:1043100040460F46FCF79EF802460B4630463946AB
:10432000FBF738FFCDE902014846FCF793F824A3D8
:10433000D3E9002306460F4650465946FCF7DEF8FF
:1043400002460B4630463946FBF724FF02460B4631
:10435000DDE9020108F0D6FD1BA3D3E900230646E0
:104360000F4620462946FCF7C9F802460B460020B6
:104370001F49FBF70FFFFCF7A3FBDFF878803946F6
:10438000C8F804003046FCF79BFBFCF763F80EA36B
:10439000D3E90023FCF7B2F8FCF792FB0AA3D3E9B8
:1043A0000023C8F80800DDE90001FCF7A7F8FCF7D6
:1043B00087FBC8F8000005B0BDE8F08FAFF30080C0
:1043C0000000000000E06040E3A9471ADCA54C4073
:1043D00014010020180100201C01002038010020D9
:1043E0000000824200628E4600D2A8460000874349
:1043F00000805640E80100202DE9F04F8A4BDFF89D
:1044000070824FF0000989B0064613F800A008F149
:10441000080248F8209008F10401404608F10C0316
:1044200004F054F9814B4FFA8AFA53F82600FCF74E
:1044300011F800227E4BFCF761F8044650460D4609
:10444000FBF7F6FF02460B4620462946FCF756F8D6
:10445000FCF736FB774FDFF81CC247F82600764D95
:104460005CF8260075492860CDF80CC0FCF73AFDD1
:10447000734C391D07F1080207F10C0300900194F9
:10448000384604F09DF905F075FA08F1080208F1C4
:104490000401404608F10C0348F8269004F016F990
:1044A000684B504653F826B0FCF714FC8246514640
:1044B0000BF10040FCF762FC0146FCF757FB5F493B
:1044C00047F826002868FCF70DFD07F1080207F100
:1044D0000C03391D00900194384604F071F905F081
:1044E00049FA59465846FCF741FB5146FCF746FC51
:1044F000DDF80CC047F826004FF07C515CF8260030
:10450000FCF73CFC50492860FCF7ECFCDFF868B194
:10451000391D07F1080207F10C0300900194384699
:1045200004F04EF905F026FA5BF826105046FCF729
:1045300025FC4946FCF7C0FDE0B108F10802404601
:1045400008F1040108F10C0304F0C0F85BF8263010
:10455000286847F826303D49FCF7C4FC391D009017
:1045600007F10802384607F10C03019404F028F91A
:1045700005F000FA012E364CDFF800B1354DDFF8BA
:10458000009129DC3449DFF8FCA00591334905A8E6
:10459000069133490791FFF717FEDAF8000021680A
:1045A000FCF7E2FA6168CAF80000DAF80400FCF7E8
:1045B000DBFACAF804005046FFF71AFD55F826202A
:1045C0005AF826104BF8262059F82630254A48F884
:1045D000261042F8263018E054F82640224951F8B7
:1045E00026002146FCF7C2FA214648F8260055F875
:1045F0002600FCF7BBFA21464BF8260059F82600A6
:10460000FCF7B4FA174B43F8260058F826300A4A4C
:1046100047F826300023136004F08AFE134B012272
:104620009A5509B0BDE8F08F8A590108645901080C
:104630000000F83FC8010020F8010020000070428F
:1046400031010020945901080000F0420000A0410F
:10465000BC010020CC5D0108000016C30000C8C2E8
:1046600000004843D80100202059010878010020AB
:1046700044010020880100207C010020A8010020C6
:1046800078590108E80100202DE9F04F884889B0E9
:10469000FFF752FC07F0DAF8864B00261860844DCD
:1046A000854C70593159FCF75FFA0DF1100B4BF83E
:1046B00006000436102EF2D10498DDF8148001466D
:1046C000FCF75CFB414606464046FCF757FB0146BB
:1046D0003046FCF74BFA069F064639463846FCF74B
:1046E0004DFB01463046FCF741FAFBF7B3FE08F0FC
:1046F0000BFCFCF7E5F90646FBF7ACFE6AA3D3E931
:104700000023FCF76DF938B1079E00213046FCF715
:10471000F1FC08B906F100463046FBF79BFE62A3A8
:10472000D3E90023FCF75CF9002840F0BA80DFF8F9
:10473000C88130466149FCF721FBD8F80010FCF72E
:10474000D1FB5F4E0746B6F90000FCF7C3FA0146FD
:104750003846FCF7C7FB5B49FCF710FBFCF7D4FCC1
:104760000128B8BF012080B203900127039B38B213
:104770001EB2B04200F38D80FCF7ACFA80463046A2
:10478000FCF7A8FA01464046FCF7ACFB0026804641
:104790005BF806104046FCF7F1FA0146A059FCF719
:1047A000E5F9A8510436102EF2D1474E4048FFF7E4
:1047B0000BFDD6F8009045494846FCF79BFCDFF816
:1047C0004C8168BB48464249FCF776FC40BBD6F8B2
:1047D00004A040495046FCF78DFC08BB50463E49BA
:1047E000FCF76AFCE0B9D6F808903A494846FCF76D
:1047F00081FCA8B948463949FCF75EFC80B93549C7
:104800005046FCF7B3F94946FCF7AEF93449814606
:10481000FCF770FC20B948463249FCF74DFCD0B19A
:1048200098F80020304B314C1A703148032388F837
:104830000030304DFFF7CCFA23684FF4FA702B604C
:1048400007F00AF82B684FF4FA70236009B0BDE84E
:10485000F04F07F001B81A4B88F80000B3F90000D8
:10486000FCF738FA244B01371968FCF787FA23491B
:10487000FCF738FB2249FCF735FB224B00900193F3
:104880003046311D06F108021F4B03F099FFBFB2FD
:104890006CE72B6823606B686360AB68A360EB68B0
:1048A000E36009B0BDE8F08F8DEDB5A0F7C6B03E6E
:1048B000C8010020F4000020440100200080BB4516
:1048C0009801002000004842E80100200000FA4260
:1048D0000000FAC20000B442000040C0000070C1F5
:1048E000000011430000A0417B010020C02C0020EB
:1048F000B41C00209C010020F80100200000704240
:104900000000C84231010020D4010020F60100203F
:10491000014B1878704700BFA201002037B50D4643
:104920000178044629B1094807F093FD14F8011FE6
:10493000F8E72846FBF78EFD0B4602210246009160
:10494000024807F03BFD03B030BD00BF0434002037
:1049500038B50D4601780446064821B107F079FDC7
:1049600014F8011FF8E729460A22BDE8384007F08D
:1049700070BC00BF043400202DE9F0438BB003F07D
:104980007DFA0021102206A80AF03CFD784806A90D
:104990004FF47022102304F04FFC069808F0F0F951
:1049A000002700B90697079808F0EAF900B90797B9
:1049B000089808F0E5F910B94FF07E53089309986C
:1049C00008F0DEF910B94FF07E530993694B6A4E37
:1049D000196808983760FCF7D1F90699FCF7C6F812
:1049E000664B0546196870600998FCF7C7F9079986
:1049F000FCF7BCF8624CB060A060204665602760A0
:104A0000604DFFF7F5FA2368DFF8A8912B60636823
:104A100004F108026B60A3682046AB603368211D77
:104A2000236073686360B368A36005F10C0303F04F
:104A30004DFED9F80000A968FCF796F800218046E1
:104A4000C9F800000C2203A80AF0DCFC4E4B03A9B5
:104A50001B684FF46F2203934C4B45481B68CDF8FD
:104A6000148004930C2304F021FCDFF84C811E20F9
:104A700006F0F2FE2046C8F80070FFF7B9FA236886
:104A8000211D2B60636820466B60A36804F1080257
:104A900003F10043C8F800303368AF6023607368E7
:104AA0006360B368A36005F10C03394C03F00EFE9C
:104AB0005821384807F0CDFC14F8011B0029F8D123
:104AC0002868FBF7C7FC0B460221024600913148DB
:104AD000314C07F073FC20212E4807F0BAFC14F883
:104AE000011B0029F8D16868FBF7B4FC0B460221D2
:104AF000024600912748294C07F060FC20212548F8
:104B000007F0A7FC14F8011B0029F8D1A868FBF7EF
:104B1000A1FC0B460221024600911E48204C07F0E2
:104B20004DFC20211B4807F094FC14F8011B0029C0
:104B3000F8D1E868FBF78EFC0B4602210246009193
:104B4000144807F03BFC1749124807F025FB02A860
:104B5000FFF722F802A8FFF739F8134B1860134843
:104B6000FFF736F9124B01221A700BB0BDE8F08343
:104B7000BD1C002010020020BC0100200802002003
:104B8000E801002044010020140100201801002049
:104B90005861010804340020A1590108A5590108F1
:104BA000A9590108D060010840010020B41C002070
:104BB000360100201C010020380100202DE9F043BF
:104BC00089B003F05BF90021102204A80AF01AFC56
:104BD0007C4804A94FF47022102304F02DFB0498A4
:104BE00008F0CEF808B900230493059808F0C8F837
:104BF00008B900230593069808F0C2F810B94FF0E1
:104C00007E530693079808F0BBF810B94FF07E5317
:104C1000079303A8FEF7C0FF03A8FEF7D7FF6A4B70
:104C20006A4F1968FBF7A0FF694B80461968386026
:104C30000698FCF7A3F80499FBF798FF654B78609A
:104C4000196806460798FCF799F80599FBF78EFF57
:104C5000614CB860A0600546C4F8008066604046BC
:104C60005E49FCF747FAB9465D4F48BB40465D498F
:104C7000FCF722FA20BB30465B49FCF73BFAF8B957
:104C800030465A49FCF718FAD0B928465649FCF77D
:104C900031FAA8B928465649FCF70EFA80B95249AC
:104CA0003046FBF763FF2946FBF75EFF5149054697
:104CB000FCF720FA20B928464F49FCF7FDF940B12E
:104CC0003A784E4B4E481A7003233B70FFF780F83A
:104CD00005E04C4B1B780BB1484B1B783B703E48B2
:104CE000FFF786F9484D23683B482B606368011D38
:104CF0006B60A36800F10802AB60D9F80030236054
:104D0000D9F804306360D9F80830A36005F10C03CA
:104D10003E4C03F0DBFC58213D4807F09AFB14F8A9
:104D2000011B0029F8D12868FBF794FB0B460221F0
:104D3000024600913648374C07F040FB20213448AA
:104D400007F087FB14F8011B0029F8D16868FBF70E
:104D500081FB0B460221024600912D482E4C07F0A4
:104D60002DFB20212A4807F074FB14F8011B0029B1
:104D7000F8D1A868FBF76EFB0B46022102460091B2
:104D80002348264C07F01AFB2021214807F061FB3D
:104D900014F8011B0029F8D1E868FBF75BFB0B4610
:104DA0000221024600911A4807F008FB1C491848E6
:104DB00007F0F2F90A21164807F04BFB09B0BDE8ED
:104DC000F08300BFBD1C002040010020BC0100207A
:104DD0001002002008020020E80100200000FA4232
:104DE000F60100200000FAC20000B442000040C0FA
:104DF000000070C1000011430000A0417B010020B1
:104E0000B41C0020A20100204401002058610108C8
:104E100004340020A1590108A5590108A959010825
:104E2000D2600108000000002DE9F84F524B1C78B9
:104E3000002C40F089805148FEF78EFF504A5149BE
:104E400093780D78002B504B0CBF2E460126D3F8DB
:104E500008B09146984663B2022B4C4F0AD13046B7
:104E6000FBF738FF5946FBF789FF4949FBF77EFE00
:104E7000B86010E019F80430002B0CBF2846012060
:104E8000FBF728FF58F82410FBF778FF0021FBF709
:104E90006DFE47F824000134042CDCD13D4C3E4B20
:104EA00000262360D8F80C30A346FB60FFF7ECFB2C
:104EB0004FF4FA7006F0D0FCFFF780FE314B00246F
:104EC00093F800A019F804202F4D002A0CBF50467B
:104ED0000120FBF7FFFE58F82410FBF74FFF0021DD
:104EE000FBF744FE47F824000134042CEAD12B4B95
:104EF000EA68CBF80030254BDA60FFF7C5FB4FF4CA
:104F0000FA7006F0A9FCFFF759FE73B2032B12DD0D
:104F1000A868FBF79FFA14A3D3E9002304460D46C3
:104F2000FBF75EFD38B12046294611A3D3E90023E3
:104F3000FBF774FD18B90136F6B2142EBED10F4836
:104F4000BDE8F84FFEF744BF154C5021154807F057
:104F500080FA14F8011B0029F8D112480A21BDE893
:104F6000F84F07F076BA00BF9A9999999999A93F95
:104F70009A9999999999A9BFA2010020B41C00207F
:104F8000320100203001002044010020C80100202F
:104F900000002041F8010020000096440000164463
:104FA000B8590108043400202DE9F04F10208DB0CD
:104FB000002106F0C9FD0A48FEF774FE3B2006F00A
:104FC000D5FD012807D04FF4E131064807F060FA1B
:104FD000054C73210AE00248FEF782FEEEE700BFAF
:104FE000B41C002004340020B7610108AF4807F06A
:104FF00030FA14F8011B0029F8D10A21AB48AC4C57
:1050000007F027FA02F0DCFB6521A84807F021FA37
:1050100014F8011B0029F8D1A64C4D21A34807F034
:1050200018FA14F8011B0029F8D1A34C31219F482C
:1050300007F00FFA14F8011B0029F8D10A219B4848
:105040009B4C07F006FA6521984807F002FA14F81D
:10505000011B0029F8D1994C2021944807F0F9F957
:1050600014F8011B0029F8D1954C44218F4807F012
:10507000F0F914F8011B0029F8D1924C20218B483B
:1050800007F0E7F914F8011B0029F8D18E4C28210C
:10509000864807F0DEF914F8011B0029F8D10A212F
:1050A00082488A4C07F0D5F94321804807F0D1F9AE
:1050B00014F8011B0029F8D1854C44217B4807F0E6
:1050C000C8F914F8011B0029F8D10A217748784C57
:1050D00007F0BFF96521754807F0BBF914F8011B0B
:1050E0000029F8D17B4C2021704807F0B2F914F860
:1050F000011B0029F8D16D480A2207F0A8F8764D67
:1051000020242146694807F0A4F915F8014B002C2A
:10511000F7D14FF4A86165480A2207F098F8634870
:105120000A2107F096F96D4B0025E5540134102C47
:10513000F9D1FEF78FFCFEF765FA05F01DFA03F0D2
:10514000D9F904F0A3FB01210D2006F0C5FC02F003
:10515000FBFE634803F0D0FF2946224608A80AF068
:1051600051F95F4808A94FF47022234604F064F80F
:10517000089807F005FE002500B90895099807F082
:10518000FFFD00B909950A9807F0FAFD10B94FF034
:105190007E530A930B9807F0F3FD10B94FF07E533E
:1051A0000B93504B0A981968FBF7E8FD0899FBF739
:1051B000DDFC4D4B804619680B98FBF7DFFD099924
:1051C000FBF7D4FC494C4A4B211D04F10802A060B6
:1051D000074620462560C4F8048003F077FA20468D
:1051E000FEF706FF00210C2205A80AF00BF93C4847
:1051F00005A94FF46F220C2304F01EF8059807F060
:10520000BFFD08B900230593069807F0B9FD00B962
:105210000695079807F0B4FD00B90795069B059819
:10522000DFF8E0B0DFF8E0A0079EDFF8E090CAF812
:1052300000300393CBF80000C9F80060FBF764FF6F
:1052400000B2039B88B91846FBF75EFF00B260B955
:105250003046FBF759FF00B238B9264BCAF8005068
:10526000CBF80030244BC9F800302068DBF8001080
:10527000FBF77CFC214EDAF8001030606068FBF729
:1052800075FCD9F800107060A068FBF76FFCB06087
:105290001B482560C4F80480A760FEF799FD3A20FA
:1052A000FF2106F029FB246832E000BF043400200F
:1052B000855901082E5A0108355A01083B5A010840
:1052C0004B5A0108605A01086C5A0108835A0108B8
:1052D0008E5A01089A5A0108A95A0108C42C0020C4
:1052E000BD1C00201002002008020020E801002060
:1052F0005001002000007AC30000C8424401002091
:10530000B41C002014010020180100201C01002002
:1053100061492046FBF7EEFE00282DD120465F496B
:10532000FBF7CAFE40BB5E4B5E495D682846FBF753
:10533000E1FE08BB28465C49FBF7BEFEE0B9584BCE
:1053400058499C682046FBF7D5FEA8B92046574926
:10535000FBF7B2FE80B953492846FBF707FC21460C
:10536000FBF702FC52490446FBF7C4FE20B9204675
:105370005049FBF7A1FE28B14F4B504A19781170E4
:1053800003221A70452000214D4C06F0A5FB3D205C
:10539000002106F0A1FB4B4821464FF46E2220234A
:1053A00003F04AFFD4E9000107F02EFC18B90022EF
:1053B0000023C4E90023D4E9020107F025FC20B949
:1053C0003F4900220023C1E90223D4E9040107F088
:1053D0001BFC20B93A4900220023C1E90423D4E987
:1053E000060107F011FC20B9354900220023C1E96C
:1053F0000623D4E902010022334BFAF7CDFE304DEB
:10540000C4E902014FF46E22294620232D4803F0FF
:105410004DFF1E2006F020FA2A4829464FF46E223E
:10542000202303F009FFD4E9000107F0EDFB18B9D0
:1054300000220023C5E90023D4E9020107F0E4FBC0
:1054400020B91F4900220023C1E90223D4E9040145
:1054500007F0DAFB20B91A4900220023C1E904232E
:10546000D4E9060107F0D0FB20B91549002200233A
:10547000C1E906231549164806F08EFED4E9022339
:1054800002210091124806F099FF0A21104806F007
:10549000E0FF0DB0BDE8F08F0000FA420000FAC254
:1054A000E80100200000B442000040C0000070C1CC
:1054B000000011430000A041F60100207B01002004
:1054C00058010020BD1C00200000F03FBF5A010819
:1054D0000434002010B506F0B9F9084B084C1860E8
:1054E0006F21084806F0B5FF14F8011B0029F8D118
:1054F00004480A21BDE8104006F0ABBFF4000020CC
:105500006F5D01080434002010B51348FEF7E8FB76
:1055100072B6124C04F048FB4521114806F099FF81
:1055200014F8011B0029F8D10E4C50210C4806F04C
:1055300090FF14F8011B0029F8D109480A2106F050
:1055400088FF332006F012FB0128FAD03A20002110
:1055500006F0D2F9F5E700BFB41C0020715901082C
:1055600004340020C95A010810B504F01DFB134B88
:105570001A780ABB01221A70114B124C1A68124B8E
:1055800045211A60114806F064FF14F8011B002938
:10559000F8D10F4C50210D4806F05BFF14F8011BA9
:1055A0000029F8D10A21094806F053FF094B0A4A9D
:1055B0001978117001221A7010BD00BFA2010020DD
:1055C000C02C0020715901089C01002004340020E7
:1055D000B8590108F60100207B0100201A4B13B5D1
:1055E0001B78FBB9194B93F90030002B2ADCFFF72D
:1055F000BBFF174800230360164B174A4360174B45
:10560000011D8360164B1A60164B00F108020093CF
:10561000154B0193154B03F0D3F802B0BDE81040D1
:1056200004F0A8B9124C5021124806F012FF14F8E9
:10563000011B0029F8D10F480A2102B0BDE8104033
:1056400006F007BF02B010BDA2010020F601002045
:10565000C80100200000A0400000484400008C4227
:10566000F80100205555554131010020500100201E
:10567000B85901080434002037B5102006F076FA36
:10568000012818D1304B1B78ABB93048FEF764FBCA
:10569000332006F06BFA012803D03A20002106F0EF
:1056A0002BF9102006F062FA0128EED0FFF786FAF7
:1056B000274B00221A70322006F058FA012801D038
:1056C000FFF75AF9332006F051FA012832D006F0DC
:1056D000BDF84FF47A75B0FBF5F0FBF7F7FAFAF77F
:1056E000B9FE1C4C02460B46D4E90001FAF754FD02
:1056F0000022194BC4E90001D4E90401FAF74CFD7A
:10570000C4E90401FFF76AFF1449154806F044FD97
:10571000022300931248D4E9002306F04FFE1148FB
:1057200021464FF46E22202303F0C0FD284606F0E8
:1057300093F804E03B2006F019FA012801D1FFF7A5
:10574000E3FE03B030BD00BFA2010020B41C002066
:1057500036010020580100200000F03FE75A010800
:1057600004340020BD1C002070B5214B214D1B7856
:10577000044654202B70FEF781FB08B9002070BD51
:10578000FEF74AFBFBF7E6FCC0B228700028F5D014
:10579000194E6521194806F05CFE16F8011B002918
:1057A000F8D16D2C11D006DC682C0BD0692C13D1EC
:1057B000124813490EE0DA2C0AD0DD2C0CD10F4828
:1057C000104907E00D48104904E00C480F4901E07A
:1057D0000A480F4906F0E0FC29780A22074806F03B
:1057E00044FD0A21054806F034FE012070BD00BFCB
:1057F00031010020AE1C002085590108043400202E
:10580000025B0108475B0108EB5A0108195B0108BC
:10581000305B010810B50D480D4C06F016FE522104
:105820000A4806F016FE14F8011B0029F8D1094BAE
:105830000A2219680548013106F0EBFC03480A21E9
:1058400006F007FEBDE81040FFF744BE0434002018
:105850005F5B0108C02C00202DE9F74FB34806F02C
:10586000D5FD002840F35F81B14FB7F900300F2B11
:1058700000F35981AD4806F0D9FDAE4BC0B20A28FD
:105880001870AD4AAD4C0AD00D2808D03A2801D185
:10589000137823B121880BB2BE2B40F331812188CC
:1058A00009B911703FE1A64DC023B5F90000DFF83A
:1058B000A8B203FB00FA09B292F800800026514416
:1058C0000BF801605E46B8F1000F40F016819A4A6D
:1058D0000BEB0A0982F800809A4A4E2102F80080F8
:1058E000484609F0F5FF002800F09D80964B4146A0
:1058F0001860C9EB0000013050440A2258440BF0F4
:105900008DFBDFF86482DFF870A2D8F80020CAF8B7
:10591000000001329042C1461CD0B5F90000C023FE
:1059200003FB00B089490AF02BFA98B9884D45214C
:105930007E4806F08EFD15F8011B0029F8D1854E32
:105940004C252946794806F084FD16F8015B002DA8
:10595000F7D156E0B5F900204FF0C00C0CFB026CFB
:105960002A2160460192CDF800C009F0B1FF019AEA
:10597000DDF800C090B300239B46C02151435FFA7D
:1059800083FE8E4416F80EE00133BEF12A0F02D0DA
:105990008EEA0B0BF1E76C4B1860CCEB000001308A
:1059A00001446D48084400210BF0A6FAFBF740F8CB
:1059B000584533D0664D45215C4806F04AFD15F840
:1059C000011B0029F8D1654E63252946574806F08A
:1059D00040FD16F8015B002DF7D112E05C4D45212A
:1059E000524806F036FD15F8011B0029F8D15C4E2F
:1059F0004E2529464D4806F02CFD16F8015B002D7A
:105A0000F7D1D9F800100A22484806F002FC0A2112
:105A1000464806F01EFDFFF7FDFE26E0DAF80030EE
:105A2000C8F8003023E048462A2109F051FFF0B1C0
:105A3000474D45213D4806F00CFD15F8011B002996
:105A4000F8D1484E4E252946384806F002FD16F892
:105A5000015B002DF7D1444B344819680A2206F047
:105A6000D8FB32480A2106F0F4FC25805BE0B5F94A
:105A700000304FF0C00808FB03F806EB0809484661
:105A8000472109F025FFF8B12F4B00211860C9EB21
:105A9000000001308044304840440BF02DFAFAF702
:105AA000C7FF032810D8314B1B786BB1DFF8CC80CF
:105AB00050211E4806F0CDFC18F8011B0029F8D132
:105AC0001A480A2106F0C5FCB5F90050C02000FBB9
:105AD00005602749FBF79EFE08B9FFF715FD254B2A
