:020000040800F2
:1000000008E90020A90F000851340008B30F0008C8
:10001000573400085B3400085F340008000000001B
:100020000000000000000000000000006334000831
:1000300065340008000000006734000869340008D7
:10004000EB0F0008EB0F0008EB0F0008EB0F0008A8
:10005000EB0F0008EB0F000893060008EB0F0008F9
:10006000EB0F0008EB0F0008EB0F0008EB0F000888
:10007000EB0F0008EB0F0008EB0F0008EB0F000878
:10008000EB0F0008EB0F0008EB0F0008EB0F000868
:10009000EB0F0008EB0F0008EB0F0008993B00087E
:1000A000EB0F0008EB0F0008EB0F0008EB0F000848
:1000B000EB0F0008EB0F0008EB0F0008EB0F000838
:1000C000EB0F0008EB0F0008EB0F0008EB0F000828
:1000D000EB0F000809410008EB0F0008EB0F0008C8
:1000E000EB0F0008EB0F0008EB0F0008EB0F000808
:1000F000EB0F0008EB0F0008EB0F0008EB0F0008F8
:10010000EB0F0008EB0F0008EB0F0008EB0F0008E7
:1001100021420008EB0F0008EB0F0008EB0F00086E
:10012000EB0F0008EB0F0008EB0F0008EB0F0008C7
:10013000DFF810D018F03AFD17F0B8FF004800477C
:10014000AD01000808E9002010B5002807DA0A0709
:10015000140E294A00F00F031B1FD45403E00A07B2
:10016000130E264A135410BD10B5254800684FF4ED
:100170007A71B0FBF1F4B4F1807F00D311E024F088
:100180007F40401E4FF0E02148610F214FF0FF30CB
:10019000FFF7DAFF00204FF0E021886107200861B7
:1001A00000BF0121881EFFF7CFFF10BD10B5FFF77C
:1001B000DBFF12F043F913F06AFB4FF4A06000F08C
:1001C0001BFF04F0E1FF4FF4E13003F04DFF03F0BB
:1001D000D7FC072003F0DAFC04F060F80BF0F6FA25
:1001E00000BF08480068B0F57A7FFAD317F05EF8D0
:1001F0000BF00CFC002010BD18ED00E000E400E066
:10020000340000204800002030B5801C40F8021C5B
:10021000C0F80220C0F80630012484720024C472A1
:10022000C4600461446101258561C4610562446262
:10023000801E30BD01210E3000F8021C002100F8A4
:10024000011C01604160816042698169C260016195
:100250000E38704770B504460D464DB12168D4F88C
:100260001630A66803FB06103246294617F0EDFD4E
:10027000A41D2069401C54F8021CB0FBF1F201FBE4
:1002800012002061E269206A521C40F10000E26124
:10029000206272B6A068401CA0600020A071A06817
:1002A00054F8021CA41F884201D10120607362B679
:1002B00070BD70B504460D464DB12068D4F81230BB
:1002C000A66803FB06013246284617F0BEFDA41DB2
:1002D000E068401C54F8021CB0FBF1F201FB120074
:1002E000E0606269A069521C40F100006261A06197
:1002F00072B6A068401EA060A068A41F08B90120C3
:1003000020730020607362B670BD000070B50446B3
:10031000F9480568F94E44F48071304602F00EFD4C
:1003200000BF4021304602F077FD012804D0F2489A
:100330000068401B6428F4D370BD70B50446EE48D5
:100340000568EE4E2146304602F0F8FC00BF402121
:10035000304602F061FD012804D0E7480068401BE8
:100360006428F4D370BD70B5E3480468E34D00BF62
:100370002021284602F050FD012804D0DE48006804
:10038000001B6428F4D3284602F0DCFCC0B270BD28
:10039000D94A116800BF0A18D74B1B689A42FAD88D
:1003A000704710B50120FFF7B1FFFFF7DCFF10BD6C
:1003B00070B506460220FFF7A9FFB6F5165F09D013
:1003C000B6F5964F09D0B6F5614F09D0B6F5E13FC5
:1003D0000CD108E00224B22508E00224D92505E06A
:1003E0000324982502E00324CC2500BF00BF20464B
:1003F000FFF7A3FF2846FFF7A0FF70BD10B505204B
:10040000FFF784FF3220FFF7C3FF10BD10B5FFF7E1
:10041000AAFF0620FFF77AFF5520FFF78EFFFFF7B0
:10042000A2FF0446AA2C01D1012010BD0020FCE748
:1004300010B504461520FFF769FFE0B2FFF77DFF16
:100440008020AF490870AF490870FFF78CFF512832
:1004500001D1012010BD0020FCE710B52220FFF7DC
:1004600055FFFFF780FF0446204610BD10B51D2044
:10047000FFF74CFFA3480078FFF75FFFA148007823
:1004800080F040009F49087010BD10B51C20FFF798
:100490003DFF9B480078FFF750FF9948007880F0B7
:1004A00040009749087010BD70B504460D464F20B6
:1004B000FFF72CFFF02101EA041105F00F0241EAD9
:1004C0000200FFF73AFF70BD70B504460D462B20C1
:1004D000FFF71CFFE8B2FFF730FF03E014F8010B51
:1004E000FFF72BFF2800A5F10105F7D170BD70B50E
:1004F00004462820FFF70AFFFFF735FF05460026D0
:1005000005E0FFF730FF04F8010B701CC6B2AE42E5
:10051000F7D1284670BD10B504460420FFF7F6FE5B
:100520002046FFF70AFF10BD10B504464520FFF72F
:10053000EDFE2046FFF701FFFFF715FF142801D15C
:10054000012010BD0020FCE710B504461320FFF782
:10055000DDFE2046FFF7F1FEFFF705FF142801D16D
:10056000012010BD0020FCE710B50446802065493D
:100570000870634908704920FFF7C8FE2046FFF75E
:10058000DCFEFFF76AFF142801D1012010BD002016
:10059000FCE770B504460D464120FFF7B7FE3DB1BC
:1005A00044F08000FFF7C9FE80205549087005E03F
:1005B0002046FFF7C2FE802052490870FFF74DFF2A
:1005C00008B1012070BD0020FCE710B504464620AC
:1005D000FFF79CFE2046FFF7B0FEFFF73EFF142812
:1005E00001D1012010BD0020FCE710B50720FFF766
:1005F0001FFF0A20FFF7CCFE0620FFF719FF0A2095
:10060000FFF7C6FEFFF7AFFE512801D1012010BD54
:100610000020FCE71FB50120ADF80C0048208DF844
:100620000F0003208DF80E0003A9374801F068F889
:100630000021032001F07AF90120009000208DF8BC
:1006400004000C208DF8050001208DF80600684696
:1006500000F076FF06208DF8080003208DF80900D1
:100660008DF80A0001208DF80B0002A800F0C9FCEB
:100670001FBD1CB50120009000208DF804000C2047
:100680008DF8050000208DF80600684600F058FF40
:100690001CBD70B5012000F0CAFFFFF7DEFE044666
:1006A000162C05D1002019490870FFF7E2FF70BD34
:1006B000142C05D0012116480078FFF76AFF09E0E5
:1006C0001448FFF714FF05460B2D02D101201249F3
:1006D000087000BFFFF7D9FE09210D480078FFF729
:1006E000E3FE00BFE3E710B50446002201212046E7
:1006F00003F03AFD10BD000048000020004C00400F
:100700000300002004000020001401400500002028
:1007100002000020EC0400200600002008B50220A2
:10072000ADF8000010208DF8030003208DF80200C2
:100730006946FB4800F0E4FF0221F94801F08DF81A
:100740000520FFF725FE0221F54801F088F8232057
:10075000FFF71EFE08BD10B54FF41650FFF7C3FF9C
:100760000020F0490870F04908706421EF4817F044
:1007700085FB4021EE4817F081FB4FF48071ED4876
:1007800017F07CFBFFF7CAFF10BD2DE9F0410446CE
:100790000E460027002567E06078042814D006DCA8
:1007A000012809D0022808D0032857D10BE00528DA
:1007B00016D0152852D150E051E022782146DE486B
:1007C00017F043FB4BE04AE022782146DB4817F064
:1007D0003CFBDA4802798178D9A018F0EFFC3EE0C2
:1007E00022782146E04817F030FBDF488388C27842
:1007F0008178DEA018F0E2FCDB48C07800F003004E
:10080000032829D1D848807800F0800058B105F03D
:10081000010008BBD448807800F00F00E14908705F
:1008200045F0010518E005F00200A8B9CE4880782F
:1008300000F00F00DC490870CB480079DB490870F4
:100840000846007818B108460078402802DD4020AC
:10085000D649087045F0020501E000E000BF00BF86
:100860002078074420780444B74295DBBDE8F08146
:100870002DE9FF47CE48007800F0010050B9CC4880
:1008800018F0ECFC30B1CB480068CB490860C84890
:10089000AFF30080A348007806286ED2DFE800F0AE
:1008A00003111A202FDB4FF4E130FFF781FD4FF4E5
:1008B000E130FFF718FFFFF798FE01209949087013
:1008C000CBE0FFF7CAFD152800D0C6E0022095490D
:1008D0000870C2E0FFF789FE032092490870BCE06F
:1008E000FFF7BBFD152800D0B7E004208D49087044
:1008F000B048006800F57A70AF490860ADE000BF0D
:10090000AC480068AC490968401AB0F57A7F00D25B
:100910009FE00120FFF759FE8448FFF7E8FD0446F9
:1009200024B9A4480068A449086092E02146A3A025
:1009300018F044FC002705E07C48C15DA3A018F036
:100940003DFC7F1CA742F7DB86A018F037FC7748F8
:10095000A04908600025A0A103C9CDE90201082132
:1009600002A8FFF7B1FD0D210020FFF79DFDFFF765
:1009700074FD0646142E01D06BE06DE009210020C5
:10098000FFF792FDFFF769FD0646142E00D060E0E8
:100990006846FFF7ACFD81469DF802008DF80E0019
:1009A0009DF803008DF80F009DF802009DF80310DC
:1009B00040EA0128082102A8FFF786FD0D2100204A
:1009C000FFF772FDFFF749FD0646142E00D040E008
:1009D00017E009210020FFF767FDFFF73EFD0746FE
:1009E000142F00D00EE053494819FFF780FD04464C
:1009F0002544454500D105E004B903E0FFF745FD76
:100A000000BFE6E700BF29464A48FFF7BEFE65483B
:100A1000017873A018F0D2FB64480278624801782C
:100A200074A018F0CBFB0120FFF77EFD0120FFF73B
:100A30008BFD0120FFF798FDFFF7ECFDFFF725FD8B
:100A4000092158480078FFF72FFD05203549087027
:100A500000BF00BF01E000E000BF00BFBDE8FF87AE
:100A600001463148007808B90020704700202E4A1E
:100A70001070694802680A6042684A6002890A8107
:100A8000807A88720120F0E72DE9F04F85B000BF31
:100A9000FFF7EEFE02A8FFF7E3FF00B950E25FA107
:100AA00000200EF0E2FE002406E002A8025D47A14D
:100AB00000200EF0DAFE641C0B2CF6DB29A10020CE
:100AC0000EF0D3FE9DF80F0000F0100080B1012160
:100AD0004E2004F090FE01214E2004F0CBFE0121B7
:100AE000192004F088FE0121192004F0C3FEB0E0B3
:100AF0009DF80F0000F0080080B101214E2004F0A5
:100B00007AFE01214E2004F0B5FE0121192004F0E7
:100B100072FE0021192004F0ADFE9AE08CE0000086
:100B2000001401400500002006000020EC05002014
:100B30005006002090060020900700209907002012
:100B4000496E746572666163655F494E4445583A03
:100B500025642C6861766520256420656E64706F5D
:100B6000696E743A0D0A000018000020456E64702A
:100B70006F696E745F414444523A30782530327860
:100B80002C417474726962757465733A25642C4DD6
:100B900061785F5061636B65743A25640D0A0D0AD4
:100BA00000000000020000200000002001000020E2
:100BB00008000020480000200C0000204445565F3B
:100BC0006C656E6774683D25642C000030782530B4
:100BD0003278200014000020800600020000080087
:100BE00067456E6470496E416464723D25640D0A08
:100BF0000000000067456E64704F75744164647254
:100C00003D25642C67456E64704F757453697A6531
:100C10003D25640D0A000000EC040020232323235B
:100C20002323232323232323232323232323232394
:100C30002323230D0A0000009DF80F0000F002009E
:100C400038B100214E2004F015FE0021192004F0D7
:100C500011FEBD48007820B90120BC490860BA499E
:100C600008709DF80F0000F0400018B10120B7494E
:100C7000086007E09DF80F0000F0800010B102202E
:100C8000B24908609DF80A10803949B2484217F00D
:100C90006DFC06469DF80910803949B2484217F0AC
:100CA00065FC07469DF80C10803949B2484217F0A0
:100CB0005DFC80469DF80B10803949B2484217F020
:100CC00055FC8146484617F070FC0446404617F034
:100CD0006CFC0546384617F068FC8246304617F033
:100CE00064FC83462B465246594699A0009418F05E
:100CF00065FA00BF304618F047FA04464FF08441C9
:100D000017F0F8FC1ED2384618F03EFA04464FF0B1
:100D1000844117F0EFFC15D2404618F035FA04462E
:100D20004FF0844117F0E6FC0CD2484618F02CFA3C
:100D300004464FF0844117F0DDFC03D200209049B7
:100D40000860DAE0304618F01FFA04464FF084419C
:100D500017F0DAFC2CD28A48006848B900213046E6
:100D600017F0D2FC01D2012000E002208449086083
:100D70007648006802280BD1304618F005FA044680
:100D80004FF0844117F0F4F97E49C1F8BC00B3E09C
:100D90006E4800680128FAD1304618F0F5F904468B
:100DA0004FF0844117F0E4F97649C1F89C00A3E0C4
:100DB000384618F0E9F904464FF0844117F0A4FCD6
:100DC0002DD26F48006848B90021384617F09CFCC6
:100DD00001D2032000E00420694908605B480068F4
:100DE00002280CD1384618F0CFF904464FF0844160
:100DF00017F0BEF901466348C0F8C0107CE05348C4
:100E00000068012878D1384618F0BEF904464FF042
:100E1000844117F0ADF95B49C1F8A0006CE0404691
:100E200018F0B2F904464FF0844117F06DFC2DD252
:100E30005348006848B90021404617F065FC01D2CC
:100E4000052000E006204E4908604048006802285E
:100E50000CD1404618F098F904464FF0844117F041
:100E600087F901464748C0F8C41045E03748006894
:100E7000012841D1404618F087F904464FF08441DB
:100E800017F076F93F49C1F8A40035E0484618F05C
:100E90007BF904464FF0844117F036FC2CD23848D9
:100EA000006848B90021484617F02EFC01D20720FF
:100EB00000E00820324908602448006802280CD16C
:100EC000484618F061F904464FF0844117F050F994
:100ED00001462C48C0F8C8100EE01C4800680128E4
:100EE0000AD1484618F050F904464FF0844117F0F3
:100EF0003FF92449C1F8A80000BF00BF2149D1F83B
:100F0000C80017F052FB04461E49D1F8C40017F080
:100F10004CFB05461B49D1F8C00017F046FB824642
:100F20001849D1F8BC0017F040FB834653465A4697
:100F30001348CDE90054016813A018F03FF900BF31
:100F400000BF05B0BDE8F08F10000020CC020020EB
:100F50007844617461203D20256420794461746186
:100F6000203D202564207A44617461203D20256461
:100F7000207244617461203D2025640D0A00000048
:100F8000D0020020F89900204D6F64653A25642056
:100F9000783A256420793A2564207A3A25642072CB
:100FA0003A25640D0A0000001048804710480047A9
:100FB000FEE71EF0040F0CBFEFF30880EFF309808B
:100FC0004FF00051884282F21D860A4909684FF0AD
:100FD0009202914242F0168602F0D8BEFEE7FEE78A
:100FE000FEE7FEE7FEE7FEE7FEE7FEE74F33000819
:100FF0003101000829ED00E031490143314A116017
:10100000704770B5002100230F22C47804B32D4C23
:10101000246804F4E064C4F5E064210AC1F1040327
:10102000CA40447804FA03F184781440214309014A
:10103000254C0678A155047804F01F050124AC4026
:1010400005786D11AD0005F1E025C5F8004109E016
:10105000047804F01F050124AC401C4D067876117D
:1010600045F8264070BD1A4A0A400243154B1B1F23
:101070001A60704739B1134A121D12680243114BAE
:101080001B1D1A6006E00F4A121D126882430D4BA9
:101090001B1D1A607047042808D14FF0E021096930
:1010A00041F004014FF0E022116107E04FF0E02130
:1010B000096921F004014FF0E0221161704700003E
:1010C0000000FA050CED00E000E400E080E100E043
:1010D00080FFFF1F10B50446FA48844208D1012161
:1010E000401502F07BF80021601502F077F817E058
:1010F000F548844208D10121001502F06FF8002163
:10110000201502F06BF80BE0F048844208D1012171
:10111000C80302F063F800214FF4004002F05EF8CB
:1011200010BD30B50246002000235068E84C204036
:101130000D790C6844EA0524204350609068E54C22
:101140002040D1E902542C434D7944EA4504204320
:101150009060D06A20F470000C7C641EE4B22343DB
:1011600040EA0350D06230BD00210160017141713D
:101170008160C16001210174704721B1826842F031
:101180000102826003E0826822F0010282607047FF
:1011900021B1826842F48072826003E0826822F4A6
:1011A00080728260704710B50023CBB21AB14468D8
:1011B0001C43446002E044689C43446010BD816865
:1011C00041F0080181607047014600208A6802F002
:1011D00008020AB1012000E000207047816841F058
:1011E000040181607047014600208A6802F0040211
:1011F0000AB1012000E00020704721B1826842F46A
:10120000A002826003E0826822F4A002826070473C
:10121000014600208A6802F480020AB1012000E041
:101220000020704710B50A4600210023416821F4D0
:101230006041531E41EA4331416010BD21B1426813
:1012400042F40062426003E0426822F400624260BD
:101250007047F0B504460D4600200021092D11DD30
:10126000E068A5F10A0606EB4607072606FA07F12D
:101270008843A5F10A0606EB460603FA06F1084381
:10128000E0600CE0206905EB4507072606FA07F148
:10129000884305EB450603FA06F108432061072A57
:1012A0000FDA606B561E06EB86071F2606FA07F15B
:1012B0008843561E06EB860605FA06F1084360636E
:1012C00022E00D2A0FDA206BD61F06EB86071F26B9
:1012D00006FA07F18843D61F06EB860605FA06F1E3
:1012E0000843206310E0E06AA2F10D0606EB8607D2
:1012F0001F2606FA07F18843A2F10D0606EB8606C3
:1013000005FA06F10843E062F0BD21B1826842F4BB
:101310008012826003E0826822F48012826070474B
:101320000146C86C80B2704766484C300068704710
:1013300021B1426842F48062426003E0426822F4D4
:1013400080624260704721B1426842F4805242603C
:1013500003E0426822F48052426070470A4600214E
:10136000816821F4E04111438160704721B18268B6
:1013700042F40042826003E0826822F4004282600C
:10138000704721B1826842F40212826003E08268F1
:1013900022F4021282607047014600208A6802F43B
:1013A00000120AB1012000E000207047F0B50446A9
:1013B0001546002000220026092911DDE068A1F170
:1013C0000A0707EB470C072707FA0CF29043A1F135
:1013D0000A0707EB470703FA07F21043E0600CE047
:1013E000206901EB410C072707FA0CF2904301EB4F
:1013F000410703FA07F210432061A06BC0F30156C6
:10140000EF1C06F1010CA7EB0C0707EB870C1F275D
:1014100007FA0CF29043EF1C06F1010CA7EB0C0746
:1014200007EB870701FA07F21043A063F0BD10B580
:101430000A4600210023816B21F44011531E41EA2A
:101440000351816310BD08B5002300930090009BF9
:101450000B440093009B1A6008BD08B502460020AB
:101460000090009201F12800009B18440090009821
:10147000006880B208BD0A4600214168164B194039
:101480001143416070474162826270470A46002101
:10149000416821F01F0111434160704740B1094983
:1014A0000831096841F40001064A0832116007E07A
:1014B00004490831096821F40001024A0832116028
:1014C000704700000024014000280140003C01401A
:1014D000FFFEF0FFFDF7F1FFFFFD3FFF024600209A
:1014E00013680B400BB1012000E000207047CA4395
:1014F0000260704770B502460020002300240B12E2
:101500005568CEB205EA060415681D4015B10CB148
:10151000012000E0002070BD00220A12D3430360C6
:1015200070470000002044490860091D0860091D3B
:101530000860091D086041483F4914310860704740
:1015400000213D498279002A3AD00A461268036890
:101550009A430B461A600A1D126803689A430B1DD2
:101560001A60027911440A6803681A430A60324A11
:101570000832126803689A432F4B08331A601A1D09
:10158000126803689A432C4B0C331A604279102A74
:101590000ED11A1F126803681A43274B08331A60CA
:1015A0001A1D126803681A43234B0C331A600DE0AE
:1015B0002149427911440A6803681A430A6005E028
:1015C000027911440A6803689A430A60704700214F
:1015D000016001710C214171002181717047164930
:1015E000103109680143144A1032116070470146F6
:1015F0000020114A143212680A400AB1012000E0AA
:10160000002070470C4914310860704701460020E3
:101610000022094B1B6803EA0102074B14331B68C5
:101620000B4013B10AB1012000E0002070470249CD
:10163000143108607047000000040140FFFF0F00F4
:1016400010B50446CC48844208D10121042001F0A1
:10165000C5FD0021042001F0C1FD46E0C7488442D9
:1016600008D10121082001F0B9FD0021082001F076
:10167000B5FD3AE0C248844208D10121102001F0B2
:10168000ADFD0021102001F0A9FD2EE0BD488442EF
:1016900008D10121202001F0A1FD0021202001F02E
:1016A0009DFD22E0B848844208D10121402001F08C
:1016B00095FD0021402001F091FD16E0B3488442E1
:1016C00008D10121802001F089FD0021802001F056
:1016D00085FD0AE0AE48844207D10121801501F062
:1016E0007DFD0021A01501F079FD10BD10B501218F
:1016F000084601F073FD0021012001F06FFD10BDCF
:101700002DE9F04102460025002600200023002498
:10171000002791F803C00CF00F0591F803C00CF0FE
:10172000100CBCF1000F03D091F802C04CEA050583
:1017300091F800C0BCF1000F31D0146800202BE0FC
:101740004FF0010C0CFA00F3B1F800C00CEA0306EC
:101750009E4220D183004FF00F0C0CFA03F7BC43DC
:1017600005FA03FC4CEA040491F803C0BCF1280F0D
:1017700006D14FF0010C0CFA00FCC2F814C00AE0CC
:1017800091F803C0BCF1480F05D14FF0010C0CFAE1
:1017900000FCC2F810C0401C0828D1D31460B1F876
:1017A00000C0BCF1FF0F34DD546800202EE000F1D2
:1017B000080C4FF0010808FA0CF3B1F800C00CEA6D
:1017C00003069E4221D183004FF00F0C0CFA03F761
:1017D000BC4305FA03FC4CEA040491F803C0BCF1D5
:1017E000280F05D100F1080C08FA0CF8C2F8148093
:1017F00091F803C0BCF1480F07D100F1080C4FF07D
:10180000010808FA0CF8C2F81080401C0828CED352
:101810005460BDE8F0814FF6FF71018002218170B4
:101820000421C17070470246002093680B400BB141
:10183000012000E0002070470146886880B27047B0
:1018400002460020D3680B400BB1012000E00020CD
:1018500070470146C86880B27047016170474161B6
:1018600070470AB1016100E041617047C160704793
:101870004FF480320A4382618161826182698269A8
:10188000704702460020434B18684FF6807318409B
:1018900040EA021008433F4B186070473E49C86158
:1018A0007047F0B50A46002300240021002500F00F
:1018B0000046B6F1004F02D1364EF16901E0354ED7
:1018C0007168C0F3034583B200F44016B6F5401FBB
:1018D00008D121F070612F4E766826F070662D4F8A
:1018E0007E6012E000F48016B6F5801F06D1032654
:1018F00006FA05F4A14341F0706106E0460D360199
:1019000003FA06F6B14341F0706122B1460D36018B
:1019100003FA06F6314300F00046B6F1004F02D15B
:101920001C4EF16101E01B4E7160F0BD30B500222C
:101930008B071C0F0F2303FA04F2164B08338C108D
:1019400053F824309343134C08348D1044F8253059
:1019500023468C1053F824308C07240F00FA04F42B
:1019600023430C4C08348D1044F8253030BD0A490F
:10197000DC3108607047000000080140000C0140A5
:10198000001001400014014000180140001C0140FB
:1019900000200140000001400000204210B5044634
:1019A000BE48844208D10121801401F017FC0021B7
:1019B000A01401F013FC16E0B948844208D10121BB
:1019C000001401F018FC0021201401F014FC0AE0BE
:1019D000B448844207D10121C01301F00CFC00215E
:1019E000E01301F008FC10BD10B50022028802F4DB
:1019F00041520B884C8823438C882343CC88234353
:101A00000C8923434C8923438C892343CC8923436A
:101A10001A430280838B4FF2FF74234083830B8A27
:101A2000038210BD2DE9F04F85B005460C464FF0FE
:101A3000000902274FF000084FF0010B0026B246C4
:101A4000A88B4FF240010840A88302202884B5F8F3
:101A50001C90A068022801D100BF38E0A08810B90E
:101A60004FF0010B01E04FF0020B8D48854200D191
:101A700000E000BF684601F02AFBDDF800A0E08826
:101A8000B0F5007F0AD14FEA1A2000EB8000400039
:101A9000A168B0FBF1F0401D86B20BE04FEA4B109D
:101AA000BAFBF0F000EB80004000A168B0FBF1F061
:101AB000401D86B20A20B6FBF0F606F00108A6EB40
:101AC0000800C0F34F074FF6FF7000EA0828022F06
:101AD00001DBFF2F02DD02274FF00008E08840EA1B
:101AE000080038432884A088A189084361880843F6
:101AF0002188084340F4006040EA0909A5F81C90D9
:101B000005B0BDE8F08F0021018041808180C18057
:101B1000018141818181C1810721018270470021BA
:101B2000018041808180C18002218160002181810A
:101B3000704721B1028842F04002028004E002882E
:101B40004FF6BF731A400280704721B1828B42F476
:101B50008062828304E0828B4FF6FF331A408283D7
:101B6000704730B5002400230C110125A540ABB20D
:101B70001AB185881D43858002E085889D43858054
:101B800030BD1AB183880B43838002E083888B4386
:101B900083807047818170470146888970474FF67E
:101BA000FF62914204D0028842F48072028004E015
:101BB00002884FF6FF631A400280704721B1828885
:101BC00042F00402828004E082884FF6FB731A40E0
:101BD0008280704702884FF2FF731A4002800288A9
:101BE0000A4302807047018841F4805101807047A8
:101BF00021B1028842F40052028004E002884DF6CE
:101C0000FF731A400280704702460020012901D06C
:101C1000108B00E0908A70470146088A7047B1F542
:101C2000804F04D1028842F48042028004E002889E
:101C30004BF6FF731A40028070470246002013895A
:101C40000B400BB1012000E000207047CA43028125
:101C50007047F0B50246002000240023002501F063
:101C60000F070126BE40B4B20B1101269E40B3B24D
:101C7000968806EA03051689264016B10DB10120A3
:101C800000E00020F0BD10B5002201F00F04012398
:101C9000A3409AB2D343038110BD0000003001403D
:101CA00000380040003C004010B50446FE48844225
:101CB00008D10121C01401F091FA0021E01401F0D3
:101CC0008DFAC4E0B4F1804F08D10121084601F03B
:101CD00092FA0021012001F08EFAB8E0F348844224
:101CE00008D10121022001F086FA0021022001F032
:101CF00082FAACE0EE48844208D10121042001F0D0
:101D00007AFA0021042001F076FAA0E0E948844242
:101D100008D10121082001F06EFA0021082001F00D
:101D20006AFA94E0E448844208D10121102001F0CD
:101D300062FA0021102001F05EFA88E0DF48844258
:101D400008D10121202001F056FA0021202001F0C5
:101D500052FA7CE0DA48844208D10121401401F0B3
:101D60003DFA0021601401F039FA70E0D548844250
:101D700009D10121C80401F031FA00214FF40020FB
:101D800001F02CFA63E0D048844209D10121080512
:101D900001F024FA00214FF4801001F01FFA56E000
:101DA000CA48844209D10121480501F017FA0021EF
:101DB0004FF4001001F012FA49E0C548844208D1FE
:101DC0000121402001F017FA0021402001F013FA10
:101DD0003DE0C048844208D10121802001F00BFA87
:101DE0000021802001F007FA31E0BB48844208D18D
:101DF0000121801501F0FFF90021A01501F0FBF988
:101E000025E0B648844209D10121080401F0E6F931
:101E100000214FF4803001F0E1F918E0B04884422D
:101E200009D10121480401F0D9F900214FF4003013
:101E300001F0D4F90BE0AB48844208D101218804B9
:101E400001F0CCF900214FF4802001F0C7F910BD5A
:101E500000220288944B98420ED0994B98420BD0A6
:101E6000B0F1804F08D0914B984205D0904B9842EA
:101E700002D0904B984204D14FF68F731A404B8892
:101E80001A438D4B984207D08C4B984204D04FF6A2
:101E9000FF431A40CB881A4302808B8883850B88C6
:101EA0000385814B98420BD0854B984208D08B4BD1
:101EB000984205D08A4B984202D08A4B984201D171
:101EC0000B7A038601238382704770B500240022B9
:101ED0000023058C4FF6FE7635400584028C8388FE
:101EE000048B4FF68F752C40B51E2C400D882C436B
:101EF000751E2A400D892A434D882A436A4DA842FF
:101F00000BD06F4DA84208D0744DA84205D0744D37
:101F1000A84202D0734DA84213D14FF6F7752A405C
:101F20004D892A434FF6FB752A408D882A434FF688
:101F3000FF652B404FF6FF552B408D892B43CD89F4
:101F40002B4383800483CD888586028470BD70B561
:101F5000002400220023058C4FF6EF7635400584DF
:101F6000028C8388048B48F6FF752C404FF6FF45A2
:101F70002C400D884FF6FF7606EA05252C434FF6D8
:101F8000DF752A400D8906EA05152A434D8806EAC1
:101F900005152A43444DA84202D0494DA8421DD1FF
:101FA0004FF67F752A404D894FF6FF7606EA0515F4
:101FB0002A434FF6BF752A408D8806EA05152A4345
:101FC0004FF6FF352B404FF2FF752B408D8906EA07
:101FD00085052B43CD8906EA85052B438380048341
:101FE000CD880587028470BD70B5002400220023CF
:101FF000058C4FF6FF6635400584028C8388848B00
:102000004FF68F752C404FF6FC752C400D882C43F5
:102010004FF6FF552A400D894FF6FF7606EA052553
:102020002A434D8806EA05252A431F4DA84202D0BF
:10203000234DA8421DD14FF2FF752A404D894FF61E
:10204000FF7606EA05252A434FF6FF352A408D889C
:1020500006EA05252A434EF6FF752B404DF6FF751F
:102060002B408D8906EA05152B43CD8906EA051517
:102070002B4383808483CD888587028470BD70B5AF
:10208000002200230024058C4EF6FF76354005849F
:10209000038C8488828B48F6FF752A404FF6FF45F3
:1020A0002A400D8820E00000002C01400004004080
:1020B00000080040000C00400010004000140040E8
:1020C00000340140004C01400050014000540140E8
:1020D00000180040001C004000200040004001406B
:1020E00000440140004801404FF6FF7606EA05250E
:1020F0002A434DF6FF752B400D8906EA05352B4323
:102100004D8806EA05352B43FA4DA84202D0FA4D18
:10211000A84208D14BF6FF752C408D894FF6FF760B
:1021200006EA85152C4384808283CD88A0F8405030
:10213000038470BD828B4FF2FF331A408283828BFF
:102140004FF6FF7303EA01231A4382837047F0B509
:102150000C461546002200210026078C4EF6FF7C17
:1021600007EA0C070784828B018C4FF6FF7707EA9A
:10217000043640F6FF473A404FF6FF7707EA052757
:102180003A434FF6FF7707EA03373A43D94FB8424D
:102190000ED0D94FB8420BD0B0F1804F08D0D74FF6
:1021A000B84205D0D64FB84202D0D64FB84206D179
:1021B0004DF6FF77394046F48057394305E047F63E
:1021C000FF57394044F48057394382830184F0BD7E
:1021D000828B4FF6F3731A408283828B0A43828389
:1021E0007047F0B50C461546002200210026078CEA
:1021F0004FF6FF6C07EA0C070784828B018C4FF6C1
:10220000FF7707EA04264FF60C773A404FF6FF7740
:1022100007EA03172F433A43B64FB8420ED0B64FE2
:10222000B8420BD0B0F1804F08D0B44FB84205D0BF
:10223000B34FB84202D0B34FB84206D14FF6FF5762
:10224000394046F48077394305E04FF2FF57394073
:1022500044F48077394382830184F0BD028B4FF2CE
:10226000FF331A400283028B4FF6FF7303EA012308
:102270001A4302837047F0B50C4615460022002130
:102280000026078C4FF6EF7C07EA0C070784028BC9
:10229000018C4FF6FF7707EA041640F6FF473A40F5
:1022A0004FF6FF7707EA03373A434FF6FF7707EA1F
:1022B00005273A438F4FB8420ED08F4FB8420BD00C
:1022C000B0F1804F08D08D4FB84205D08C4FB84246
:1022D00002D08C4FB84206D14FF6DF77394046F036
:1022E0001007394305E04FF65F77394044F0100797
:1022F000394302830184F0BD028B4FF6F3731A4019
:102300000283028B0A4302837047F0B50C461546E0
:1023100000220021068C4FF6FE773E400684028B99
:10232000018C4FF60C7632407E1C06EA03162E43D3
:102330003243704EB0420ED06F4EB0420BD0B0F16F
:10234000804F08D06D4EB04205D06D4EB04202D0E5
:102350006C4EB04206D14FF6FD76314044F0010696
:10236000314305E04FF6F576314044F00106314344
:1023700002830184F0BD70B505460C465D48854278
:102380000ED05D4885420BD0B5F1804F08D05B4838
:10239000854205D05A48854202D05A48854200D12C
:1023A00000E000BF208850B92389A28861882846B0
:1023B000FFF7ABFFE1882846FFF79EFF25E0208866
:1023C00004280AD12389A28861882846FFF753FF91
:1023D000E1882846FFF742FF17E0208808280AD145
:1023E0002389A28861882846FFF7FBFEE1882846FA
:1023F000FFF7EEFE09E02389A28861882846FFF7EF
:10240000A6FEE1882846FFF795FE70BD2DE9F04154
:1024100005460C4600260127608808B9022600E020
:102420000026A088012801D1022700E0012720888A
:10243000A0B92389A28861882846FFF766FFE18852
:102440002846FFF759FF23893A4631462846FFF7C9
:1024500012FFE1882846FFF701FF13E02389A288D5
:1024600061882846FFF707FFE1882846FFF7F6FE58
:1024700023893A4631462846FFF747FFE188284638
:10248000FFF73AFFBDE8F0810A884B881A438B8832
:102490001A43CB881A430B891A434B891A438B89F9
:1024A0001A43A0F8442070474FF6FF718180002145
:1024B0000180C1804180017270470021018041800C
:1024C0008180C180018141818181C181704700216A
:1024D00001804180012181800021C18001817047FC
:1024E0000021018041808180C18001814181818101
:1024F00070470000002C01400034014000040040FF
:1025000000080040000C004021B1028842F00102A6
:10251000028004E002884FF6FE731A400280704782
:1025200031B1B0F8442042F40042A0F8442005E064
:10253000B0F84420C2F30E02A0F8442070471AB14C
:1025400083890B43838102E083898B4383817047B6
:102550008182704741EA0203A0F8483070471AB1FF
:1025600083890B43838102E083898B438381704796
:1025700001894FF6F8721140018170470A46002127
:1025800001894FF68F73194011430181704730B5AF
:1025900004460D4629462046FFF7F0FF208940F00B
:1025A0000700208130BD2DE9F04104460D46164656
:1025B0001F46602D06D13B46012231462046FFF7DB
:1025C0005AFE05E03B46012231462046FFF79DFEBC
:1025D00029462046FFF7D2FF208940F007002081DE
:1025E000BDE8F08130B50C4600210189C9B24FF633
:1025F000FF7505EA0325154325432943018130BDB5
:102600002DE9F04105460E461746984600244346FC
:102610003A4631462846FFF7E5FF2C894FF6F87019
:10262000044044F007044FF68F70044044F07004F7
:102630002C81BDE8F081F0B504460D4616461F46D4
:102640003B46324629462046FFF7CCFF208940F41E
:1026500080402081F0BD0185828270470A460021BA
:1026600001884FF68F731940114301807047F0B510
:102670000C4615461E460021002200230189028BCC
:10268000038C4FF6F877394021434FF6FC473A4028
:1026900040F201173A434FF6DD773B404FF6FF77A4
:1026A00007EA06172F433B43018102830384F0BDF1
:1026B0000A460021018B4FF68F73194011430183A5
:1026C00070470A460021018B48F6FF7319404FF608
:1026D000FF7303EA02231943018370470A4600216E
:1026E000818B4FF68F7319401143818370470A46DF
:1026F0000021818B48F6FF7319404FF6FF7303EA00
:10270000022319438183704721B1028842F080027D
:10271000028004E002884FF67F731A4002807047FF
:1027200021B1828842F00402828004E082884FF660
:10273000FB731A408280704721B1828842F0080200
:10274000828004E082884FF6F7731A4082807047D7
:1027500021B1828842F00102828004E082884FF633
:10276000FE731A40828070470A460021018B4FF6A3
:10277000F77319401143018370470A460021018B0A
:102780004FF2FF7319404FF6FF7303EA0223194318
:10279000018370470A460021818B4FF6F773194079
:1027A0001143818370470A460021818B4FF2FF73EA
:1027B00019404FF6FF7303EA0223194381837047E0
:1027C0000A460021018B4FF6FB7319401143018328
:1027D00070470A460021018B4FF6FF3319404FF630
:1027E000FF7303EA02231943018370470A4600215D
:1027F000818B4FF6FB7319401143818370470A4662
:102800000021818B4FF6FF3319404FF6FF7303EA27
:1028100002231943818370470A460021018B4FF63A
:102820007F7319401143018370470A460021018BD1
:10283000C1F30E014FF6FF7303EA0223194301832C
:1028400070470A460021818B4FF67F731940114370
:10285000818370470A460021818BC1F30E014FF638
:10286000FF7303EA02231943818370470A4600215C
:10287000018C4FF6FD7319401143018470470A46DD
:102880000021018C4FF6F773194011430184704702
:102890000A460021018C4FF6DF7319404FF6FF7393
:1028A00003EA02131943018470470A460021018C90
:1028B0004FF67F7319404FF6FF7303EA0213194373
:1028C000018470470A460021018C4FF6FF531940DE
:1028D0004FF6FF7303EA02231943018470470A4647
:1028E0000021018C4FF2FF7319404FF6FF7303EA8A
:1028F00002231943018470470A460021018C4DF6DA
:10290000FF7319404FF6FF7303EA02331943018442
:10291000704730B5002301248C40A3B2048C9C4343
:102920000484048C02FA01F5ADB22C43048430BD5A
:1029300030B5002304248C40A3B2048C9C4304844F
:10294000048C02FA01F5ADB22C43048430BD70B59D
:102950000346002000241846183001258D40ACB2F3
:102960001D8CA5431D8409B1082909D100EB610024
:10297000056825F0700505600568154305600EE0E3
:102980000D1FC5F34E052844056825F4E045056094
:1029900005684FF6FF7606EA02263543056070BDEE
:1029A00021B1028842F00202028004E002884FF660
:1029B000FD731A400280704721B1028842F0040280
:1029C000028004E002884FF6FB731A4002807047D1
:1029D00021B1828842F08002828004E082884FF632
:1029E0007F731A408280704702884FF6F7731A404F
:1029F000028002880A430280704782884FF68F73F4
:102A00001A40828082880A438280704702894FF68A
:102A1000F8731A40028102890A43028170470289D1
:102A20004FF67F731A40028102890A430281704780
:102A30008184704781857047818670470187704720
:102A400081877047A0F84010704702884FF6FF4317
:102A50001A40028002880A43028070470146888E2D
:102A600070470146088F70470146888F70470146BE
:102A7000B1F8400070470146888C70470146088DC8
:102A8000704702460020138A0B400BB1012000E082
:102A900000207047CA430282704730B502460020CA
:102AA00000230024158A05EA0103958905EA01043B
:102AB00013B10CB1012000E0002030BDCA430282F6
:102AC0007047000010B50446FB48844209D101213B
:102AD000880300F083FB00214FF4804000F07EFB70
:102AE00032E0F648844209D10121480400F083FB1A
:102AF00000214FF4003000F07EFB25E0F0488442D6
:102B000009D10121880400F076FB00214FF48020D8
:102B100000F071FB18E0EB48844209D10121C804A0
:102B200000F069FB00214FF4002000F064FB0BE093
:102B3000E548844208D10121080500F05CFB002132
:102B40004FF4801000F057FB10BD2DE9F04786B020
:102B500005460E460024A24600BFA1460027B089C4
:102B600000B100BF2F462C8A4CF6FF700440F0885D
:102B700004432C82AC894EF6F3100440B0883189AE
:102B80000843718908430443AC81AC8A4FF6FF4087
:102B90000440B0890443AC8201A800F098FAC6480A
:102BA000874202D1DDF810A001E0DDF80CA0A88971
:102BB00000F4004040B10AEBCA0000EB0A10316893
:102BC0004900B0FBF1F807E00AEBCA0000EB0A107D
:102BD00031688900B0FBF1F86420B8FBF0F0040123
:102BE0002009642101FB1089A88900F4004040B14C
:102BF000322000EBC900B0FBF1F000F00700044305
:102C000008E0322000EB09106421B0FBF1F000F085
:102C10000F0004432C8106B0BDE8F0874FF4165135
:102C2000016000218180C18001810C21418100214E
:102C30008181704710B502460020108A4FF2FF03D1
:102C400018400B884C8823438C882343CC8823432B
:102C50001843108210BD0021018041808180C18015
:102C6000704721B1828942F40052828104E0828956
:102C70004DF6FF731A4082817047F0B50346002479
:102C800000260025002040F66A17B94200D100BF97
:102C90001846C1F3421401F01F06012707FA06F592
:102CA000012C01D10C3004E0022C01D1103000E0E5
:102CB00014301AB107682F43076002E00768AF437A
:102CC0000760F0BD1AB1838A0B43838202E0838AD6
:102CD0008B4383827047028A4FF6F0731A40028258
:102CE000028A0A430282704782894FF2FF731A40B8
:102CF000828182890A438281704721B1828942F0B0
:102D00000202828104E082894FF6FD731A408281BB
:102D10007047028A4FF6DF731A400282028A0A4322
:102D20000282704721B1028A42F48042028204E0AA
:102D3000028A4BF6FF731A4002827047C1F3080201
:102D40008280704701468888C0F3080070478189F7
:102D500041F0010181817047028BD2B20283028B64
:102D600042EA012202837047028B02F47F4202830F
:102D7000028B0A430283704721B1828A42F020020B
:102D8000828204E0828A4FF6DF731A4082827047A3
:102D900021B1828A42F01002828204E0828A4FF6D8
:102DA000EF731A408282704721B1828A42F0080292
:102DB000828204E0828A4FF6F7731A40828270475B
:102DC00021B1828942F40042828103E08289C2F308
:102DD0000E028281704721B1828A42F400628282AF
:102DE00004E0828A4FF2FF731A4082827047828A1F
:102DF0004FF6FB731A408282828A0A4382827047AE
:102E000021B1828A42F00202828204E0828A4FF675
:102E1000FD731A408282704702460020B1F5007FA0
:102E200000D100BF13880B400BB1012000E000204F
:102E3000704701F40072B2F5007F00D100BFCA43B1
:102E40000280704770B50246002400230025002050
:102E500040F66A16B14200D100BFC1F3421501F03D
:102E60001F03012606FA03F3012D02D19689334090
:102E700006E0022D02D1168A334001E0968A3340E3
:102E80000C12012606FA04F41688344013B10CB172
:102E9000012000E0002070BD10B50022002340F6A4
:102EA0006A14A14200D100BF0A1201249440A3B2C7
:102EB000DC43048010BD00000038014000440040A5
:102EC00000480040004C004000500040DF480068CF
:102ED00040F00100DD49086008464068DC490840D0
:102EE000DA49486008460068DA490840D74908606E
:102EF0000846006820F4802008600846406820F4F6
:102F0000FE0048604FF41F0088607047CF49096891
:102F100021F48031CD4A11601146096821F48021E5
:102F20001160B0F5803F03D0B0F5802F0ED106E0E0
:102F3000C649096841F48031C44A116007E0C349B9
:102F4000096841F4A021C14A116000E000BF00BF40
:102F5000704710B501460022002300204A11012AC3
:102F600002D1BA4C236806E0022A02D1B74C236A88
:102F700001E0B64C636A01F01F02012494401C403A
:102F80000CB1012000E0002010BD38B500200090F9
:102F90000024002500BF3120FFF7DBFF0546009825
:102FA000401C00900098B0F5A06F01D0002DF2D029
:102FB0003120FFF7CEFF08B1012400E000242046B5
:102FC00038BD01460020A14A106820F0F80040EA10
:102FD000C10010607047A049086070470246002099
:102FE0009A4B586820F47C1042EA01031843974B2F
:102FF0005860704798490866704701460020934A18
:10300000506820F003000843506070478F484068C4
:1030100000F00C007047014600208C4A506820F0F8
:10302000F00008435060704701460020874A50680E
:1030300020F4E06008435060704701460020834A56
:10304000506820F4605040EAC1005060704729B1D8
:103050007E4A527A02437D4B5A7204E07B4A527A8E
:1030600082437A4B5A7270477B49D8310860704767
:1030700001460020754A506820F4404008435060E3
:1030800070470021714A20321170704A82F8201076
:10309000012802D004280AD104E001216B4A203221
:1030A000117005E00521694A2032117000E000BF6F
:1030B00000BF70476949086070476449096A014365
:1030C000624A11627047654944390860704730B5FB
:1030D00000210022002400235C4D6D6805F00C01E6
:1030E00021B1042905D0082923D105E05C4D0560F4
:1030F00022E05B4D05601FE0544D6D6805F47012D1
:10310000524D6D6805F48034022505EB92421CB9DE
:10311000544D554305600BE04C4D6D6805F400358A
:103120001DB1504D5543056002E04D4D55430560BE
:1031300002E04B4D056000BF00BF444D6D6805F0D7
:10314000F0010909484D6B5C0568DD4045603F4D65
:103150006D6805F4E061090A434D6B5C4568DD402C
:1031600085603A4D6D6805F46051C90A3E4D6B5C4F
:103170004568DD40C560354D6D6805F44041890BFB
:103180003A4D6B5CC568B5FBF3F5056130BD29B1FF
:103190002E4A526902432D4B5A6104E02B4A526970
:1031A00082432A4B5A61704729B1284A92690243E7
:1031B000264B9A6104E0254A92698243234B9A6127
:1031C000704729B1214AD2690243204BDA6104E0F9
:1031D0001E4AD26982431D4BDA61704729B11B4AEE
:1031E000D2680243194BDA6004E0184AD26882437D
:1031F000164BDA60704729B1144A12690243134B27
:103200001A6104E0114A12698243104B1A61704737
:1032100012494039086070470F49C86470470B492C
:10322000C87170470948406A40F080700749486299
:10323000704701460020054A92680A400AB1012001
:1032400000E000207047014988727047001002407A
:103250000000FFF8FFFFF6FE0000424280044242F9
:1032600000127A0000093D001F0000202F000020FE
:103270000CB50020019000906C48006840F480304C
:103280006A49086000BF6948006800F40030009097
:103290000198401C0190009818B90198B0F5A06FF2
:1032A000F1D16248006800F4003010B101200090B4
:1032B00001E0002000900098012843D15C4800689C
:1032C00040F010005A4908600846006820F00300EA
:1032D00008600846006840F00200086053484068F3
:1032E000524948600846406848600846406840F4D3
:1032F000806048600846406820F47C1048600846BA
:10330000406840F4E81048600846006840F080706B
:10331000086000BF4548006800F000700028F9D040
:103320004248406820F00300404948600846406831
:1033300040F00200486000BF3C48406800F00C00CC
:103340000828F9D10CBD10B5FFF792FF10BD10B5DC
:103350003648006840F0010034490860084640687B
:1033600034490840314948600846006832490840FD
:103370002E4908600846006820F48020086008464E
:10338000406820F4FE0048604FF41F008860FFF79B
:10339000DAFF4FF000602949086010BD10B5002128
:1033A00000200022214B5B6803F00C0121B10429AD
:1033B00006D0082928D107E0214B224C236027E0C2
:1033C0001F4B204C236023E0184B5B6803F4701004
:1033D000164B5B6803F48032022303EB904022B962
:1033E000194B4343174C23600DE0104B5B6803F40B
:1033F000003323B1144B4343124C236003E0104BC2
:103400004343104C236003E00D4B0E4C236000BF80
:1034100000BF064B5B68C3F303130C4CE15C094B24
:103420001B68CB40074C236010BD00000010024019
:10343000002002400000FFF8FFFFF6FE08ED00E06C
:1034400000127A003400002000093D0038000020FE
:10345000704700BFFEE700BFFEE700BFFEE700BF0A
:10346000FEE770477047704702480068401C0149FA
:10347000086070474800002000B587B0012141F284
:103480000400FFF791FEA020ADF8180003208DF88E
:103490001A0018208DF81B0006A9FE48FEF730F927
:1034A0004020ADF8180004208DF81B0006A9F9484B
:1034B000FEF726F900BF4FF48070ADF80000102031
:1034C0008DF8030003208DF8020001221102F2485A
:1034D000FEF7C7F96946F048FEF712F900BF002071
:1034E000ADF804004FF48270ADF806000020ADF88E
:1034F0000800ADF80A00ADF80C004FF40070ADF80C
:103500000E002820ADF810000020ADF812000720B2
:10351000ADF8140001A9E148FEF766FA0121DF4881
:10352000FEF707FB07B000BD2DE9F84305460E4640
:1035300014460020009002E00098401C0090009883
:10354000FF28F9D300224FF48071D348FEF789F9A0
:103550002946D248FEF71EFB00BF0221CF48FEF7E6
:103560006CFB0028F9D000BF0121CC48FEF765FBB9
:103570000028F9D0C948FEF70FFB00F0FF0800272C
:1035800018E02178C548FEF705FB00BF0221C348BB
:10359000FEF753FB0028F9D000BF0121BF48FEF71A
:1035A0004CFB0028F9D0BD48FEF7F6FA00F0FF0802
:1035B000641C7F1CB742E4D301221102B648FEF717
:1035C00050F9BDE8F8832DE9F84305460E46144648
:1035D0000020009002E00098401C00900098FF2816
:1035E000F9D300224FF48071AB48FEF73AF929462F
:1035F000AA48FEF7CFFA00BF0221A848FEF71DFB3C
:103600000028F9D000BF0121A448FEF716FB0028CE
:10361000F9D0A248FEF7C0FA00F0FF0800219F4849
:10362000FEF7B8FA00BF02219C48FEF706FB00280F
:10363000F9D000BF01219948FEF7FFFA0028F9D020
:103640009648FEF7A9FA00F0FF08002717E00021CE
:103650009248FEF79FFA00BF02219048FEF7EDFA6C
:103660000028F9D000BF01218C48FEF7E6FA0028B7
:10367000F9D08A48FEF790FA2070641C7F1CB7428C
:10368000E5D3012211028448FEF7EBF8BDE8F88388
:1036900038B50546082D54D2DFE805F0493F352BF3
:1036A00021180E04002400217D487E4AC2E9001042
:1036B0007D487E4908604DE0012400217C48794A1C
:1036C000C2E900107B487949086043E002240020E9
:1036D0007949744A03C27948744908603AE003247E
:1036E000002177486F4AC2E9001076486F490860A8
:1036F00030E00424002174486A4AC2E9001073488B
:103700006A49086026E0052400217148654AC2E93B
:1037100000107048654908601CE0062400216E48CE
:10372000604AC2E900106D486049086012E0072451
:1037300000216B485B4AC2E900106A485B49086097
:1037400008E0002400205649564A03C2564857490B
:10375000086000BF00BF0020009002E00098401CFD
:1037600000900098FF28F9D301205F4908700846AF
:103770004470024602219E20FFF7D6FE38BD2DE997
:10378000F04F93B00546002461E055F82400002175
:1037900014F0B0FF02D1DFF8549118E055F824007E
:1037A00020F000410846019114F045FF07463A46D3
:1037B0000B463C4903C914F06AFE824600224C4B7A
:1037C00014F0EDFDCDE9020114F078FF8146484682
:1037D00014F031FF07460022464B14F057FF02D287
:1037E000DFF808910BE0484614F025FF0746002259
:1037F0004FF0804314F032FF01D84FF08049484623
:1038000014F0ECFE07A941F8240051F8240014F04C
:10381000B6FE8246494614F0AEFC80464FF08F411A
:1038200014F0ACFC074614F0D9FE04A921F81400EA
:1038300055F82400002114F067FF04D20120A040B5
:103840003043C6B202E00120A0408643641C052C30
:103850009BDB0798C0B28DF830000798000A8DF8FE
:1038600031000798000C8DF83200BDF81000C0B28E
:103870008DF83300BDF8100000128DF83400089860
:10388000C0B28DF835000898000A8DF83600089807
:10389000000C31E000080140001001400030014000
:1038A00080841E41600000200AD7A33CF80200205B
:1038B000006A18416F12833C80840E410AD7233C72
:1038C000006A08416F12033C8084FE400AD7A33B84
:1038D000006AF8406F12833B006AE8406F12033BB6
:1038E000006AD8406F12833A68000020004786497A
:1038F0000000F03FE0C830418DF83700BDF81200FD
:10390000C0B28DF83800BDF8120000128DF83900F1
:103910000998C0B28DF83A000998000A8DF83B006A
:103920000998000C8DF83C00BDF81400C0B28DF869
:103930003D00BDF8140000128DF83E000A98C0B298
:103940008DF83F000A98000A8DF840000A98000C94
:103950008DF84100BDF81600C0B28DF84200BDF8E8
:10396000160000128DF843000B98C0B28DF8440089
:103970000B98000A8DF845000B98000C8DF8460056
:10398000BDF81800C0B28DF84700BDF8180000124D
:103990008DF848008DF8496085480088C0B28DF8E0
:1039A0004A008348008800128DF84B000CAA1C21A5
:1039B0008020FFF7B9FD13B0BDE8F08F2DE9FC5F63
:1039C0007C4800687C4908607C4A05213A20FFF762
:1039D000FAFD7A4800787949497800EB0120774967
:1039E000897800EB01407549C97800EB01607149A5
:1039F000086072480079724908706E4800686E4924
:103A00000968884203D001206E49087002E0002056
:103A10006C4908706C49D1F8100214F00CFE044691
:103A20000D4664490968694A1268881A14F0ACFDA9
:103A300080460022664B14F02AFD06460022654BA4
:103A400014F0B3FC824622462B4614F007FCCDE965
:103A5000000114F033FE60490860BDE8FC9F2DE9C9
:103A6000FC5F82465D48007848BB5D49504614F0D3
:103A70004BFE02D2DFF868A106E05A49504614F026
:103A800039FE01D2DFF85CA18AF0004B584614F0F1
:103A9000D2FD0022544BCDE9000114F086FC06460D
:103AA0000022524B14F0F3FC04460022504B14F059
:103AB000D5FB804614F0A6FD3D49088028E04D491D
:103AC000504614F021FE02D2DFF828A106E04A4950
:103AD000504614F00FFE01D2DFF81CA18AF0004B13
:103AE000584614F0A8FD064600223F4B14F05DFC3A
:103AF00080460022414B14F0CAFC044600223C4B95
:103B000014F0ACFBCDE9000114F07CFD28490880DD
:103B1000BDE8FC9F1FB54FF40070ADF80C00042009
:103B20008DF80F0003208DF80E0003A93448FDF72F
:103B3000E7FD01210846FFF737FB09210220FDF7C9
:103B4000F5FE4FF40070009000208DF804000C206A
:103B50008DF8050001208DF806006846FDF7F0FCA1
:103B600017208DF8080003208DF8090002208DF839
:103B70000A0001208DF80B0002A8FDF742FA1FBDD4
:103B800010B5FFF779FCFFF7C5FF10BD10B504466F
:103B90002046FFF77DFD10BD10B54FF40070FDF716
:103BA00046FD04F0E9F90FF051FAFFF707FF10BDE9
:103BB000500000206C0000207000002078000020E1
:103BC000DC020020DD020020F899002074000020B3
:103BD00000407540000022405400002010030020E7
:103BE00000000743000007C300408F4000E0604032
:103BF0000070974000001643000016C300C06240EA
:103C0000001001401FB505460F46D5F80080D5F8D5
:103C10000490D5F808A0D5F80CB02869039068691D
:103C20000290A8690190E86900905BA015F0C6FABF
:103C3000414667A015F0C2FA494669A015F0BEFAE0
:103C400051466BA015F0BAFA59466DA015F0B6FAB8
:103C50006FA0039915F0B2FA394671A015F0AEFACB
:103C600073A0029915F0AAFA75A0019915F0A6FAA9
:103C700077A0009915F0A2FA79480468214679A046
:103C800015F09CFAC4F3C0317AA015F097FAC4F38A
:103C900000317DA015F092FAC4F3C0217FA015F089
:103CA0008DFAC4F3802182A015F088FAC4F3402174
:103CB00084A015F083FAC4F3002187A015F07EFAE2
:103CC000C4F3C01189A015F079FAC4F300118CA0D7
:103CD00015F074FAC4F3C0018EA015F06FFAC4F3A6
:103CE000400191A015F06AFA04F0010193A015F0CB
:103CF00065FAC4F3406196A015F060FAC4F3006160
:103D000098A015F05BFAC4F3C0419BA015F056FAD9
:103D1000C4F380419DA015F051FAC4F34041A0A026
:103D200015F04CFAC4F30041A2A015F047FA4C4834
:103D3000001D06683146A4A015F040FAF10FA6A0B8
:103D400015F03CFAC6F38071A8A015F037FAC6F357
:103D50004001ABA015F032FA414808300168ADA02F
:103D600015F02CFA3E4814300168AEA015F026FA82
:103D70003B4810300168AFA015F020FA38480C30ED
:103D80000168B0A015F01AFA00BFFEE7B1A015F067
:103D900015FA00BFFEE70000232323232323232358
:103DA0002323232323232323486172642066617520
:103DB0006C742068616E646C65725D232323232319
:103DC00023232323232323232323230D0A0000005B
:103DD00052302020203D203078253038780D0A00E0
:103DE00052312020203D203078253038780D0A00CF
:103DF00052322020203D203078253038780D0A00BE
:103E000052332020203D203078253038780D0A00AC
:103E100052313220203D203078253038780D0A008C
:103E200053502020203D203078253038780D0A006E
:103E30004C522020203D203078253038780D0A0063
:103E400050432020203D203078253038780D0A005E
:103E500050535220203D203078253038780D0A000C
:103E600028ED00E043465352203D2030782530387D
:103E7000780D0A00204246415256414C49442020C8
:103E8000203A25640D0A00002053544B455252201D
:103E900020202020203A25640D0A000020554E5392
:103EA000544B455252202020203A25640D0A000030
:103EB00020494D505245434953455252203A2564BA
:103EC0000D0A0000205052454349534552522020CC
:103ED000203A25640D0A00002049425553455252AC
:103EE00020202020203A25640D0A0000204D4D415D
:103EF0005256414C49442020203A25640D0A0000C6
:103F0000204D53544B45525220202020203A256406
:103F10000D0A0000204D554E53544B45525220205F
:103F2000203A25640D0A0000204441434356494F7E
:103F30004C202020203A25640D0A000020494143EE
:103F40004356494F4C202020203A25640D0A00009A
:103F50002044495642595A45524F2020203A256460
:103F60000D0A000020554E414C49474E4544202043
:103F7000203A25640D0A0000204E4F435020202097
:103F800020202020203A25640D0A000020494E56AA
:103F90005043202020202020203A25640D0A0000D4
:103FA00020494E565354415445202020203A256440
:103FB0000D0A000020554E444546494E53545220A8
:103FC000203A25640D0A000048465352203D203017
:103FD00078253038780D0A0020444542554745562B
:103FE00054202020203A25640D0A000020464F521C
:103FF0004345442020202020203A25640D0A00005B
:104000002056454354424C2020202020203A25644D
:104010000D0A000044465352203D203078253038A8
:10402000780D0A0041465352203D20307825303823
:10403000780D0A0042464152203D20307825303824
:10404000780D0A004D4D4152203D20307825303802
:10405000780D0A00537461636B206F766572666C2D
:104060006F77210D0A00000010B586B004460121CB
:1040700044F20400FFF798F84FF40070ADF8140014
:1040800018208DF8170003208DF8160005A97C482C
:10409000FDF736FB4FF48060ADF8140004208DF876
:1040A000170005A97648FDF72BFB01940020ADF819
:1040B0000800ADF80A00ADF80C00ADF810000C20B7
:1040C000ADF80E0001A96F48FEF73FFD01216D48D4
:1040D000FEF7C7FD40216B48FEF7ABFE012240F220
:1040E00025516848FEF7C9FD25208DF80000022003
:1040F0008DF801008DF8020001208DF8030068465C
:10410000FCF77FFF06B010BD08B540F225515D48B1
:10411000FEF798FE58B15B48FEF714FEC0B200905F
:104120005948417B11B96946FCF794F81BE040F20D
:1041300027715448FEF786FEA8B100BF52482A38BE
:10414000007B50B9694650482A38FCF7B2F89DF810
:1041500000104C48FEF7F2FD05E0002240F2277106
:104160004848FEF78AFD08BD70B586B006460C4685
:10417000154601211020FFF717F80121C804FFF7A9
:1041800020F84FF48060ADF8140018208DF8170067
:1041900003208DF8160005A93C48FDF7B1FA4FF44D
:1041A0000060ADF8140004208DF8170005A9374809
:1041B000FDF7A6FA01960020ADF808001CB14FF4F7
:1041C0008050ADF808000020ADF80A00ADF80C00F2
:1041D000ADF810000C20ADF80E0001A92C48FEF738
:1041E000B4FC01212A48FEF73CFD40212848FEF797
:1041F00020FE9DB1012240F225512548FEF73DFDEC
:1042000034208DF8000004208DF801008DF80200A4
:1042100001208DF803006846FCF7F3FE06B070BD80
:1042200008B540F225511A48FEF70CFE68B118484F
:10423000FEF788FDC0B2009000BF1648407B18B959
:1042400069461448FCF706F819E040F22771104857
:10425000FEF7F8FD98B100BF0F48007B48B96946EA
:104260000D48FCF726F89DF800100948FEF766FD9A
:1042700005E0002240F227710548FEF7FEFC08BD6C
:1042800000080140003801409C320020001001402D
:10429000004C0040DE660020086B002010B50123B2
:1042A0009A0225492548FBF7AFFF01231A03244949
:1042B00022482A30FBF7A8FFAD23082221492248D3
:1042C000FBF7A2FFAD23082220491F482A30FBF745
:1042D0009BFF01231A031E491E48FBF795FF01238C
:1042E0001A031D491B482A30FBF78EFFAD23082215
:1042F0001A491B48FBF788FFAD23082219491848C3
:104300002A30FBF781FF0123142217491748FBF7D6
:104310007BFF10BD10B509480BF00DFB00BF07482F
:10432000D0F80E0028B1012240F227711048FEF7A4
:10433000A4FC00F03EFE10BDA20700207232002057
:10434000A2170020A2270020CD3400200A2D002033
:1043500021350020F15F002021450020215500205B
:104360004C620020895A0020A0620020B462002024
:10437000003801402DE9F04106460C46204613F076
:104380009AFD0746002504E061193046FBF762FFFD
:104390006D1CBD42F8D3BDE8F08110B5FCF7DBF928
:1043A000FCF734F810BD10B5012240F22771FE4829
:1043B000FEF763FC00BFFD4814F0CDFE0028FAD0E4
:1043C00010BD10B5FFF7EFFF10BD2DE9F04FA1B004
:1043D00007460C464FF0000A802101A813F04EFD5D
:1043E0000025F348D0F80080002F42D03AE006E0E4
:1043F00028466D1C01AA8118EE48FBF75AFFED48CC
:1044000014F0A9FE0028F3D0EBA10DF1060014F082
:10441000CDFE10B14FF0010A2AE0E9A10DF106002E
:1044200014F0C4FEE8B1E8A10DF1060014F0BEFEE0
:10443000B8B1E4A10DF1060014F0B8FE0646E2A101
:104440000DF1060014F0B2FE8146002089F800004C
:10445000701C13F01DFE83465946DCA014F0AEFE1E
:1044600006E000BFD248016808F5FA708142BED369
:1044700031E029E006E028466D1C01AA8118CD48EC
:10448000FBF717FFCB4814F066FE0028F3D0D4A149
:104490000DF1060014F08AFE8146CBA10DF1060055
:1044A00014F084FE0646B9F1000F0CD05EB1002175
:1044B000A81E01AA11541CB1911D204613F01DFD28
:1044C0004FF0010A06E000BFB948016808F5FA702C
:1044D0008142CFD300BF504621B0BDE8F08F70B508
:1044E00004460D4629462046FFF76FFF70BDF0B524
:1044F000A1B006460C46002E78D02078002876D051
:10450000AC48FBF797FEA948FBF794FEB6A1A74875
:10451000FFF730FFFFF747FFA548076800BFA44833
:10452000016807F5FA70814204D2A24814F013FE24
:104530000028F4D19F4814F00EFE28B1AB49ACA07E
:1045400014F03CFE21B0F0BD0020209003E020A933
:104550009848FBF7AEFE974814F0FDFD0028F6D012
:104560009DF88000612804D0A049AAA014F026FE7E
:10457000E8E7B0A18D48FFF7FDFEFFF714FF8C4878
:10458000076800BF8A48016807F5FA70814204D2C3
:10459000884814F0E3FD0328F4D3864814F0DEFDC8
:1045A000032804D29149A4A014F008FECAE7802190
:1045B000684613F063FC002506E028466D1C6A4639
:1045C00081187C48FBF775FE7A4814F0C4FD00287A
:1045D000F3D000200DF80500A0A1684613F072FC8E
:1045E00030B182499EA014F0E9FDABE751E03EE016
:1045F000A3A16E48FFF7BEFEFFF7D5FE0021012004
:10460000FFF7E3FEA1A16948FFF7B4FEFFF7CBFE79
:1046100000210120FFF7D9FEA0A34BF60372A3A14E
:10462000684614F0DBFD69466048FFF7A3FEFFF71C
:10463000BAFE69460120FFF7C8FEA1A1684614F042
:10464000CDFD684614F0BAFD69465848FFF792FE62
:10465000FFF7A9FE69460120FFF7B7FE18B16349CD
:10466000A0A014F0ABFD0120A749087014E0A7A199
:104670004E48FFF77FFEFFF796FE00210120FFF76F
:10468000A4FE10B1A3A014F099FD00209E4908706B
:1046900002E09D480078207000BF53E72DE9FF4FEE
:1046A000AFB00C4615461E463C9F2F9800285FD0A1
:1046B0004048FBF7BFFD3D48FBF7BCFD24B19D48DA
:1046C000216801602179017115B19B482968016059
:1046D00016B19A483168016017B19948396801608C
:1046E00080210FA813F0CAFB9248007820B195A151
:1046F0000FA814F073FD2DE09148C278807890499E
:1047000049788F4B1B78CDE90A31CDE90C028B48F3
:10471000C0788A498978894A5278884B1B78CDE9D4
:104720000632CDE908108448C17882784078824BFF
:104730001B78CDE90230CDE904217E4800797D491E
:10474000C978CDE900107B488378427881490FA869
:1047500014F044FD0FA814F031FD0FA91348FFF722
:1047600009FEFFF720FE00212F98FFF72EFE98E1AB
:104770001048FBF75FFD0D48FBF75CFD76A10B4889
:10478000FFF7F8FDFFF70FFE00BF80210FA813F021
:1047900075FB0FA92F98FFF718FE002802D00FA86D
:1047A0000A90DFE06AE10000004C0040086B002046
:1047B00048000020DE6600202B4F4B0D0A00000051
:1047C0002B4552523D0000000D0A00005B4552523D
:1047D0004F525D436F64653A25640D0A0000000086
:1047E0002B4F4B3D000000002B2B2B00D0B00108BD
:1047F0005B4552524F525D25733A52656365697647
:1048000065202761272074696D656F7574210D0A15
:10481000000000005B4552524F525D25733A5265CD
:10482000636569766564206E6F7420276127210DAA
:104830000A000000610000005B4552524F525D25A6
:10484000733A5265636569766520272B4F4B2720A5
:1048500074696D656F7574210D0A00002B4F4B0054
:104860005B4552524F525D25733A526563656976D6
:1048700065206E6F7420272B4F4B27210D0A0000F7
:1048800041542B453D6F66660D0A000041542B577D
:104890004D4F44453D5354410D0A000057686F2069
:1048A000697320446F626F743F00000041542B53C2
:1048B00045415243483D25642C25730D0A000000F4
:1048C00041542B534F434B413D554450532C3139A8
:1048D000322E3136382E312E312C383839390D0AF6
:1048E0000000000025733A5365742055445020534E
:1048F0006572766572207375636365737366756C34
:104900006C79210D0A0000008800002041542B5AC8
:104910000D0A000057694669206D6F64756C65204B
:10492000697320726573657474696E672E2E2E0D1F
:104930000A0000008A0000208F0000209300002061
:104940009700002041542B57414E4E3D4448435060
:104950000D0A0000B8C1010841542B57414E4E0DBD
:104960000A000000FBA10A9814F020FC00F10108E5
:10497000F8A1404614F01AFC00F10109F5A14846DF
:1049800014F014FC00F1010AF2A1504614F00EFCE0
:1049900000F1010B0A9800286FD0B8F1000F6CD01D
:1049A000B9F1000F69D0BAF1000F66D0BBF1000F6A
:1049B00063D0002008F8010C09F8010C0AF8010C7A
:1049C0000BF8010CE4A10A9813F07CFA08B9012055
:1049D00000E00020E24908700EA80DA90CAB0BAA5C
:1049E000CDE90010DFA1404613F090FA002006E068
:1049F0000BA911F82020DA49491C0A54401C04284C
:104A0000F6D30EA80DA90CAB0BAACDE90010D5A1C9
:104A1000484613F07BFA002005E00BA911F820109E
:104A2000D34A1154401C0428F7D30EA80DA90CAB8F
:104A30000BAACDE90010CBA1504613F067FA002075
:104A400005E00BA911F82010CA4A1154401C042893
:104A5000F7D30EA80DA90CAB0BAACDE90010C1A18C
:104A6000584613F053FA002005E00BA911F8201066
:104A7000C14A1154401C0428F7D300BF24B1B848E0
:104A8000016821600079207115B1B948006828607B
:104A900016B1B8480068306017B1B7480068386090
:104AA00000BF33B0BDE8F08FF0B5A1B007460D46AA
:104AB0001446002F2CD0B148FBF7BCFBB048FBF7E5
:104AC000B9FB1DB12946AF4813F017FA1CB12146B6
:104AD000AD4813F012FA802101A813F0CFF9AA4BC8
:104AE000A84AAAA101A814F079FB01A814F066FB5A
:104AF00001A9A348FFF73EFCFFF755FC002138460B
:104B0000FFF763FC18B1A549A5A014F057FB31E0ED
:104B10009A48FBF78FFB9A48FBF78CFBAAA19848B1
:104B2000FFF728FCFFF73FFC00BF802101A813F02E
:104B3000A5F901A93846FFF748FC80B185A101A875
:104B400014F034FB06464EB10020307001A98D48A8
:104B500013F0D3F9711C8C4813F0CFF900BF1DB1CD
:104B60008849284613F0C9F91CB18749204613F03B
:104B7000C4F900BF21B0F0BDF0B5ADB0002600BF54
:104B8000012200214FF4E130FFF7EEFA01202C90D2
:104B90002CA9FFF7ACFC8F48007800286DD00022CC
:104BA00011461046FFF780FF0020034602460146EB
:104BB0000090FFF773FD00BF80210BA813F05EF992
:104BC00085A16F48FFF7D6FBFFF7EDFB0BA900208F
:104BD000FFF7FBFB0BAD5FA10BA814F0E7FA04464F
:104BE000002D18D0002C16D000202070641C7DA150
:104BF000284613F067F948B1204613F049FA0746F2
:104C00003A4629467BA014F0D9FA04E05E4A5D4991
:104C100080A014F0D3FA5748C07856498978554A8D
:104C20005278544B1B78CDE90632CDE90810504834
:104C3000C27880784E4949784D4B1B78CDE90231D6
:104C4000CDE90402464800794549C978CDE900100C
:104C5000434883784278007808B13FA000E079A00B
:104C600001467AA014F0AAFA00BF00202B902BA9CD
:104C70000120FFF73CFC012600BF00BF30462DB0ED
:104C8000F0BDF0B5A1B006460C46002E5ED02078EF
:104C900000285CD03948FBF7CDFA3948FBF7CAFA4F
:104CA000AFF2BC413648FFF765FBFFF78AFB74485B
:104CB000076800BF7248016807F5FA70814204D2A4
:104CC0002E4814F048FA0028F4D12C4814F043FA86
:104CD00030B16C49AFF2E84014F070FA21B0F0BD89
:104CE0000020209003E020A92448FBF7E2FA2348A3
:104CF00014F031FA0028F6D09DF88000612805D024
:104D00006049AFF2F04014F059FAE7E7AFF2DC4146
:104D10001B48FFF72FFBFFF754FB5948076800BFFC
:104D20005748016807F5FA70814204D2134814F01D
:104D300015FA0328F4D3114814F010FA032807D207
:104D40005049AFF20C5014F039FAC7E7DCE0C9E083
:104D50009AE000002C00000044484350000000008E
:104D60008A00002025642E25642E25642E256400EB
:104D70008F0000209300002097000020DE660020B6
:104D8000086B0020326B0020526B002041542B57DF
:104D90005354413D25732C25730D0A00EDB00108D5
:104DA00025733A5365742053534944206F72207021
:104DB000617373776F726420737563636573736671
:104DC000756C6C79210D0A0041542B575354410DD9
:104DD0000A0000008800002041542B57534C4B0D13
:104DE0000A000000444953434F4E4E454354454446
:104DF00000000000436F6E6E65637465642041506F
:104E000020535349443A25732C20727373693A2511
:104E1000640D0A00415020646973636F6E6E6563B0
:104E2000746564212053746F726564205353494440
:104E30003A25732C2070617373776F72643A25730F
:104E40000D0A000053544154494300004D6F6465FE
:104E50003A25732C2025642E25642E25642E256486
:104E60002C2025642E25642E25642E25642C2025D7
:104E7000642E25642E25642E25640D0A0000000092
:104E800048000020DFB001088021684612F0F6FFDC
:104E9000002506E028466D1C6A4681189E48FBF7EF
:104EA00008FA9D4814F057F90028F3D000200DF8B7
:104EB00005009AA1684613F005F828B19849AFF2A9
:104EC000606014F07BF909E796A19948FFF752FA60
:104ED000FFF769FA00210120FFF777FA01209549D1
:104EE000087014E094A19248FFF744FAFFF769FABA
:104EF00000210120FFF7F3FA10B192A014F05EF93F
:104F000000208C49087002E08A480078207000BFB9
:104F1000E4E638B5002400BF012200214FF46140CF
:104F2000FFF722F9012000906946FFF7AAFE8148A9
:104F3000007830B101240020009069460120FFF77D
:104F4000A0FE00BF204638BD10B501239A02854956
:104F50007148FBF759F901239A0283497448FBF71A
:104F600053F9FFF71AFA18B103208049087016E0C8
:104F7000FFF702FE18B101207C4908700FE0FFF72F
:104F8000C8FF18B102207949087008E0002077496D
:104F90000870012200214FF4E130FFF7E5F85E4888
:104FA000FBF748F96248FBF745F910BD6F480078F8
:104FB000704738B56D480078002871D0012869D055
:104FC000022804D0032801D1FBF75EFDA2E00AE02D
:104FD00069465148FBF76DF96548417B11B969464F
:104FE000FBF738F900BF4C4814F0B5F80028EFD0B3
:104FF0005F482A380AF09FFC5E48007820B10128FB
:105000002FD0022844D138E0494814F0A4F838B32E
:1050100057482A3814F09FF810BB55482A3814F026
:105020009DF80446142C01D9142000E020460446C3
:10503000002509E069464E482A38FBF73AF96946E7
:105040003B48FBF707F96D1CA542F3D3012240F260
:1050500027714948FDF711FE01204649087000BF3D
:1050600016E0334814F077F830B1444800684449FA
:10507000086002203F4908700AE040480068404943
:105080000968401A462802D900203A49087000BF32
:1050900000BF3FE03B48007808B13BE000E000BFC4
:1050A0000AE069461C48FBF704F93148417B11B915
:1050B0006946FBF7CFF800BF174814F04CF80028FA
:1050C000EFD02B482A380AF036FC194814F043F880
:1050D000F8B127482A3814F03EF8D0B90DE06946F7
:1050E00023482A38FBF7E5F800BF1148407B18B980
:1050F00069460F48FBF7AEF800BF1D482A3814F088
:105100002AF80028EBD0012240F227711A48FDF757
:10511000B4FD00BF00BF38BDDE6600202B6F6B0002
:10512000DFB0010841542B52454C4F41440D0A0059
:10513000086B00208900002041542B454E544D0D32
:105140000A000000424C45206D6F64756C65206953
:105150007320726573657474696E672E2E2E0D0A46
:1051600000000000DE6200200867002080000020B0
:105170001B60002081000020004C004048000020FF
:10518000840000208800002010B500BF0121042009
:10519000FEF70AF801210820FEF706F80121102089
:1051A000FEF702F801212020FDF7FEFF012140203B
:1051B000FDF7FAFF01218020FDF7F6FF012108022B
:1051C000FDF7F2FF00BF10BD38B505460C46ADF83F
:1051D000004010208DF8030003208DF8020069467E
:1051E0002846FCF78DFA38BD38B505460C46ADF8B3
:1051F000004004208DF8030003208DF8020069466A
:105200002846FCF77DFA38BD2DE9F04F89B00646F7
:105210000F4601210846FDF7D4FF01210920FDF7C3
:10522000C3FF0121F748FCF73CFB4FF40060ADF8E9
:10523000200018208DF8230003208DF8220008A9F3
:10524000F148FCF75DFAF149304613F05DFA0ED2F1
:105250003146EF4812F0C4FF82464FF07E5112F003
:1052600087FF814613F0BAF984B200250EE031467B
:10527000E84812F0B5FF82464FF07E5112F078FFF9
:10528000814613F0ABF984B24FF47A75ADF818404B
:10529000ADF814500020ADF81A00ADF8160005A9BD
:1052A0004FF08040FCF7D4FD6020ADF804000120F1
:1052B000ADF806000020ADF80C0001A94FF08040C9
:1052C000FCF7DDFE0821C806FDF76DFA012188070D
:1052D000FDF71AF9D049384613F016FA01D2CE4F2D
:1052E00005E00021384613F005FA00D200272046D9
:1052F00013F045F98246C849384612F071FF8346DB
:10530000514612F03BFF814613F068F91FFA80F80E
:1053100041464FF08040FDF795FB09B0BDE8F08FA6
:105320002DE9F04F89B006460F4601214803FDF7ED
:105330003BFF01211120FDF737FF8020ADF8200051
:1053400018208DF8230003208DF8220008A9B34807
:10535000FCF7D6F9AD49304613F0D6F90ED23146F6
:10536000AB4812F03DFF82464FF07E5112F000FF35
:10537000814613F033F984B200250EE03146A5488A
:1053800012F02EFF82464FF07E5112F0F1FE814660
:1053900013F024F984B24FF47A75ADF81840ADF8E3
:1053A00014500020ADF81A00ADF8160005A99C486D
:1053B000FCF74EFD6020ADF804000120ADF80600BA
:1053C0000020ADF80C0001A99548FCF7C0FD0821AC
:1053D0009348FDF7D2F901219148FDF795F8012195
:1053E0008F48FDF79DF88C49384613F08DF901D2AE
:1053F000894F05E00021384613F07CF900D20027E0
:10540000204613F0BCF882468349384612F0E8FE85
:105410008346514612F0B2FE814613F0DFF81FFAC0
:1054200080F841467E48FDF709FB09B0BDE8F08FE2
:105430002DE9F04F89B006460F4601210220FDF705
:10544000C0FE01210920FDF7AFFE0120ADF82000CC
:1054500018208DF8230003208DF8220008A96A483F
:10546000FCF74EF96949304613F04EF90ED2314639
:10547000674812F0B5FE82464FF07E5112F078FE7A
:10548000814613F0ABF884B200250EE03146614846
:1054900012F0A6FE82464FF07E5112F069FE814660
:1054A00013F09CF884B24FF47A75ADF81840ADF85B
:1054B00014500020ADF81A00ADF8160005A959489F
:1054C000FCF7C6FC6020ADF804000120ADF8060032
:1054D0000020ADF80C0001A95248FCF785FD082119
:1054E0005048FDF757F901214E48FDF70DF84A499C
:1054F000384613F009F901D2474F05E0002138463C
:1055000013F0F8F800D20027204613F038F882464E
:105510004149384612F064FE8346514612F02EFE91
:10552000814613F05BF81FFA80F841463D48FDF7CD
:1055300087FA09B0BDE8F08F2DE9F04F89B0064633
:105540000F4601210220FDF73CFE01210920FDF755
:105550002BFE0220ADF8200018208DF82300032038
:105560008DF8220008A92848FCF7CAF827493046D8
:1055700013F0CAF80ED23146254812F031FE8246A9
:105580004FF07E5112F0F4FD814613F027F884B2FB
:1055900000250EE031461F4812F022FE82464FF0F1
:1055A0007E5112F0E5FD814613F018F884B24FF4F5
:1055B0007A75ADF81840ADF814500020ADF81A0017
:1055C000ADF8160005A91748FCF742FC6020ADF8BD
:1055D00004000120ADF806000020ADF80C0001A980
:1055E0001048FCF74CFD08210E48FDF7DCF80121BE
:1055F0000C48FCF789FF0849384613F085F813D2A8
:10560000054F17E000031800000C014000401C4645
:105610004054894C00A08C470000C8420010014053
:1056200000340140000400400021384613F062F8C5
:1056300000D20027204612F0A2FF8246F3493846E6
:1056400012F0CEFD8346514612F098FD814612F0CD
:10565000C5FF1FFA80F84146ED48FDF7F3F909B0A0
:10566000BDE8F08F2DE9F04F89B006460F460121C5
:105670000420FDF7A6FD01210920FDF795FD4FF45B
:105680000070ADF8200018208DF8230003208DF85D
:10569000220008A9DF48FCF733F8DF49304613F051
:1056A00033F80ED23146DD4812F09AFD82464FF0B3
:1056B0007E5112F05DFD814612F090FF84B200250C
:1056C0000EE03146D64812F08BFD82464FF07E51F7
:1056D00012F04EFD814612F081FF84B24FF47A75CC
:1056E000ADF81840ADF814500020ADF81A00ADF830
:1056F000160005A9CB48FCF7ABFB6020ADF8040011
:105700000120ADF806000020ADF80C0001A9C54845
:10571000FCF7B5FC0821C348FDF745F80121C14855
:10572000FCF7F2FEB949384612F0EEFF01D2B74F4E
:1057300005E00021384612F0DDFF00D200272046A8
:1057400012F01DFF8246B149384612F049FD8346EA
:10575000514612F013FD814612F040FF1FFA80F807
:105760004146B048FDF76EF909B0BDE8F08F30B59D
:1057700087B005460C464FF40040FDF779FC012147
:105780004FF40570FDF710FDADF8184000208DF8BE
:105790001B0006A92846FBF7B3FFA348FBF79AFCBA
:1057A000002001908DF808008DF809004FF460206A
:1057B00003900020049001208DF8140001A99A485C
:1057C000FBF7AFFC01219848FBF7D7FC9648FBF7A5
:1057D000F6FC00BF9448FBF7F7FC0028FAD192488A
:1057E000FBF7FCFC00BF9048FBF7FDFC0028FAD15A
:1057F00007B030BD70472DE9F04105460E46280937
:10580000072813D2DFE800F00406080A0C0E100087
:10581000864C0CE07F4C0AE0854C08E0854C06E0A5
:10582000854C04E0854C02E0854C00E000BF00BFE1
:1058300005F00F010120884087B2012E06D0022E0C
:1058400009D0032E08D0042E10D10AE03946204694
:10585000FFF7BAFC0BE00AE039462046FFF7C4FC2C
:1058600005E039462046FFF782FF00E000BF00BF99
:10587000BDE8F0812DE9F04105460E4628090728CC
:1058800013D2DFE800F00406080A0C0E1000674C83
:105890000CE0604C0AE0664C08E0664C06E0664CA2
:1058A00004E0664C02E0664C00E000BF00BF05F07B
:1058B0000F010120884087B2324639462046FBF767
:1058C000D0FFBDE8F08170B505462809072813D23E
:1058D000DFE800F00406080A0C0E1000534C0CE040
:1058E0004C4C0AE0524C08E0524C06E0524C04E0AA
:1058F000524C02E0524C00E000BF00BF05F00F0127
:105900000120884086B231462046FBF78CFF0128F3
:1059100000D170BD0020FCE770B506460C46154668
:10592000192E19D004DC102E11D0112E1ED118E022
:105930001B2E02D0272E19D104E029462046FFF75E
:1059400063FC14E029462046FFF7EAFC0FE02946F5
:105950002046FFF76DFD0AE029462046FFF782FE4C
:1059600005E029462046FFF7E7FD00E000BF00BF45
:1059700070BD70B50446212C2ED006DC022C1DD043
:10598000032C0DD0202C2ED11FE0222C0FD0242C44
:1059900029D1072301220E212348FBF75AFC23E0DB
:1059A0000723012203212048FBF753FC1CE00723B7
:1059B00001220C211C48FBF74CFC15E007230122B7
:1059C00002211948FBF745FC0EE0072301220A21BA
:1059D0001548FBF73EFC07E0072301220B21124884
:1059E000FBF737FC00E000BF00BF01210E48FBF7CA
:1059F00004FC00BF02210C48FBF770FD0028F9D021
:105A00000948FBF78DFC0546284670BD0000C842DA
:105A100000040040000C014000401C464054894CEA
:105A200000A08C470008004000240140000801400D
:105A3000001001400014014000180140001C01400A
:105A40000020014001465C2914D008DC1F290DD03C
:105A500049290CD054290BD05B2912D109E06529C2
:105A600009D06E2909D078290BD108E000BF00BF0A
:105A700000BF00BF00BF002005E0012003E00320BD
:105A800001E0022000BF00BF7047014691F83402D8
:105A9000F64A105C704770B5044694F8340230B191
:105AA00001280BD0022819D0032876D11CE0F04839
:105AB000007894F83412ED4A50546FE04FF4F070CF
:105AC0000059EC490968081AD4F8DC11884204D955
:105AD000012094F83412E54A50545FE0012094F814
